:200000000C94E90E0C94110F0C94110F0C94110F0C94110F0C94110F0C94110F0C94110F09
:200020000C94110F0C9400120C94110F0C94110F0C94110F0C94A7140C94110F0C94110F33
:200040000C94110F0C94110F0C94110F0C94110F0C94110F0C94110F0C94110F0C94110FA0
:200060000C94810F0C94110F941399139E13A513AA13AF13B413BC130314401440144014AC
:2000800040144014401411141414401419141E142314401428142D14C090604840302420B0
:2000A00018100C080604030201881091109A10A310AB10B410BA10C210CB10D410DD10E6B1
:2000C00010EC10F510FD1006110F1118111E1124112D1134113D1146114E1155115C116381
:2000E000116A11711178117F1186118D1194119A119F11A511AB11AF11B311B711BB11BE5C
:2001000011C111C511C911CD11D111D511D911DD11E111E511E911ED11F111F511F911FDDF
:20012000110112051209120D12111215121E1227123012341238123C124012441248124C29
:20014000125012541258125C126012641268126C127012741278127C12801284128812D15A
:20016000118C129012941298129C12A012A412A8129012AC12B012B312B712A412BB12BF1C
:2001800012C312C712CB12CF12D312D712DB12DF12E312E712EB12EF12F312F712FB12FF2F
:2001A00012031307130B130F13131317131B131F13241328132C13A4123013341338133C95
:2001C000134013441348134C135013541358135C136013641368136C137013741378137C0F
:2001E000138013841388138C139013941398139C13A013A413A613A913AB13AE13B013B211
:2002000013B513B713BA13BC13BF13A413C113A913C413AE13B013C713B513CA13BA13CD10
:2002200013BF13D013D413D513D913DB13DD13DF13E113E513E913ED13F113F513F913FD6E
:20024000130114051409140D141114151419141D142114251429142D143114351439143D6F
:20026000144114451449144D145114551459145D146114651469146D147114751479147D4E
:20028000148C12811485145555F5F5B5B5D5D555AB55599595090949924952494919D56B8B
:2002A0006B5B5B7777B76D57576F6FDF7611A9C16F01D1000011491111494901050101490F
:2002C0005205014129410441A44141000092401010101250109090901210120C49104010A3
:2002E0004810900000494911115C5C555544441F5F4545D5D577774264FFFF0000484801A3
:2003000055004910F084A448101141491455555858A5627F007F0081FF81FF7F007F008132
:20032000FF81FF7F007F0081FF81FF7F007F0081FF81FF7F0081FF7F0081FF7F0081FF7FC6
:200340000081FF7F0081FF7F0081FF7F0081FF7F0081FFC1FFC1FF7F00000081FF000000A2
:20036000005800000000005800CEFFA8FF00005800000013002C005D00FCFF2000CBFFA6DA
:20038000FF81FF750020009AFFCBFF6900CBFF5D00CBFF58009BFF6B00A1FF5800A8FF325E
:2003A00000DAFF4100A8FF6500A1FF650081FF3F00E1FF4600ACFF540090FF54009EFF703E
:2003C000009EFF3600BAFF7F00ACFF7F0090FF5400ACFF00000100030007000F003F007F82
:2003E00000FF00FF03FF0FFF3FFFFF00000100030007000F003F007F00FF00FF03FF0FFFCC
:200400003FFFFF00000100030007000F003F007F00FF00FF03FF0FFF3FFFFF000001000576
:200420000007000F003F007F00FF00FF03FF0FFF3FFFFF0000010005000D000F003F007FBD
:2004400000FF00FF03FF0FFF3FFFFF00000100090015002D003F007F00FF00FF03FF0FFF39
:200460003FFFFF00000100110029002D007D007F00FF00FF03FF0FFF3FFFFF00000100117E
:200480000029005500DD00FD00FF00FF03FF0FFF3FFFFF00000100210091002901AD01DD51
:2004A00002BD03FF03FF0FFF3FFFFF000001004100110149025505AD066D0B7D0FFF0FFF71
:2004C0003FFFFF00000100810021029108A9145515AD16DD2EFD3EFF3FFFFF000001000133
:2004E00001410811112929A9525555ADADDDDDFDFDFFFF0000010002000300040005000678
:20050000000700080009000A000B000000000002000200040005000500070007000900097C
:20052000000B0000000000020003000300050005000700070009000A000A00000001000171
:200540000003000300050005000700080008000A000A00000000000200020004000400064E
:200560000007000700090009000B0000000000020002000400050005000700070009000A1D
:20058000000A0000000000020003000300050005000700080008000A000A00000001000112
:2005A0000003000300050006000600080008000A000A0000000000030003000400040007EB
:2005C000000700070009000A000A000000000003000300030005000600070007000A000ABA
:2005E000000A000000000002000200040004000700070007000900090009000000000003B2
:20060000000300030005000500070007000A000A000A00000001000100040004000500058A
:20062000000700080008000B000B0000000100010004000400040006000700080008000B57
:20064000000B000000010001000300030005000500070007000A000A000B0000000100014E
:200660000003000300060006000700080008000B000B000000000002000200040005000529
:20068000000500090009000A000B00000000000200020005000500050007000700090009FB
:2006A00000090000000000030003000300050005000800080008000A000A000000000003EF
:2006C0000003000400040006000600080008000A000A0000000100010003000400050005CC
:2006E000000700080008000A000A000000010001000100050005000500070008000800089E
:20070000000800000001000100030003000300070007000800080008000800000000000296
:200720000002000400040006000600080008000A000A00AA00E3005501C701AA028E030097
:200740000455051C070008AA0A001055150020AA2A004055550080FFFF8702B302130333FF
:2007600003530373039303B303D303F3040B0523053B0553056B0583059B05B305CB05E3BE
:2007800005FB0513062B0643065B06730623058B06A306BB06D306EB0603071B0733071084
:2007A000101016090909061010101602020207101010160902040F101010160102010610CB
:2007C000101012040A0F021010101704060106101010130407050702030302020E1E0C00D2
:2007E00000001C14141700000103070F1F1F0000000E1511110E000105090D1115191D215A
:2008000025292C3034383C4044484C5054585C6064686C7074787C8083878B8F93979B9F9E
:20082000A3A7ABAFB3B7BBBFC3C7CBCFD3D6DADEE2E6EAEEF2F6FAFEFAF6F2EEEAE6E2DECB
:20084000DAD6D3CFCBC7C3BFBBB7B3AFABA7A39F9B97938F8B8783807C7874706C686460F1
:200860005C5854504C4844403C3834302C2925211D1915110D090501FEFEFEFEFEFEFEFE2D
:20088000FEFEFEFEFEFEFEFEFEFEFEFEFEFEFEFEFEFEFEFEFEFEFEFEFEFEFEFEFEFEFEFE98
:2008A000FEFEFEFEFEFEFEFEFEFEFEFEFEFEFEFEFEFEFEFEFEFEFEFE010101010101010160
:2008C0000101010101010101010101010101010101010101010101010101010101010101F8
:2008E000010101010101010101010101010101010101010101010101FE01030507090B0DB1
:200900000F11131517191B1D1F21232527292B2D2F31333537393B3D3F41434547494B4D17
:200920004F51535557595B5D5F61636567696B6D6F71737577797B7D7F80828486888A8CFE
:200940008E90929496989A9C9EA0A2A4A6A8AAACAEB0B2B4B6B8BABCBEC0C2C4C6C8CACCF7
:20096000CED0D2D4D6D8DADCDEE0E2E4E6E8EAECEEF0F2F4F6F8FAFCFE0180868C92989EA6
:20098000A4AAB0B6BBC1C6CBD0D4D9DDE1E5E9ECEFF2F4F7F9FAFCFDFDFEFEFEFDFDFCFA02
:2009A000F9F7F4F2EFECE9E5E1DDD9D4D0CBC6C1BBB6B0AAA49E98928C868079736D676141
:2009C0005B554F49443E39342F2B26221E1A1613100D0B080605030202010101020203058C
:2009E00006080B0D1013161A1E22262B2F34393E44494F555B61676D737980808A949DA704
:200A0000B1BAC2CBD2DAE0E6ECF1F5F8FBFCFEFEFEFDFBF9F6F3EFEAE6E0DBD5CFC9C3BD70
:200A2000B6B0AAA49F99948F8B8783807D7B797877767676767778797B7C7E8081838486EF
:200A400087888989898988878684827F7C7874706B66605B554F49423C36302A241F191579
:200A6000100C090604020101010304070A0E13191F252D343D454E58626B7580808F9EAC08
:200A8000BAC7D3DEE7EFF5FAFDFEFEFCF9F4EFE8E1D9D1C9C2BAB3ADA8A3A09E9E9EA0A36E
:200AA000A8ADB3BAC2C9D1D9E1E8EFF4F9FCFEFEFDFAF5EFE7DED3C7BAAC9E8F8070615331
:200AC00045382C2118100A0502010103060B10171E262E363D454C52575C5F6161615F5C1E
:200AE00057524C453D362E261E17100B0603010102050A1018212C38455361708080909F44
:200B0000ADB9C3C9CCCCC9C4BCB3A9A0978F8A87878A9099A4B0BECCD9E5F0F7FCFEFCF725
:200B2000F0E5D9CCBEB0A499908A87878A8F97A0A9B3BCC4C9CCCCC9C3B9AD9F90806F606B
:200B400052463C363333363B434C565F6870757878756F665B4F4133261A0F080301030865
:200B60000F1A2633414F5B666F7578787570685F564C433B363333363C4652606F8001010B
:200B8000010305080D131B25313E4D5D6E8091A3B4C4D3E0EBF3FAFDFEFCF8F1E7DCCEBF76
:200BA000B09F8E7D6C5C4C3E31251B130C06020101010101010101010101010101010101E0
:200BC0000101020203030405060707060503010101010101010101010101010101010101CC
:200BE0000101010101010101010101010101010101010101010101010101010101010101D5
:200C000001020509111B293A4D637A92A9BFD3E4F1FAFEFEF9F0E3D4C4B2A192857B747243
:200C2000747B8592A1B2C4D4E3F0F9FEFEFAF1E4D3BFA9927A634D3A291B11090502010194
:200C4000010101010101010101010101010101010101010101010101010101010101010174
:200C6000010101010101010101010101010101010101010101010101010101010101010154
:200C80003F39332D27211B150F090301070D13191F252B31373D43494F555B61676D7379E8
:200CA00080868C92989EA4AAB0B6BCC2C8CED4DAE0E6ECF2F8FEFCF6F0EAE4DED8D2CCC600
:200CC000C0C6CCD2D8DEE4EAF0F6FCFEF8F2ECE6E0DAD4CEC8C2BCB6B0AAA49E98928C86A0
:200CE0008079736D67615B554F49433D37312B251F19130D070103090F151B21272D333947
:200D00003F8078706860585048403830292119110901091119212930384048505860687001
:200D20007880878F979FA7AFB7BFC7CFD6DEE6EEF6FEF6EEE6DED6CFC7BFB7AFA79F978FEC
:200D40008780878F979FA7AFB7BFC7CFD6DEE6EEF6FEF6EEE6DED6CFC7BFB7AFA79F978FBD
:200D6000878078706860585048403830292119110901091119212930384048505860687059
:200D80007880010203030405060708090A0B0C0E0F1012131517181A1C1E20222426292B40
:200DA0002E3134373A3D4044484C5054585D62676C71777D838A91989FA7AFB7C0C9D3DDCC
:200DC000E8F3FEF3E8DDD3C9C0B7AFA79F98918A837D77716C67625D5854504C4844403DFC
:200DE0003A3734312E2B29262422201E1C1A1817151312100F0E0C0B0A09080706050403DA
:200E0000030201010C16202930383E444A4F54585C606366696C6E7072747677787A7B7C3D
:200E20007D7E7F808081828384858788898B8D8F919396999C9FA3A7ABB0B5BBC1C7CFD69A
:200E4000DFE9F3FEF3E9DFD6CFC7C1BBB5B0ABA7A39F9C999693918F8D8B89888785848383
:200E6000828180807F7E7D7C7B7A7877767472706E6C696663605C58544F4A443E383029A9
:200E800020160C01E5CDB8A4938274665A4F453C332C26201A16120E0B09070504020201CA
:200EA00001010102020304050608090B0D0E10121416191B1D1F222427292C2E3133363963
:200EC0003B3E414446494C4F5254575A5D606366686B6E7174777A7D808285888B8E91942C
:200EE000979A9DA0A3A6A9ABAEB1B4B7BABDC0C3C6C9CCCFD2D5D8DBDEE1E3E6E9ECEFF261
:200F0000F5F8FBFEE51426364553606C77828B949CA3AAB1B7BCC1C6CACED2D5D9DCDEE1D3
:200F2000E3E5E7E9EBECEEEFF0F2F3F4F5F5F6F7F8F8F9F9FAFAFBFBFBFCFCFCFDFDFDFD16
:200F4000FDFEFEFEFEEBD9C9BAAC9F93887D746B635C554E48433E3935312D2A2623211EEA
:200F60001C1A1816141311100F0D0C0B0A0A0908070706060505040404030303020202022C
:200F8000020101010114FEE6BD8B582D0F0102112946637C8E989994897B6E625B58595E84
:200FA000666F7981878B8C8B8986838180808183878A8E919496979898989999999A9C9DCB
:200FC0009FA1A3A5A7A8AAABACADAEAFB0B1B3B4B6B7B9BABCBDBEC0C1C2C3C5C6C7C8CA66
:200FE000CBCDCECFD1D2D3D5D6D7D9DADBDDDEDFE1E2E3E5E6E7E9EAEBEDEEEFF1F2F3F5F1
:20100000F6F7F9FAFBFDFE43557398BDDDF3FEFEF4E4D0BDACA09A9A9FA8B2BDC6CCCFCF03
:20102000CDC8C2BDB8B5B3B3B4B7BABDBFC1C2C2C1C0BEBDBBBABABABABBBCBDBEBEBEBE18
:20104000BEBEBDBDBCBCBCBCAA8C6742220C01010B1B2F42535F656560574D423933303076
:2010600032373D42474A4C4C4B484542403E3D3D3E3F414244454545454443424141414128
:2010800041414242434343433078666520666C7400617270656767696F0062706D20636EE7
:2010A0007472006363206B6E6F620063686F72646D656D00636C6F636B00646976696465EA
:2010C000720063686E66696C74720063686E6D657267720075736572207072670064697386
:2010E0007061746368006472756D73006561722067616D65006D6F6E69746F720072616E7A
:20110000646F6D697A00636F6E74726C6C720073706C69747465720064656C6179007363E0
:20112000616C650073657175656E6372006363206C666F006E6F74656E756B650073797328
:201140007864756D70002172657365742100736E644F666600727374437472006E6F744F7A
:201160006666006F6D6E4F6666006F6D6E694F6E006D6F6E6F4F6E00706F6C794F6E007364
:201180007973782E2E002E737973782E002E2E737973780073746172740073746F700063D2
:2011A0006F6E742E0072657365740063686E00616C6C00666C74006F6666006F6E006E6FE0
:2011C000007965730072756E0062706D0067727600616D74007461700073776700736866C2
:2011E00000707368006C61670068756D006D6E6B0076616C006E756D007479700063632307
:20120000006E7270006D696E006D6178006C766C0072737400736F7272792E2E2E007065AF
:20122000726665637421006E6F742062616421006D6F640070746E0065756300696E7400A6
:2012400065787400636C6B00707431007074320070743300707434006363310063633200BA
:20126000636333006363340063633500636336006363370063633800696E70006F757400EA
:2012800073706C006C6F7700757070006E6F740076656C0023633100236332006379630012
:2012A000706F6C00726E640073746B006469720075700064776E00752664006F6374006437
:2012C00075720064697600342F3100332F3100322F3100332F3200312F3100332F3400323E
:2012E0002F3300312F3200332F3800312F3300312F3400312F3600312F38002F3132002F4A
:201300003136002F3234002F3332002F3438002F393600726570007472730064706C006FB5
:2013200066665F006D697200616C740074726B00726F6F0073636C00766F690068726D0081
:2013400063687200696F6E00646F7200706872006C7964006D69780061656F006C6F630071
:20136000626D6A00626D6E00706D6A00706D6E00626872007368720072757000746F64003E
:20138000726167006B6161006D6567006D6C6B0064706B00666C6B006A61700067616D007D
:2013A00077686C004300432300440044230045004600462300470047230041004123004202
:2013C000004462004562004762004162004262006B65790000737470000100020003000426
:2013E00000616D3100616D3200616D3300616D340063653100636532006365330063653401
:2014000000776631007766320077663300776634007274310072743200727433007274342C
:2014200000737931007379320073793300737934007472690073717200726D700073696EF4
:2014400000736932007369330073693500676731006767320062743100627432007370313C
:2014600000737032006C7031006C7032007273310072733200732668007265730066726587
:20148000006368640070726700F00021020003204343232044442320452046462320474748
:2014A00023204141232042002D30313233343536373800991F000000000000000000000029
:2014C00000000000000000000000000000000000000000000000000000000000000000000C
:2014E000000000000000008E1F00000000000000000000000000000000000000000000013E
:201500000800510507150001A01F0000000000000000000000000000000000000000000091
:2015200000000000000000000000000000000000000000000000000000000000512000003A
:2015400000000000AA1FF71F0000C51F000000000000000001F00352050000006D221D22AF
:201560001122000000003821000000000000000000000000000000000000000000000000DF
:2015800000000622892054204C2100000000000000005622F8210000000000000000000008
:2015A00000001021000000000AD0005505B0150100780000000001000C0E0A24000000003F
:2015C00000000000000000000000000000000000000000000000000000000000000000000B
:2015E000D9220F2349232C23000066230000F324000000000000F2238323000087240000FD
:2016000000000000000000000000000000028425000000000000000000000000000000001F
:201620000000000000000000000000000000000000000000000000000000000000000000AA
:2016400000000000812500000000000000000000000000001425F62400000618007205629A
:2016600016033F000007007F712625260626E7250000000000000000000000000000000072
:201680000000000000000000000000000000000000000000000000000000000000006626BE
:2016A0000000000000005B260000000000000000000000000C90007805BC160400043C3F3B
:2016C00043463030303030308A2600000000000000000000000000000000000000000000B1
:2016E00000000000000000000000000000000000000000000000000000000000782600004C
:20170000000000000000000000000000000000000000000001400284051C1706018027001C
:201720000000000000000000000000000000000000000000000000000000000000000000A9
:201740000000000000C826C526D726000000000000DE260000DA2600009A261027000000B8
:20176000000000EF2691260000041000860571170500780000E527000000000000000000ED
:20178000000000000000000000000000000000000000000000000000000000000000000049
:2017A0000000000000000000000000AB270000000000000000000000000000000000000057
:2017C0000003C0008F05C91708000300082800000000000000000000000000000000000097
:2017E0000000000000000000000000000000000000000000000000000000000000000000E9
:20180000000005280000000000000000F82700000000000000000000095000920520180F45
:2018200000070A4A474950485B2B29C928BE2800000000000000000000000000000000009F
:201840000000000000000000000000000000001D2925281E282C2800000000000000002833
:201860002913290000000000000000000000003328000000000A00019C058D18111F3C5794
:2018800070869BAEBFCEDBE6EFF6FBFDFF007800000008040A0000B12A172A042AFB2900E3
:2018A000000000000000000000000000000000000000000000000000000000000000000028
:2018C000000000000000000000000000007E2A000000000000000000000000000000000060
:2018E00000000004B000A705EB180A00000003E72C2F2C272C0000000000000000000000B7
:201900000000000000000000000000000000000000000000000E2CD72AD02A182B0000004F
:201920000000000000D92C192C000000000000000000000000E82A000000000A4000AD054F
:201940004F190B00010203040506080A0C0E1000007800000924282A38F72E792E000000C8
:20196000000000000000000000000000000000000000000000000000000000000000000067
:20198000000000000000000000000000000000E52E0000B02E7E2DF02D0000822D000000DF
:2019A0000000000000072000D805491A0C00010102020203040506070809FAFAC33030303B
:2019C00030303030303030303030303C3C303030303C3C3C3C3030303C3C3C242424303CB3
:2019E0004824303C480000000005050505070707070C0C0C0C000003030304040405050543
:201A00000707070C0C0000030304040505070709090A0A0C0C000203040507090A0B0C00F6
:201A2000030405070B000102030405060708090A0B0C07050401010101010101FF0101FF23
:201A4000FF0101FFFF0101FFFF00020000000000472F00000000000000000000000000000F
:201A6000000000000000000000000000000000000000000000000000000000000000000066
:201A8000000000000000322F0000000000000000000000000000000000000000102002EFC4
:201AA00005A41A07010000000000000000000000000000003B3100000000000000000000EF
:201AC000000000000000000000000000000000000000000000000000000000000000000006
:201AE00000000000000000000000D02F00000000000000000000000000002A31000000008C
:201B00000144023F06081B0900B23247323F3200000000000000000000000000000000003F
:201B2000000000000000000000000000000000E631153249312A320000000000000000AFC2
:201B40003231320000000000000000000000006632000000001F000240065D1B14000078ED
:201B600000001000073F3F0002000A003F0004004A003F00020047003F0004000435E2341D
:201B8000C3349E341534F033CD33A8339A349634853392348E348A34863482347D347834D2
:201BA000733472336E346934643468335F3436337C330000000000000000623300004C33A8
:201BC00054330000000000000100007106D01B0D0035368E3585357C350000000000000075
:201BE0000000000000000000000000000000000000000000000000000000000000000000E5
:201C0000000000000000002A360000000000000000000000000000000000000000088800D4
:201C20007306251C0E007F0C200000070A1F38EA37D737CF37000000000000000000000094
:201C4000000000000000000000000000000000000000000000000000000000000000000084
:201C60000000000D3800000000000000000000000000000000000000000610017B06811CEA
:201C80001200000100F400063A7139763800000000000000000000000000000000000000A5
:201CA000000000000000000000000000000A39383948386A390000000000000000F8393FDD
:201CC00039000000000000000000000000D13900004F388D20018506DB1C1300007800007F
:201CE0000C004A0101010108300C0F7F300C007F3C0C0F703C0C0070300C0F60300C006037
:201D00003C0C0F503C0C0050300C0F40300C00403C0C0F303C0C0030300C0F20300C0020B7
:201D20003C0C0F103C0C0010300C0F00300C00003C0C0F103C0C0010300C0F20300C0020D7
:201D40003C0C0F303C0C0030300C0F40300C00403C0C0F503C0C0050300C0F60300C0060F7
:201D60003C0C0F703C0C0070FC3A00000000000000000000000000000000000000000000AE
:201D8000000000000000000000000000000000000000000000000000000000000000BB3A4E
:201DA00000000000000000000000000000000000000000000480001707BC1D100030000167
:201DC000AA0F26102311F2117B1212167E16FE197F1F11241FBECFEFD8E0DEBFCDBF11E03D
:201DE000A0E0B1E0E2EAF8E702C005900D92A033B107D9F718E0A0E3B1E001C01D92A33B7C
:201E0000B107E1F71DE1C2EDDDE104C02297FE010E94EA3BC03CD107C9F70E94F2120C94AA
:201E20004F3C0C9400000F931F93CF93DF938C01EB0160E070E0AE010E94063C009719F013
:201E4000EC01C01BD10BCE01DF91CF911F910F9108951F93CF93DF93EC01162F70E00E94A8
:201E6000130F982F06C0FE01E90FF11D80E280839F5F9117C0F3DF91CF911F910895EF9252
:201E8000FF920F931F93CF93DF93EC01F62EE42E062F10E0B8010E94130F282F8F15D1F008
:201EA000DE01A00FB11F1297E82FF0E03197EC0FFD1F90E00DC0921728F4808111968C938C
:201EC000119703C01196EC9211979F5F119731979F1588F3CDB7DEB7E6E00C94D93B40E278
:201EE0000E943F0F08958FB7F894209130013091310140913201509133018FBFB901CA01C2
:201F000008951F920F920FB60F9211242F933F934F935F936F937F938F939F93AF93BF93D3
:201F2000EF93FF93E0913501F0913601309709F00995FF91EF91BF91AF919F918F917F91D0
:201F40006F915F914F913F912F910F900FBE0F901F9018950895982F2B9A8091C00085FF3C
:201F6000FCCF9093C6000895382F20911B0719C080918B0190918C01891B8F77C9F380913B
:201F80008C01E82FF0E0E45EF84FE0818F5F8F7780938C018091C00085FFFCCFE093C600F6
:201FA00022E280918C0190918B018150891B8F778317F0F220931B07089586E10895282F0E
:201FC00080918C0190918B018150891B8F77C1F380918B01E82FF0E0E45EF84F20838F5FE9
:201FE0008F7780938B0108950F931F93CF93DF93182FEB01042F842F0E94B40F812F0E94A7
:20200000DF0F002341F088810E94DF0F013019F089810E94DF0FDF91CF911F910F91089554
:20202000FF920F931F93182F062FF42E83E00E94B40F812F0E94DF0F802F0E94DF0F8F2D1A
:202040000E94DF0F1F910F91FF90089508951F93CF93DF93182FE091840325C0CE2FD0E080
:20206000FE01EE0FFF1FEE0FFF1FEC0FFD1FEE53FE4F82818823C9F460816E3F51F041818A
:20208000442319F4812F806802C0812F80690E941010FE01EE0FFF1FEE0FFF1FEC0FFD1FCB
:2020A000EE53FE4FE381EE23C9F60E942411DF91CF911F9108951F93182F03C0812F0E945C
:2020C00027108091C1018823C9F71F9108950E94821108950E944A3C0895E82FF0E0EE0FC3
:2020E000FF1FED5FFE4F6081718187E391E044E550E00E94EE3B089590E020918401309153
:202100008501E0918601F0918701E80FF91F820F931F60810E943C3C0895609184017091D7
:20212000850140918301809186019091870150E00E941A3C08950E948D10E0917301F09119
:202140007401309711F080E00995E0913701F0913801309709F0099508956091840170916F
:20216000850140918301809186019091870150E00E94323C08956091880170918901409190
:202180008301809186019091870150E00E94EE3B0E94AD100895A0E0B0E0E1EDF0E10C9434
:2021A000B53BD62EE42E282F30E040E050E0220F331F441F551F61EE75EF85E090E00E94DE
:2021C000963B390182E0D80ECD2CDD24CC0CDD1CE9E5F7E0CE0EDF1EB301882777FD809577
:2021E000982FFF2400E010E0A80197010E94153B4B015C01C0E0D0E0F601259134912C0F4C
:202200003D1FF90165917491882777FD8095982F8E010D561E4FA50194010E94153BBC0125
:20222000992777FD9095892FC301860F971FF801918380832296C032D105F1F6CDB7DEB7EE
:20224000EEE00C94D13B08953091C1012091840304C08FEF80832381392F822F90E0FC013D
:20226000EE0FFF1FEE0FFF1FE80FF91FEE53FE4F8281882329F03093C1012093840318C02D
:20228000932F9150222329F73093C101109284030895822F90E0FC01EE0FFF1FEE0FFF1F97
:2022A000E80FF91FEE53FE4F8281815082832381222379F70895482FE091840390E01EC0F5
:2022C0002E2F30E0F901EE0FFF1FEE0FFF1FE20FF31FEE53FE4F8081841731F48181861770
:2022E00019F48EEF80839F5FF901EE0FFF1FEE0FFF1FE20FF31FEE53FE4FE381EE2301F725
:20230000892F0895982FE7ECF1E071E080818F3F29F07F5F35967A35C9F708958091C1013C
:202320008F5F8093C101A72FB0E0FD01EE0FFF1FEE0FFF1FEA0FFB1FEE53FE4F90836183A8
:202340004283248350918403552371F0852F90E0FC01EE0FFF1FEE0FFF1FE80FF91FEE5329
:20236000FE4F8281481768F4FD01EE0FFF1FEE0FFF1FEA0FFB1FEE53FE4F5383709384031D
:202380000895252F30E0F901EE0FFF1FEE0FFF1FE20FF31FEE53FE4F5381552371F0852F1A
:2023A00090E0FC01EE0FFF1FEE0FFF1FE80FF91FEE53FE4F8281481720F7FD01EE0FFF1F4B
:2023C000EE0FFF1FEA0FFB1FEE53FE4F5383F901EE0FFF1FEE0FFF1FE20FF31FEE53FE4FAA
:2023E00073830895089582EC91E06FEF70E042EC51E00E94133C109284031092C1010895A6
:202400001F920F920FB60F9211242F933F938F939F93AF93BF93EF93FF9380918D0190917F
:202420008E01A0918F01B09190010196A11DB11D80938D0190938E01A0938F01B09390016D
:2024400020919101309192012F5F3F4F30939201209391018091B301882381F18091B60184
:202460009091B7012817390749F510929201109291018091B4018F5F8093B401863011F02A
:2024800021E01DC01092B4018091B5018F5F8093B501803111F023E003C01092B50127E0B2
:2024A000E091B501F0E0EE0FFF1FED56FE4F808191819093B7018093B60101C020E0922F40
:2024C00020FF05C080918B038F5F80938B0391FF05C080918C038F5F80938C03FF91EF9155
:2024E000BF91AF919F918F913F912F910F900FBE0F901F901895109285031092890310920B
:202500008A0308951F9378941092C100239A259A0E9413160E94F31180E00E946D100E9462
:202520009B10E0917F01F0918001309721F080E00995182F05C0E0918601F0918701108189
:202540000E94DD0F181780F0E0917D01F0917E01309721F080E060E0099505C0E09186018C
:20256000F0918701108210E0812F0E946D100E94551A8091B100887F81608093B100809171
:20258000B00083608093B0008091700081608093700080918100887F8260809381008091E0
:2025A00080008C7F81608093800080916F00816080936F000E949B108091C0008D7F8093FC
:2025C000C0001092C50087E28093C4008091C10088608093C1008091C10080618093C1007F
:2025E0001F91089584B714BE80916000886180936000109260000E9482120E94CE1BFDCF25
:20260000E0915B01F0915C01309709F0099587EF0E94C6170895A1E0B0E0E1E1F3E10C94D8
:20262000BD3B7C01962F162F107F062F0F70103F09F41BC1E0916901F0916A01309709F425
:2026400014C1802F698309959981882309F00DC1D70114964C91E0916D01F0916E013097EB
:2026600009F40EC10894E11CF11C892FB70120E0099506C1B7016F5F7F4F892F21E0099568
:20268000103B09F442C0113B40F41039F1F0103AA1F1103809F0F4C010C0103D09F489C012
:2026A000113D20F4103C09F0EBC07BC0103E09F48CC0103F09F0E4C0A0C0F701618142810D
:2026C000E0913B01F0913C0167C0D70112964C91129711966C91442329F0E0913901F09112
:2026E0003A015AC0E0913B01F0913C01309709F4C7C0802F40E00995C3C0F7016181428142
:20270000E0913D01F0913E0147C0D70111966C91862F90E0FC01E857F040E830F105B0F583
:20272000EC5CFF4F0C94E83BE0914701F091480127C0E0914901F0914A0122C0F701628192
:20274000E0914B01F0914C013AC0E0914D01F0914E0116C0E0914F01F091500111C0E091BA
:202760005101F09152010CC0D70112966C91E0915301F091540123C0E0915501F0915601CD
:20278000309709F47DC0802F09957AC0F7014281E0914101F0914201309709F471C0802FDB
:2027A000AACFD70111966C91E0914301F091440106C0F7016181E0913F01F09140013097CF
:2027C00009F45EC0802F09955BC0D70112966C91129711964C91E0914501F0914601309786
:2027E00009F44EC070E07695762F662777956795640F711D802F099543C0E02FF0E0E45CC9
:20280000FF4F0C94E83BF7011181E0915901F0915A01309711F0812F0995812F0E94C61731
:202820002FC00E9400132CC0E0915D01F0915E0118C0E0915F01F091600113C0E091610128
:20284000F09162010EC0E0916301F091640109C0E0916501F091660104C0E0916701F09165
:202860006801309769F009950BC0D70114964C91E0916D01F0916E01309709F0FBCE00CFE0
:202880002196E6E00C94D93B1F93CF93DF93EC01162FE0916B01F0916C01309711F0862F07
:2028A0000995183F28F0CE01612F0E940B134BC017FF34C01C8281E08D83812F807F803A5F
:2028C000A1F0813A28F4803881F08039A1F40DC0803E59F0803F19F0803B69F406C0912FDF
:2028E0009F70892F8150823018F482E08D8303C0943008F01D828881803F11F40E94001370
:202900001883103F91F4E0915701F0915801309709F0099580EF0E94C61707C08C81FE0186
:20292000E80FF11D11838F5F8C839C818D81981750F0CE0168810E940B131C828881813F08
:2029400010F01D821882DF91CF911F91089578941F920F920FB60F9211242F933F934F93B2
:202960005F936F937F938F939F93AF93BF93EF93FF938091C00087FF07C02D9A6091C600B9
:2029800085E893E00E94441480918B0190918C01891B8F77D9F08091C00085FF17C02B9AAE
:2029A00080918C01E82FF0E0E45EF84F90818F5F8F7780938C019093C60008C080918B0314
:2029C000815080938B03309729F00995E0916F01F091700180918B03882381F708C0809199
:2029E0008C03815080938C03309729F00995E0917101F091720180918C03882381F78091AC
:202A00008D038F5F837080938D0380FD2EC00E94FC1D80918D0390E083709070892B29F5A6
:202A200090913401892F8A59809334018D37D8F09751909334018091300190913101019665
:202A400090933101809330018091300190913101892B49F480913201909133010196909304
:202A60003301809332012B982D98FF91EF91BF91AF919F918F917F916F915F914F913F91B4
:202A80002F910F900FBE0F901F901895382F4091C20320E012C0842F90E0DC01AA0FBB1FAD
:202AA000A80FB91FA157BC4F8C91831719F4222339F418C0242F12964C91442361F7089542
:202AC000822F90E0FC01EE0FFF1FE80FF91FE157FC4F12968C91828330918E03E3ECF3E06D
:202AE00090E019C012968C918093C203F5CF8191841781F4292F05C0ED53FC4F818180835D
:202B00002F5FE22FF0E0832F90E00197E817F9079CF303C09F5F931750F3842F90E0FC0130
:202B2000EE0FFF1FE80FF91FE157FC4F12828FEF80831182315030938E0308950F931F937A
:202B4000182F062F0E94461580918E038031C1F4E4E9F3E021E030E08081882349F4F90160
:202B6000EE0FFF1FE20FF31FE157FC4F808106C02F5F3F4F33962131310571F70E9446151B
:202B8000E2E9F3E091E080818F3F09F4592F9F5F33969131C1F7852F90E0FC01EE0FFF1F55
:202BA000E80FF91FE157FC4F8091C2038283108301835093C20340918E0320E030E022C095
:202BC000D901F901ED53FC4F808190E0FC01EE0FFF1FE80FF91FE157FC4F80812F5F3F4F5E
:202BE000181780F4942F08C0E92FF0E0ED53FC4F82913196808391506917B0F3AD53BC4F48
:202C00005C930AC0622F2417D8F2552329F0E42FF0E0ED53FC4F50834F5F40938E031F91D1
:202C20000F9108950895CF93DF9310928E03A2E9B3E080E3ED0119928A95E9F780E1E4EC69
:202C4000F3E0EF0119928A95E9F71092C203FD0133978FEF8083339683E0E23CF807C9F74E
:202C6000DF91CF910895282F6CE0822F0E94343B0895482FE82FF0E0262F332727FD3095EF
:202C800067FF08C088279927821B930BE817F9074CF007C08FE790E0821B930BE817F9073A
:202CA0000CF4460F842F08950F931F93062F142F6C3008F00C50801B87FD845F0E943316C6
:202CC000175FE12FF0E0EE0FFF1FE75AF84F65917491292F30E0220F331F620F731FFB0116
:202CE000459154912CE0382F329FC0011124840F800F87FD8C501F910F91089584ED93E08C
:202D00006FEF70E040E450E00E94133C0895109239041092380482E080933C0480913E045E
:202D20008230B1F0833018F48130B9F405C0813141F0833791F40CC080913F0490E0029614
:202D400002C082E090E090933B0480933A04089510923B0410923A04089583E080933C047B
:202D60000895A0E0B0E0E7EBF6E10C94BC3BC62FD0E0209721F4C0E0D4E0C81BD90B7C015D
:202D800073C0CE01C132D10510F080E290E0D82EE9E8F4E194918091C00085FFFCCF909382
:202DA000C600319684E1EF38F807A1F78091C00085FFFCCF81E08093C6008091C00085FFB4
:202DC000FCCFD092C600E0921404F09215040D2D10E086E194E0B701A8010E941A3C30E06D
:202DE00040E015C0EC5EFB4F2081922F92959F708091C00085FFFCCF9093C6008091C000D8
:202E000085FFFCCF320F2F702093C6004F5FE42FF0E08D2D90E001968E179F071CF7932F98
:202E200092959F708091C00085FFFCCF9093C6008091C00085FFFCCF3F703093C6008091EA
:202E4000C00085FFFCCF87EF8093C600C01BD10BE00EF11E209741F08CED95E0E4EFF1E0E6
:202E60003197F1F70197D1F7209709F08ACFCDB7DEB7E7E00C94D83BCF92DF92EF92FF92C2
:202E80001F9384E492E00E942A3C182FE82EFF2496E0EE0CFF1C9A95E1F780E892E0E80EBC
:202EA000F91E84E1C82E84E0D82EC60160E873E040E250E00E941A3CC601B70140E250E0B9
:202EC0000E94323CC60160EA73E040E250E00E941A3C80E290E0E80EF91EC601B70140E2B4
:202EE00050E00E94323C80E0612F0E942A311F91FF90EF90DF90CF90089560911404709172
:202F0000150480913E048230A9F0833020F4813009F03BC005C0813199F18337B1F52DC040
:202F200040913F0486E194E050E00E94323C0E948D10089580E00E946D100E949B106091C9
:202F40003F04E0917D01F0917E01309719F080E0099505C0E0918601F091870160830E9426
:202F6000AD102CE088E190E00FB6F894A895809360000FBE20936000FFCF0E943C1708956E
:202F8000CB0160913F040E94B1160895482F803F41F410923D04109239041092380410927E
:202FA0003C0480913C04813019F1813030F0823091F1833009F077C063C08091380490914C
:202FC0003904FC01E757FB4EE491E41709F054C001969093390480933804069708F463C0B1
:202FE00081E080933C04109239041092380408958091380490913904FC01E25CFB4F4083D0
:2030000001969093390480933804029709F04BC00E94871608952091380430913904B9014C
:2030200076956795FB01EC5EFB4F20FF11C04F708081482B408380913A0490913B046817E5
:20304000790750F480913D04840F80933D0404C0842F8295807F80832F5F3F4F30933904C7
:203060002093380480913A0490913B040196880F991F28173907B8F083E080933C04089552
:20308000473F71F4E0913A04F0913B04EC5EFB4F90913D048081981719F40E947D17089550
:2030A00085E080933C0408950F931F93CF93DF9390910005E92FF0E0A0E4B4E0EE0FFF1F52
:2030C000EE0FFF1F8D010E0F1F1FE80188836983AE0FBF1F12964C932B839F5F9093000516
:2030E000809101058F5F80930105DF91CF911F910F910895EF92FF920F93CF93DF9390914C
:203100000005E92FF0E0A0E4B4E0EE0FFF1FEE0FFF1F7D01EE0EFF1EE70188836983AE0F41
:20312000BF1F12964C932B839F5F9093000580910105800F80930105809103058F5F80937D
:203140000305DF91CF910F91FF90EF90089590910205309100052091030580E002C0921BD6
:203160008F5F9317E0F70895FC016F3F11F460E205C0693010F46F5C01C06850608308952B
:20318000FC01862F82958F708A3010F4805D01C0895A80836F706A3010F4605D01C0695A67
:2031A000618308959C01462F862F6CE00E94343B990F6FE874E1FB01E90FF11DE491D901C5
:2031C000ED939F5F690F711DFB018491F9018183842F6CE00E94343BE8EAF4E1E80FF11DA0
:2031E000E4911196EC93089538E020E0239FD0011124A35AB74FE8EBF1E002C08D93319667
:203200008081882321F091E0E03CF907B9F708951F93CF93DF939C01162FEA016623C1F189
:20322000009729F4FA0180E3819361502FC097FF06C08DE289931150309521953F4F40E057
:20324000E42FF0E0E25BF74FC9016AE070E00E94613B80834F5FC9016AE070E00E94613B13
:203260009B016115710561F7642FDE0108C04150E42FF0E0E25BF74F8081805D8D934423D8
:20328000B1F7FE01E60FF11D161B612F61111082DF91CF911F9108951F93382F162F6623BB
:2032A00061F1882329F4FA0180E38193615023C020E0E22FF0E0E95BF74F832F6AE00E94E5
:2032C000343B90832F5F832F0E94343B382F882381F7622FDA0108C02150E22FF0E0E95BC7
:2032E000F74F8081805D8D932223B1F7FA01E60FF11D161B612F611110821F9108951F93DB
:20330000CF93DF93282F162FDA01662399F1882329F4FA0180E3819361502AC087FF04C030
:203320008DE28D931150219530E0E32FF0E0E251F84F822F6AE00E94403B90833F5F822F01
:203340006AE00E94403B282F882379F7632FED0108C03150E32FF0E0E251F84F8081805D91
:2033600089933323B1F7FD01E60FF11D161B612F61111082DF91CF911F910895982F84FD08
:203380005A9A8BB19295907F8F70892B8BB95B9A88E893E10197F1F75B985A9888E99AE3A4
:2033A0000197F1F708951F93182F82958F700E94BE19812F8F700E94BE191F910895282F9C
:2033C00080911205909113058150891B8F73823010F480E0089590911305E92FF0E0E35509
:2033E000F84F822F82958F70806180832F70206121839E5F9F739093130508951F9380916D
:20340000F3072091F4073091F5074091F6076091F707E091F807A091F9071091FA07B82F62
:20342000BF5F91E0B81708F090E0F92FF20F81E0F21708F080E0782F730F81E0731708F0CF
:2034400080E0582F540F81E0541708F080E0382F360F81E0361708F080E0282F2E0F81E057
:203460002E1708F080E0982F9A0F81E09A1708F080E0810FB093F307F093F4077093F5078B
:203480005093F6073093F7072093F8079093F9078093FA071F91089588EB91E060E270E0DF
:2034A00048E050E00E94133C08950F931F9322982A9A8FEF80939C072198299A8093420847
:2034C0002098289A8093400880917A00876080937A0080917A00806880937A008091000106
:2034E000807C8062809300011092660880937C0080917A00806480937A001092A70880E48A
:20350000EDEFF7E0DF011D928A95E9F780E1EDE9F7E0DF011D928A95E9F7529A539A8AB1BA
:20352000806F8AB95A985B9888EE93E0E4EFF1E03197F1F70197D1F783E00E94BE1900E11A
:2035400017E2C8010197F1F783E00E94BE19C8010197F1F783E00E94BE19C8010197F1F7DF
:2035600082E00E94BE1980E20E94D3198CE00E94D31986E00E94D31981E00E94D31982E041
:203580000E94D3191092FC078DE598E060E270E048E050E00E94133C85E598E06FE370E0AF
:2035A00048E050E00E94133C1092FB0710924C0810924D088FEF80933E088093410810925C
:2035C0003F0810920D051092000510920105109203051092020510920C0510920F05109243
:2035E0000E051F910F9108959B01E82FF0E0EE0FFF1FE755FF4F65917491C90150E00E940C
:20360000F73B089568EB71E048E00E94F41A88EB91E068E00E946F0F38E020E0239FD00168
:203620001124A35AB74FE8EBF1E002C08D9331968081882321F091E0E03CF907B9F708956E
:20364000DF92EF92FF920F931F93E82EF62E142FD22E88EB91E060E270E048E050E00E94A6
:20366000133C85E0E816B1F483E68093B80188E68093B9019FEFF91611F480E208C088E04F
:203680008F1518F08F2D8F5C02C08F2D88508093BA0106C08E2D68EB71E043E00E94F41ABB
:2036A00088EB91E063E00E946F0F8091BA018032C4F48091B9018032A1F48F2D90E00196B8
:2036C00062E048EB51E00E94081988EB91E062E00E946F0F8091B801803219F480E380933C
:2036E000B801123041F1133028F4112341F0113041F518C0133019F0143019F50CC08D2D66
:2037000063E04CEB51E00E944C19DD2009F51330F9F487E218C08D2D63E04CEB51E00E9484
:203720007F1916C08D2D90E0019663E04CEB51E00E9408190DC08CEB91E06D2D0E94D21811
:2037400007C08D2D810F6CEB71E043E00E94F41A8CEB91E063E00E946F0F002331F08BE5DE
:203760008093BB018DE58093BF0138E020E0239FD0011124A35AB74FE8EBF1E002C08D93CC
:2037800031968081882321F091E0E03CF907B9F71F910F91FF90EF90DF900895FF920F93CB
:2037A0001F93CF93DF9300E0FCC000910205909100058091030501C0081B091720F0992340
:2037C00011F08823C9F780911005E82FF0E0EE0FFF1FE959F74F208111818F5F8F71809399
:2037E0001005822F82958F70813009F0AFC0E0917301F0917401309729F0812F0995882320
:2038000009F0CEC080910C05882309F47CC0C02FD0E0FE01EE0FFF1FEE0FFF1FE05CFB4FC1
:20382000818190910205843081F5E0917F01F0918001309719F0892F099507C0E09186015C
:20384000F0918701E90FF11D8081282F332727FD3095812F992787FD9095280F391FCC0F3B
:20386000DD1FCC0FDD1FFE01EE5BFB4F8081682F772767FD7095C05CDB4FEB812617370717
:2038800084F1FF27E7FDF09527C0E0917F01F0918001309719F0892F099507C0E091860165
:2038A000F0918701E90FF11D8081212F332727FD3095280F311DCC0FDD1FCC0FDD1FFE0133
:2038C000EE5BFB4F8081682F70E0C05CDB4FEB812617370734F0F0E0B901E217F3070CF49F
:2038E000BF0180910205E0917D01F0917E01309711F0099555C0E0918601F0918701E80F8E
:20390000F11D60834DC00091020590910205910F909302059F3F19F41092020507C08091B3
:203920000105981718F081508093020580910205E0918101F0918201309791F10995813038
:2039400079F1823011F7009302052AC08230E1F41130B1F4E0917501F0917601309719F0A3
:2039600009958823E9F480910C0591E0892780930C058823A9F4809102050E947C1010C05C
:2039800080E00E946D100CC0882351F4E0917701F0917801309721F0822F8F70612F099553
:2039A00001E08091110590911005891B8F7109F0FCCE0E94730F2091430830914408621BB8
:2039C000730B6333710590F00E94730F60934308709344088093450890934608E0917B016E
:2039E000F0917C01309721F0099502C00023D1F1E0917901F0917A01309719F009958823AC
:203A000089F5809102052091000590910305E82F00E002C0E91B0F5FE21720F0222311F0B7
:203A20009923C1F7F0E0EE0FFF1FEE0FFF1FE05CFB4F1081F180E0917F01F09180013097CA
:203A400019F00995282F07C0E0918601F0918701E80FF11D2081812F602F4F2D00910C059D
:203A60000E94201B80911205909113058150891B8F73843008F494C090914B088091ED0714
:203A8000981738F480913F088F5F80933F0810921B0780914B088093ED079091FB07809148
:203AA0004108981739F480913F0881FF03C000912F0117C020911B07222371F0992311F078
:203AC000973051F4E92FF0E0E35AF74F8081803219F4022F015005C0E92FF0E0E35AF74FFD
:203AE0000081292F30E0F901EB5AF74F80810817F1F180913E0890E001962817390721F464
:203B000080914D08882339F520914C0830914D0880911205909113058150891B8F738230C1
:203B2000D0F02295220F220F207C3068232B30911305E32FF0E0E355F84F822F90E0B4E03B
:203B400095958795BA95E1F780832F7021833E5F3F7330931305802F0E94DF198091FB072C
:203B6000E82FF0E0EB5AF74F008380933E0890914D089F5F90934D088091FB078F5F8093F7
:203B8000FB07983069F410924D0880914C088F5F80934C08813021F410924C081092FB07ED
:203BA000CDB7DEB7E5E00C94DA3BFF920F931F93082F162FF42E0E94730F6093430870938A
:203BC00044088093450890934608002F0295007F1F70012B80911105E82FF0E0EE0FFF1F9F
:203BE000E959F74F0083F1828F5F8F71809311051F910F91FF900895CF93DF9383B190E03C
:203C00009695879596958795817020919C07220F282B20939C0783B190E09695879581701B
:203C200090914208990F982B90934208203829F4892F807F11F441E007C0903821F4207FAC
:203C400011F44FEF01C040E093B1917080914008880F892B80934008442321F081E060E0E3
:203C60000E94D51D189906C0A0C082E060E04FEF0E94D51D809140088F3781F480910E05AD
:203C800090910F05815A9F4028F482E060E041E00E94D51D10920F0510920E0580910D0534
:203CA000882309F454C05091A70840916608A42FB0E0FD01EE0FFF1FE356F84F208131812A
:203CC000CD0163E0880F991F6A95E1F7850FC82FD0E0FE01E350F84FE08180917A0086FD8A
:203CE000FCCF71C010926608852F8F5F8093A708883011F41092A70860916608862F87703B
:203D000090910001892B80937C0080917A00806480937A00662311F467E001C06150862F46
:203D200090E0FC01EE0FFF1FE356F84F40815181A4E056954795AA95E1F7FC01EC5FFA4FF5
:203D40008081841721F0408380E00E94D51D80914B088F5F80934B088091FC07882329F06F
:203D60005B985A981092FC0745C08091130590911205891B8F7309F43DC081E08093FC073C
:203D800080911205E82FF0E0E355F84FE0818F5F8F7380931205E4FD5A9A8BB1E295E07F33
:203DA0008F70E82BEBB95B9A25C080910E0590910F05019690930F0580930E05815A9F406C
:203DC00008F458CF52CF80917900C350D84F8883AA0FBB1FA356B84F280F311D2E1B310935
:203DE0002D933C93842F8F5F80936608883009F083CF78CFDF91CF910895A0E5B5E093E1CD
:203E00002C91281741F0E92FFF27E7FDF095E35CFA4F20839150119725E0AC33B20781F705
:203E200011968C9308951F93382F20913C05E4E1F5E01FEF90E006C08081831709F4192F56
:203E40009F5F32969217C0F31F3F51F0E12FF0E0EE0FFF1FEC5EFA4F1182812F0E94FD1E13
:203E6000812F1F9108951F93382F20913C05222311F41FEF41C0A4E1B5E0E0E005C08C9125
:203E80001296831721F0EF5FE217C8F302C0EF3FB1F4ADE3B5E09FEF1C91121740F4E12F6B
:203EA000F0E0EE0FFF1FEC5EFA4F81818111192F119685E0A135B80719F0912FEDCF1E2F35
:203EC0001F3F71F4EDE3F5E08081821708F0812F319695E0E135F90711F0182FF5CF182F93
:203EE000E12FF0E0EE0FFF1FEC5EFA4F308381E08183812F0E94FD1E812F1F910895089515
:203F000088E2E4E1F5E0DF011D928A95E9F7EDE3F5E083E181938150E8F70895982F8E3F11
:203F200021F480915105882319F4892F0E94AB0F089588E269E240E021E00E94541808951B
:203F40008091520580935305882319F481E08093530508951F9310915305180F10935305A0
:203F6000112311F481E00CC00E94DD0F212F30E090E00296821793072CF40E94DD0F8E5F17
:203F80008093530581E01F9108951F930E944C1A109153050E94DD0F181740F0109153056F
:203FA0000E94DD0F1B5E181BE12F07C0809153050E946D1080918A01E82FF0E0EE0FFF1FCA
:203FC000E755FF4F6591749188EB91E048E050E00E94F73B80E00E946D1088EB91E068E0A1
:203FE0000E94290F0E94F41881E01F9108950F931F93109153050E94DD0F181789F400E024
:204000000DC0802F8068612F40E00E9410101F5F1038B9F70F5F003109F43FC010E0F1CF09
:204020000091530510E00E94DD0F90E001960817190731F480E090E060E00E94B11620C055
:204040000091530510E00E94DD0F90E002960817190791F411E006C0812F0E946D100E9405
:20406000BB101F5F0E94DD0F1817B0F380E00E946D101092520504C0809153058093520588
:204080000E94AD102CE088E190E00FB6F894A895809360000FBE2093600081E01F910F914A
:2040A00008950E94AB0F089580915505813011F480935405089580916405813029F4109256
:2040C000650510926605089580918E0381508093660580915B05815080936505089581E01E
:2040E0008093540581E090E0909363058093620580915F0581508093600580915A0581309F
:2041000011F081E001C08FEF809364050E945B20089580915505813011F40E946F200895D9
:204120001F9310918E0360915A056330D9F52091010130910201C90181709070909581957D
:204140009F4F8070947B36952795822793279093020180930101792F72957F7080915B053E
:20416000482F50E0682F6195292F2F70322F260F832F992787FD909584179507BCF73093B6
:204180006505612F6195472F542F460F252F332727FD3095812F90E028173907ACF7509325
:2041A00066053CC05091640540916605450F40936605242F332727FD3095812F90E028178B
:2041C00039071CF01092660506C047FF27C01150109366051F5F40916505450F40936505DA
:2041E000242F332727FD309580915B0590E02817390714F447FF12C0623071F451955093E9
:2042000064050E945B20123008F08BCF80915B05823008F086CF02C00E945B201F910895E8
:204220001F93182FE82FF0E0EB5AFA4F6083843040F48091560560915705409158050E94BC
:20424000CB10E0915D05F0E0E856FF4FE491E0935F05153059F480915A05813011F081E0F3
:2042600001C08FEF809364050E945B201F9108951F93142F90915905891761F4603451F4D7
:2042800080916705882321F0442311F40E941316109367051F91089580915505813031F411
:2042A00010925405809159050E945B1008950F931F93809160058F5F8093600580918E0318
:2042C000882311F010926105809161058F5F80936105803680F080E68093610580915505DC
:2042E000882349F4109254058CEF0E94AB0F809159050E945B10809159050E94271090911F
:20430000600580915F05981708F46FC01092600580915C05E82FF0E0EE0FFF1FE957FD4FE2
:2043200085919491209162053091630582239323892B11F490E001C09FEF80918E038823E1
:2043400009F441C0992309F43EC0E0916605F0E0ED53FC4F808190E0FC01EE0FFF1FE80FF1
:20436000F91FE157FC4F10810181809165052CE08202C0011124180F01C01C5017FDFDCF5A
:20438000812F60E00E945B11882339F0809159058068612F40E00E9410108091590580692A
:2043A000612F402F0E941010E0915E05F0E0E856FF4FE491E150812F60E04E2F20E00E9457
:2043C00067100E9490208091620590916305880F991F9093630580936205892B31F481E085
:2043E00090E090936305809362051F910F91089580915505882349F480915405882329F0DA
:2044000088EF0E94AB0F0E945721089580915505813031F480915405882311F00E945721A1
:20442000089590915905891739F480916705882319F4862F0E94461508950F931F93162F76
:20444000042F90915905891771F580915505882331F580916105803600F110928D01109278
:204460008E0110928F0110929001109292011092910181E08093B3011092B4011092B50108
:2044800080919301909194019093B7018093B6010E946F208AEF0E94AB0F10926105812F5E
:2044A000602F0E949E151F910F910895282FFB0190915905892F8068281771F0892F806978
:2044C000281751F0906B291719F48081803421F0822FBF010E94F40F089589E467E440E0C3
:2044E00021E00E9454188EE260E048E220EF0E9454188FE262E340E025E00E94541880E36A
:2045000060E040E02FE70E94541886E261E040E02FE00E94541885E666E640E023E00E94B5
:2045200054188AE660E041E024E00E94541885E461E040E025E10E9454188CE66FE640E067
:2045400020E10E9454188BE66FE640E020E10E9454188091560560915705409158050E94CE
:20456000CB1088E060915D050E94102110928D0110928E0110928F011092900110929201D7
:204580001092910181E08093B3011092B4011092B50180919301909194019093B7018093C7
:2045A000B60180E68093610510925405109267050895209168053091690540916A05509151
:2045C0006B05211531054105510561F410928D0110928E0110928F01109290011092920113
:2045E0001092910180918D0190918E01A0918F01B091900180936C0590936D05A0936E05E6
:20460000B0936F052F5F3F4F4F4F5F4F209368053093690540936A0550936B050895109256
:2046200068051092690510926A0510926B0510926C0510926D0510926E0510926F051092E6
:204640008D0110928E0110928F011092900110929201109291010895109268051092690511
:2046600010926A0510926B0510926C0510926D0510926E0510926F0510928D0110928E0164
:2046800010928F011092900110929201109291010895109268051092690510926A051092DD
:2046A0006B0510926C0510926D0510926E0510926F0510928D0110928E0110928F01109203
:2046C000900110929201109291010895109268051092690510926A0510926B0510926C05EE
:2046E00010926D0510926E0510926F0510928D0110928E0110928F01109290011092920180
:20470000109291010895109268051092690510926A0510926B0510926C0510926D051092BD
:204720006E0510926F0510928D0110928E0110928F0110929001109292011092910181E060
:204740000895A0E0B0E0E7EAF3E20C94B93B6B017C01A42EE901442309F43FC0611571057E
:204760008105910529F4F90180E38193415033C0BB240B2D10E00855174FC701B6012AE0B8
:2047800030E040E050E00E94743BF8016083B394C701B6012AE030E040E050E00E94743B0B
:2047A000C901DA016C017D01C114D104E104F10401F74B2DDE0108C0BA94EB2DF0E0E8555B
:2047C000F74F8081805D8D93BB20B1F7FE01E40FF11DA41A4A2D41111082CDB7DEB7EAE016
:2047E0000C94D53B882379F090917005980F90937005913818F01092700505C0933018F0A8
:2048000082E08093700581E0809371050E94F41881E008951092700581E0809371050E9475
:20482000F4180895AF92BF92CF92DF92EF92FF920F931F9380917005813011F082E601C0A4
:2048400082E48093B801A0906805B0906905C0906A05D0906B05A114B104C104D10429F02F
:204860000894A108B108C108D10860916C0570916D0580916E0590916F05660F771F881FF8
:20488000991F29E130E040E050E00E94743BC901DA017C018D01E114F1040105110529F4D2
:2048A00081E0E82EF12C012D112DC601B5012AE532E642E050E00E94153BA80197010E942D
:2048C000743BCA01B90146E02AEB31E00E94A1238AEB91E066E00E946F0F8091BE01803224
:2048E00019F480E38093BE01E9EBF1E08181819381E0EE3BF807D1F78EE280831F910F91A7
:20490000FF90EF90DF90CF90BF90AF90089590917005923008F04EC080917105882311F4FB
:20492000913021F50E9412240E94F418809170058823E1F4109268051092690510926A05E4
:2049400010926B0510926C0510926D0510926E0510926F0510928D0110928E0110928F0160
:20496000109290011092920110929101809170058823E1F480918D0190918E01A0918F0185
:20498000B091900181539547A040B04078F020E08091680590916905A0916A05B0916B05FF
:2049A000C197A105B10518F021E001C020E02093710517C084E78093B801609168057091E3
:2049C000690580916A0590916B0547E029EB31E00E94A12389EB91E067E00E946F0F0E94B8
:2049E000F41881E008950E94AB0F08958823B1F480917205482F50E080917605282F30E042
:204A000060917705421753073CF0862F90E09C01421753070CF49A01822F0895E82FF0E005
:204A2000EE58FA4F80810895A0917205E82FF0E0EE58FA4F6083709174057723A9F4809186
:204A4000760587FF03C08FE7809376058091770587FF03C08FE7809377058091750587FFA2
:204A600003C08FE78093750580917205482F50E080917605282F30E060917705421753072E
:204A80003CF0862F90E09C01421753070CF49A01922F209372052A1799F1409175058091C8
:204AA0007305772341F44F779F77806B642F492F0E9410100895441F4427441F806B63E619
:204AC0000E94101080917305409175054F77806B62E60E94101090917305906B40E08091C0
:204AE000720587FD41E0892F66E00E94101080917305409172054F77806B66E20E9410104E
:204B000008950E94F40F089588E360E040E02FE70E94541886E261E040E02FE00E945418E1
:204B20008AE36BE340E021E00E94541889E360E040E02FEF0E9454188DE360E040E02FEFA5
:204B40000E9454188EE360E040E02FEF0E9454180895DF92EF92FF920F931F93D82E062F9B
:204B6000F42EE22E80917905882311F010E025C0862F8D29642F422F0E94101022C06F2D44
:204B800070E080917A05681B7109E12FF0E0E658FA4F8081680F711D02C0645F7F4F77FD04
:204BA000FCCF02C06C50704060387105DCF7802F8D294E2D0E9410101F5F8091790518173D
:204BC000F0F21F910F91FF90EF90DF900895582F762FE42F20917805222331F030E090E036
:204BE00001962817390721F480910C05882339F0852F806A672F4E2F0E941010089580EA1A
:204C0000652F472F2E2F0E94A9250895582F762FE42F20917805222331F030E090E0019636
:204C20002817390721F480910C05882339F0852F8068672F4E2F0E941010089580E8652FE0
:204C4000472F2E2F0E94A9250895582F762FA42F20917805222331F030E090E0019628178B
:204C60003907D9F480910C058823F1F080917905E82FF0E0E658FA4F70838F5F809379050A
:204C80008A3059F4EBE7F5E08181819385E0E338F807D1F789E080937905852F8069672FDC
:204CA0004A2F0E941010089580E9652F472F2A2F0E94A925089580910C05882319F41092C7
:204CC000790502C00E94AD1080E00895982F907F903831F0903921F0903A11F00E94F40F2F
:204CE000089586E263E040E020E10E9454180895282F883F59F4809185058F5F809385050F
:204D000090918405891728F010928505822F0E94AB0F08958CE660E041E020E20E94541878
:204D20000895843009F481E0E82FF0E0EA57FA4F8081089510928A0580E008951F938091C4
:204D40008605882301F510928D0110928E0110928F0110929001109292011092910111E007
:204D60001093B3011092B4011092B50180919301909194019093B7018093B6018AEF0E9412
:204D8000AB0F109386051F9108950E949E2608950E949E26089580918605882339F01092C6
:204DA000B3018CEF0E94AB0F1092860508950E94CB26089588EF0E94AB0F0895282F873FE1
:204DC00019F090E0803F09F491E0822F807F803F11F4992319F0822F0E94AB0F08950F93A8
:204DE0001F93182F062F882341F4613019F40E949E2606C00E94CB2603C0843009F411E0E3
:204E0000E12FF0E0EA57FA4F00838091870560918805409189050E94CB101F910F910895C1
:204E2000EF92FF920F931F9380910205843011F080E061C020918D0130918E0140918F01CE
:204E40005091900110928D0110928E0110928F0110929001109292011092910160918A0531
:204E60006623C9F1203A86E8380781E0480780E0580788F5E0908B05F0908C0500918D05C8
:204E800010918E05E20EF31E041F151FE0928B05F0928C0500938D0510938E0570E080E066
:204EA00090E02CE836E847E450E00E94153BA80197010E94743B283231051CF428E230E0B7
:204EC00005C0213F310514F020EF30E081E0622F0E94EF260AC010928A0510928B051092DC
:204EE0008C0510928D0510928E0580918A058F5F80938A0581E01F910F91FF90EF9008952C
:204F00008DE269E240E021E00E9454188EE260E048E220EF0E9454188FE262E340E025E0D6
:204F20000E94541880E360E040E02FE70E94541881E360E048E220EF0E94541880918705F4
:204F400060918805409189050E94CB101092860510928A0508951F93142FB82FB07FB03F02
:204F600079F1F82FFF70E0918F05FE1710F4A0E00DC0A0E08F2F90E0409190052E2F30E045
:204F8000240F311D821793070CF4A1E04F2F50E0405F5F4F2E2F30E04217530714F490E049
:204FA00009C090E080919005280F311D421753070CF491E09A2B11F0F09191058F2F8B2B18
:204FC000412F0E94F40F1F91089586E561E040E02FE00E94541889E360E041E020E10E9416
:204FE000541887E561E040E02FE00E9454180895462F90919205E3E9F5E0E80FF11D892F33
:20500000806B60810E94101008950E94F40F08951F9381E080930D0586E261E040E02FE013
:205020000E9454181EE4812F60E040E02FE70E9454181F5F1635B9F71F91089580919C05B4
:20504000813011F480939B05089580919C05813011F480939B05089580919C05813011F42A
:2050600010929B0508950F931F93182F062FE82FF0E0E456FA4F6083843078F480919D0561
:2050800060919E0540919F050E94CB10112329F4002319F48AEF0E94AB0FE091A305F0E04B
:2050A000E358F74EE491E093A6051F910F910895DF92EF92FF920F931F93A82FD62EF42E1C
:2050C000442309F455C05091A205541B57FD50E0E091A105F0E0E856FF4FE4910E2F10E0C7
:2050E0006091A505762F770F40E00CC099277102C001700300249009810D901D1124080F53
:20510000191F4F5F242F30E0852F992787FD90952817390714F4662349F72091A6053D2D13
:20512000329FE12C11248A2F6091A4050E943916101611061CF001E010E006C00F3F1105D4
:2051400019F014F00FEF10E06D2DD11061E09E2DE61608F4962FFA94692F402F2F2D0E947D
:2051600067108091C101823518F082E280931B071F910F91FF90EF90DF9008959091A0055D
:20518000891731F4862F60E04091A2050E94582808959091A005891731F4862F642F40917A
:2051A000A2050E9458280895CF93DF93E091840333C0CE2FD0E0FE01EE0FFF1FEE0FFF1FE8
:2051C000EC0FFD1FEE53FE4F8281882339F560816E3FC1F041818091A005442311F4806843
:2051E00001C080690E941010FE01EE0FFF1FEE0FFF1FEC0FFD1FEE53FE4F808161814481C1
:205200000E945828FE01EE0FFF1FEE0FFF1FEC0FFD1FEE53FE4FE381EE2359F60E942411F7
:20522000DF91CF91089580919C05882329F488EF0E94AB0F0E94D428089580919C05813016
:2052400031F480919B05882311F00E94D42808950E94F40F089589E467E440E021E00E94D4
:2052600054188EE260E048E220EF0E9454188FE262E340E025E00E94541880E360E040E01F
:205280002FE70E94541886E261E040E02FE00E94541881E16FE640E02CE00E94541880E8AB
:2052A00060E040E020E20E9454188DE561E040E02FE00E94541881E864E048EE28E10E9400
:2052C000541882E864E041EC2FE30E94541880919D0560919E0540919F050E94CB1085E0C9
:2052E0006091A1050E94332810928D0110928E0110928F01109290011092920110929101EB
:2053000081E08093B3011092B4011092B50180919301909194019093B7018093B601109214
:205320009B050895CF93DF939C01EC01DC01E0E08C91861729F0EF5F1296E032C9F703C0D7
:20534000EF3F51F408C0E0E088818F3F29F0EF5F2296E032C9F7E0E0F0E0EE0FFF1FE20FEE
:20536000F31F60834183DF91CF910895EF92FF920F931F93CF93DF93082FE22EE4EDF3E0E2
:20538000C0E0D0E0F080F41651F4FE01EE0FFF1FEC52FC4F91819F3FB9F410E010C0219647
:2053A0003296C032D10571F721C08091A905810F8F70802B6F2D4E2D0E9410101F5F8091B3
:2053C000AA05181790F30AC08091A905980F9F70892F802B642F4E2D0E941010003831F49D
:2053E000CC0FDD1FCC52DC4F8FEF8883CDB7DEB7E6E00C94D93B982F362F242F80EA692FF0
:20540000432F0E94B6290895FF920F931F93182F062FF42E862F0E94131F80E8612F402F89
:205420002F2D0E94B6291F910F91FF900895FF920F931F93F82E162F042F8091A805823020
:2054400039F1833030F4882351F0813009F04CC017C08330D1F1843009F046C03AC080919F
:20546000AB058F5F8093AB059091AA05891710F01092AB0584ED93E0612F4091AB0532C022
:205480008091AA0580933C05862F0E94331F1BC02091010130910201C9018170907090951D
:2054A00081959F4F8070947B369527958227932790930201809301016091AA05892F90E0FC
:2054C00070E00E944D3B482F0AC084ED93E04FEF09C0440F2091AA05429F412D112484ED7E
:2054E00093E0612F0E94922980E96F2D412F202F0E94B6291F910F91FF900895FF920F9358
:205500001F93CF93DF93282FEB01F42E082F007F003F31F0982F9F708091A705981731F027
:20552000822FBE014F2D0E94F40F16C00038A1F0003991F0003A81F010E00AC08091A9055D
:20554000810F8F70802BBE014F2D0E94F40F1F5F8091AA05181790F3CDB7DEB7E5E00C94C3
:20556000DA3B10923C050E94801F86E561E040E02FE00E94541884E460E640E024E00E9495
:20558000541887E561E040E02FE00E94541889E360E041E020E10E9454181092AB050895EA
:2055A0008091AE05813011F48093AC0508958091AE05813061F48093AC051092D50581E0A5
:2055C00090E09093D7058093D6051092B7050895E82FF0E0E355FA4F6083853040F480912E
:2055E000AF056091B0054091B1050E94CB1008950F931F93CF93DF93C9EBD5E003EB15E03C
:205600008881882349F08091B2058068F801608140E00E941010188221960F5F1F4FF5E02F
:20562000CD3BDF0769F7DF91CF911F910F9108958091AE05813011F41092AC050E94F82ACE
:205640000895EF92FF920F931F93082F10E08091B20593EBE92E95E0F92EE00EF11E806941
:20566000F701608144E60E94101007541A4FF7018081F80180831F910F91FF90EF900895B1
:20568000A0E0B0E0E6E4FBE20C94BB3B8091AC05882309F4BEC08091B7058F5F8093B7054B
:2056A0008091B8058F5F8093B805803670F080E68093B8058091AE05882339F41092AC0523
:2056C0000E94F82A8CEF0E94AB0F8091B705863009F09BC01092B7058091AD05882309F093
:2056E0003FC010E0C0E0D0E04C2FFE01EF52FA4FE081EE2311F01092B805E10FF0E0EE0FD8
:20570000FF1FED54FD4F859194912091D6053091D70582239323892B19F0842F0E94212BC1
:205720002196143211F0145FDFCF2091D5052F5F2093D5058091D6059091D705880F991F6C
:205740009093D7058093D605203109F062C01092D50581E090E09093D7058093D60559C09D
:2057600065ECE62E65E0F62EC9ECD5E051ECC52E55E0D52E00E010E0F801E354FA4FE081DF
:20578000EE23C9F01092B805D6018C912CE0829FC0011124E80FF0E0EE0FFF1FED52FC4F5D
:2057A000859194912881398182239323892B19F0802F0E94212BF70120812F5F20838881C3
:2057C0009981880F991F99838883D601EC91F0E0ED5BF64EE49130E08E2F90E02817390758
:2057E00031F4F701108281E090E0998388830F5F1F4F0894E11CF11C22960894C11CD11C62
:205800000430110509F0B8CF04C0833011F40E94F82ACDB7DEB7E8E00C94D73B8091AE0527
:20582000813031F48091AC05882311F00E94402B08958091AE05882349F48091AC05882361
:2058400029F088EF0E94AB0F0E94402B08959091B205891719F4862F0E94461508950F933C
:205860001F93162F042F9091B205891709F09EC08091AE05882381F58091B805803650F185
:2058800010928D0110928E0110928F0110929001109292011092910181E08093B30110920F
:2058A000B4011092B50120919301309194013093B7012093B6011092D50521E030E030930B
:2058C000D7052093D6051092B7058093AC058AEF0E94AB0F1092B805812F602F0E949E1574
:2058E0008091AD05882319F00FEF10E05BC010E01FC0E12FF0E0ED53FC4F808190E0FC0180
:20590000EE0FFF1FE80FF91FE157FC4F80810E943316873010F083E005C0843010F480E0F7
:2059200001C08350E82FF0E0EF52FA4F90831F5F80918E031817E8F239C0E12FF0E0ED530D
:20594000FC4F808190E0FC01EE0FFF1FE80FF91FE157FC4F80810E943316282F873010F0E7
:20596000E3E006C0843010F4E0E002C0E82FE350AE2FB0E0201721F4AF53BA4F9C9310C057
:20598000FD01E354FA4F9083FD01EB53FA4F1082AA0FBB1FA753BA4F81E090E08D939C93A9
:2059A0001F5F022F80918E03181738F21F910F910895282F9091B205892F8068281731F021
:2059C0009069291719F0822F0E94F40F08951F9384E465E440E021E00E94541889E467E448
:2059E00040E021E00E9454188EE260E048E220EF0E9454188FE262E340E025E00E94541898
:205A000080E360E040E02FE70E94541886E261E040E02FE00E9454181AE4812F62E044E1A4
:205A20002CE60E9454181F5F1E34B9F78091AF056091B0054091B1050E94CB1010928D0127
:205A400010928E0110928F0110929001109292011092910181E08093B3011092B401109226
:205A6000B50180919301909194019093B7018093B6011092D1051092D2051092D305109263
:205A8000D40520E030E0F901E354FA4F1082F901EF53FA4F8BE080832F5F3F4F2430310578
:205AA00091F780E68093B8051092AC051F9108952091010130910201C90181709070909531
:205AC00081959F4F8070947B36952795822793279093020180930101892F08951092E905B9
:205AE0001092E8058FEF8093DF058091EC05882311F01092EB051092EC0508951092ED059E
:205B000080E008958091ED05882309F468C00E944C1A8091EA058823F9F08091EC059091F6
:205B2000EB05882361F0913011F482E405C0993011F481E401C083E40E94021B4DC084E7F6
:205B40008093B80182E78093B90189E78093BA019F5C9093BD0140C06091DD057091DE0572
:205B60006115710529F464E670E080E090E012C08091DB059091DC0524E630E0AC01429F45
:205B8000C001439F900D529F900D11240E944D3B80E090E043E028EB31E00E94A12388EBE8
:205BA00091E063E00E946F0F85E28093BB018CE78093BD018091DD059091DE05E0E003C01D
:205BC000EF5F969587950097D9F7F0E0E355F64EE491E05DE093BF010E94F41881E00895EC
:205BE0008091DA058130C9F41092DA058093ED051092DC051092DB051092DE051092DD05B3
:205C000083E290E060E070E00E946A1085E290E060E070E00E946A1002C01092ED0580E0CA
:205C200008950F931F93CF93DF930E94582D182F1F700E94582D8770E091D805EE0FEE0F3C
:205C4000EE0FE80FF0E0E354F64EE4911E0F1093E005C1EED5E00E94582D8F709091D80553
:205C60009295907F980FE92FF0E0EB51F64E04910E94582D8370E091D805EE0FEE0FE80FF1
:205C8000F0E0EB5CF54EE491E09FE02D1124E10FE99385E0C43ED807F1F681E08093EC0576
:205CA0002091EB05222301F16091DB057091DC056F5F7F4F7093DC056093DB058091DD0513
:205CC0009091DE05820F911D9093DE058093DD0583E290E00E946A106091DD057091DE05DE
:205CE00085E290E00E946A10DF91CF911F910F9108958091E8059091D905891780F5E82FCB
:205D0000F0E0EC51FA4F6083482F4F5F4093E805491729F520E030E00EC0F901EC51FA4F89
:205D20009081F901E052FA4F80812F5F3F4F981711F020E003C0241780F321E09091EB058D
:205D40009F5F9093EB0581E08093ED05222311F4993011F40E94112E88E08093EA050895CC
:205D6000E091E9059091D905E91708F58091DF058F5F83708093DF05882349F4F0E0E05211
:205D8000FA4F80E9608144E60E94101008958230D9F4F0E0E052FA4F80E8608140E00E9412
:205DA00010108091E9058F5F8093E90508958091E805891749F48091EA0581508093EA058A
:205DC000882311F40E946E2D08950E94F40F8091EE05882359F480918D0190918E01909326
:205DE00002018093010181E08093EE0508958FE361E040E024E00E94541889E360E042E0D4
:205E000024E00E94541880E46BE240E021E00E9454180E94112E82E860E040E00E94CB1068
:205E200010928D0110928E0110928F0110929001109292011092910181E08093B301109269
:205E4000B4011092B50180919301909194019093B7018093B6010E946E2D1092EE051092C1
:205E6000DA050895982F807F803F21F4892F0E94F40F0895E92FF0E0EF70F070E151FA4FF0
:205E80008081882319F0892F0E94F40F0895FF920F931F9384E00E94BE1988E00E94BE19B0
:205EA000FF2412C00F2D10E00156184FF8010491802F82958F7080610E94BE190F70802F28
:205EC00080610E94BE19F394F8E3FF1659F785E069E240E021E000E10E947A181F910F916B
:205EE000FF900895CF93DF93EC01722FE62FF0E0CF01807F9070803F910581F494E0F59598
:205F0000E7959A95E1F7389781E090E002C0880F991FEA95E2F79A8198233EC06F70A1E0C1
:205F2000B0E09D0102C0220F331F6A95E2F78881822381F184E0F595E7958A95E1F73897C6
:205F400002C0AA0FBB1FEA95E2F78A818A2311F150E08B81992787FD909548175907D4F0B2
:205F60008C81992787FD9095841795079CF0472F50E08D81992787FD90954817590754F0C8
:205F800030E08E81992787FD9095841795071CF031E001C030E0932F892FDF91CF9108956D
:205FA000A2E0B0E0E6EDFFE20C94B23B982E5B01342EF6E06F2EF6E07F2E7301DD24CC24AF
:205FC00000E010E025010894411C511CC801E4E0880F991FEA95E1F781509A4F692DF501EC
:205FE000408121810E94722F8823A1F0DD2011F091E005C0F7019081991F9927991FCC2066
:2060000011F081E006C0F701808182958695869581706C010F5F1F4F20E130E0E20EF31EC6
:206020000430110579F6DD2009F010C1CC2029F0892DB501432D0E94F40FCC24DD24C601A2
:2060400074E0880F991F7A95E1F781509A4F692DF5014081F20120810E94722F882309F430
:20606000E4C0F301808184FF02C0982F02C0992D980F9F7085FF03C060EB962E02C0F0EF46
:206080009F22992AD60154E0AA0FBB1F5A95E1F7A75FB94F7E010894E11CF11C00E010E014
:2060A00012967C91129711966C9111978C9085FC02C0F80104C0E1E0F0E0E01BF10BEA0D9B
:2060C000FB1DE0814E2F50E0882D90E08F7090708430910561F18530910554F482309105FF
:2060E000C1F083309105E4F4019709F077C00AC08630910509F186309105B4F1079709F06E
:206100006DC04CC0862F992787FD9095480F591F65C0862F992787FD9095481B590B5EC031
:206120008FE790E09C01241B350BA90157C0462F552747FD509552C02091010130910201F9
:20614000C90181709070909581959F4F8070947B3695279582279327909302018093010137
:20616000492F50E04F775070242F220F67175CF4761B279F812D1124462F552747FD50954B
:20618000480F511D2BC0671B269F812D1124472F552747FD5095481B510920C0809101015A
:2061A000909102019C0121703070309521953F4F2070347B969587952827392730930201E9
:2061C00020930101761B379F212D1124862F992787FD9095480F591F420F511D87FE04C02B
:2061E000EE2311F440E050E086FE03C0842F8F770AC0CA014038510514F08FE790E097FF56
:2062000002C080E090E0F70180830F5F1F4F13960894E11CF11C0230110509F041CF89816B
:20622000F50180838A81F20180830894C11CD11C20E130E0620E731E34E0C316D10409F031
:20624000FECE892DB501432D0E94F40F2296E1E10C94CE3B60933F0670E0A6E0660F771FB5
:20626000AA95E1F760587D4F8FEF95E040E450E00E941A3C08958EEE61E040E023E00E9425
:20628000541880E4EFEFF5E0DF011D928A95E9F7089580914106813011F48093400608954C
:2062A000A0E0B0E0E6E5F1E30C94BC3B80916F068F5F80936F0690917006891708F481C028
:2062C00010926F06C7E4D6E00FE516E057E6E52E56E0F52E3B81F801408151813131F1F424
:2062E000F701808191814817590710F041E02DC02091010130910201C9018170907090956F
:2063000081959F4F8070947B36952795822793279093020180930101D92E16C021E8329F9E
:20632000900111242950384F56954795F901E50FF11D842FD5901590819DF00180958D9DC9
:20634000E00DF11D1124DF2E40E0F80180819181F70120813181820F931FF8019183808336
:206360002981222311F1442301F530E0220F331F4D2D40582402212D1124332727FD30953E
:206380008A81280F311D2038310514F02FE730E080914606806B68816F7737FF02C020E0A6
:2063A00030E0422F4F770E94101026960E5F1F4F82E090E0E80EF91E96E0CF35D90709F00B
:2063C00089CFCDB7DEB7E7E00C94D83B80914106813031F480914006882311F00E9450317E
:2063E0000895809140068823F9F480914106882319F48AEF0E94AB0F8091700681508093C1
:206400006F0681E0809340061092600610925F061092620610926106109264061092630614
:206420001092660610926506089580914106813011F40E94F131089580914006882349F0FA
:2064400080914106882319F48CEF0E94AB0F10924006089580914106813011F40E941C32D2
:20646000089580914106882349F480914006882329F088EF0E94AB0F0E9450310895909170
:206480004606891719F4862F0E9446150895909146068917D1F490918E03ECE4F6E0AFE5F6
:2064A000B6E08081813021F0823029F4992319F411961C921E923696129686E0E436F807F3
:2064C00081F7862F642F0E949E1508950F931F93CF93DF93182F062F882339F4613019F4F0
:2064E0000E94F13102C00E941C32E12FF0E0E05CF94F0083153040F4809142066091430633
:20650000409144060E94CB10E0914506F0E0E856FF4FE491E09370062E2F30E0ABE4B6E0DB
:20652000C7E6D6E08C91E82FF0E0EE0FFF1FED5CF84F85919491AC01429FC001439F900D40
:20654000529F900D112489939993169656E0A336B50741F7DF91CF911F910F9108950E9422
:20656000F40F08951F938DE269E240E021E00E94541889E467E440E021E00E9454188EE289
:2065800060E048E220EF0E9454188FE262E340E025E00E94541880E360E040E02FE70E9410
:2065A00054188AEE6FE640E020E10E94541886E261E040E02FE00E9454181EE4812F60E09B
:2065C00040E02FE70E945418812F8A5864E041EC2FE30E945418812F865860E040E02FE750
:2065E0000E945418812F825868ED40E021E10E945418812F8E576DE640E022E10E94541865
:20660000812F8A576BEE40E022E00E9454181F5F1235A1F680914206609143064091440656
:206620000E94CB1082E0609142060E94663210928D0110928E0110928F01109290011092A0
:2066400092011092910181E08093B3011092B4011092B50180919301909194019093B70166
:206660008093B601109240061F910895982F80910C05882311F040E00DC02091710622232C
:2066800041F040E0892F90E0019630E08217930709F441E0842F089590E080910C058823FC
:2066A00009F491E0892F0895809172068C3348F48F5F809372068C3321F40E944C1A0E949C
:2066C000F41808950E944C1A0E94F41880E0089580910C05882329F48AE28093B9010E9499
:2066E000F418089580910C05882329F485EA8093B9010E94F41808958E3F21F0883F11F0DA
:20670000109272060E94AB0F0895EF92FF920F931F93F82EE62E0E944C1A08EB11E0C80111
:206720006F2D0E94B4188CE68093BA018FE68093BB0183E68093BC01C80106966E2D0E94F0
:20674000C0180E94F4181F910F91FF90EF900895DF92EF92FF920F931F93F82ED62EE72EA2
:206760000E944C1A08EB11E0C8016F2D0E94B41882E68093BA01C80104966E2D0E94C018AC
:20678000C80106966D2D0E94C0180E94F4181F910F91FF90EF90DF900895EF92FF920F93B4
:2067A0001F93F82EE62E0E944C1A08EB11E0C8016F2D0E94B41880E78093BA0187E6809379
:2067C000BB018DE68093BC01C80106966E2D0E94C0180E94F4181F910F91FF90EF90089597
:2067E000DF92EF92FF920F931F93F82EE62ED42E0E944C1A08EB11E0C8016F2D0E94B418C7
:2068000083E28093BA01C80103966E2D0E94C018C80106966D2D0E94C0180E94F4181F91F7
:206820000F91FF90EF90DF900895EF92FF920F931F93F82EE62E0E944C1A08EB11E0C80149
:206840006F2D0E94B41881E68093BA0186E68093BB0184E78093BC01C80106966E2D0E94E1
:20686000C0180E94F4181F910F91FF90EF9008950F931F93182F062F80910C058823E1F425
:206880000E944C1A88EB91E0612F0E94B418E02FF0E0EE0FFF1FE755FF4F659174918AEB1A
:2068A00091E046E050E00E94F73B8AEB91E066E00E946F0F0E94F4181F910F9108958FEFD8
:2068C00065E20E94383408958FEF63E20E94383408958FEF64E20E94383408958FEF62E227
:2068E0000E94383408958FEF61E20E94383408958FEF60E20E94383408958FEF6FE10E94A6
:20690000383408956EE10E94383408956DE10E94383408956CE10E94383408956BE10E9495
:20692000383408956AE10E943834089569E10E943834089568E10E9438340895DF92EF927D
