:200000000C94F70D0C941F0E0C941F0E0C941F0E0C941F0E0C941F0E0C941F0E0C941F0EA1
:200020000C941F0E0C9410110C941F0E0C941F0E0C941F0E0C9480130C941F0E0C941F0EFE
:200040000C941F0E0C941F0E0C941F0E0C941F0E0C941F0E0C941F0E0C941F0E0C941F0E38
:200060000C948F0E0C941F0EA833AC33B033B533B933BD33C133C633C0906048403024207C
:2000800018100C08060403020176107F10871090109910A210AA10B310B910C110CA10D3A9
:2000A00010DC10E510EB10F410FC1005110E1117111D1123112C1133113C1145114D1154AF
:2000C000115B1162116911701177117E1185118C11931199119E11A411AA11AE11B211B646
:2000E00011BA11BD11C011C411C811CC11D011D411D811DC11E011E411E811EC11F011F48D
:2001000011F811FC110012041208120C121012141218121C122012291232123B123F124326
:200120001247124B124F12531257125B125F12631267126B126F12731277127B127F12834F
:200140001287128B128F129312DC1197129B129F12A312A712AB12AF12B3129B12B712BB3B
:2001600012BE12C212AF12C612CA12CE12D212D612DA12DE12E212E612EA12EE12F212F6EA
:2001800012FA12FE12021306130A130E13121316131A131E13221326132A132E13321337B1
:2001A000133B133F13AF12431347134B134F13531357135B135F13631367136B136F137348
:2001C0001377137B137F13831387138B138F13931397139B139F13A313A713AB13AF13B39F
:2001E00013B713B913BC13BE13C113C313C513C813CA13CD13CF13D213B713D413BC13D77E
:2002000013C113C313DA13C813DD13CD13E013D213E313E713E813EC13EE13F013F213F4CA
:2002200013F813FC130014041408140C141014141418141C142014241428142C1430143421
:200240001438143C144014441448144C145014541458145C146014641468146C14701474FE
:200260001478147C148014841488148C1490149712941498145555F5F5B5B5D5D555AB5548
:20028000599595090949924952494919D56B6B5B5B7777B76D57576F6FDF7611A9C16F0169
:2002A000D1000011491111494901050101495205014129410441A44141000092401010109E
:2002C0001250109090901210120C491040104810900000494911115C5C555544441F5F45CA
:2002E00045D5D577774264FFFF000048480155004910F084A448101141491455555858A520
:20030000627F007F0081FF81FF7F007F0081FF81FF7F007F0081FF81FF7F007F0081FF8182
:20032000FF7F0081FF7F0081FF7F0081FF7F0081FF7F0081FF7F0081FF7F0081FF7F0081C5
:20034000FFC1FFC1FF7F00000081FF000000005800000000005800CEFFA8FF0000580000A3
:200360000013002C005D00FCFF2000CBFFA6FF81FF750020009AFFCBFF6900CBFF5D00CB84
:20038000FF58009BFF6B00A1FF5800A8FF3200DAFF4100A8FF6500A1FF650081FF3F00E165
:2003A000FF4600ACFF540090FF54009EFF70009EFF3600BAFF7F00ACFF7F0090FF5400AC45
:2003C000FF00000100030007000F003F007F00FF00FF03FF0FFF3FFFFF00000100030007F0
:2003E000000F003F007F00FF00FF03FF0FFF3FFFFF00000100030007000F003F007F00FF0E
:2004000000FF03FF0FFF3FFFFF00000100050007000F003F007F00FF00FF03FF0FFF3FFF6A
:20042000FF0000010005000D000F003F007F00FF00FF03FF0FFF3FFFFF0000010009001573
:20044000002D003F007F00FF00FF03FF0FFF3FFFFF00000100110029002D007D007F00FF03
:2004600000FF03FF0FFF3FFFFF00000100110029005500DD00FD00FF00FF03FF0FFF3FFF7A
:20048000FF00000100210091002901AD01DD02BD03FF03FF0FFF3FFFFF0000010041001194
:2004A0000149025505AD066D0B7D0FFF0FFF3FFFFF00000100810021029108A9145515AD83
:2004C00016DD2EFD3EFF3FFFFF000001000101410811112929A9525555ADADDDDDFDFDFF12
:2004E000FF00000100020003000400050006000700080009000A000B0000000000020002B7
:200500000004000500050007000700090009000B0000000000020003000300050005000789
:2005200000070009000A000A0000000100010003000300050005000700080008000A000A5A
:2005400000000000000200020004000400060007000700090009000B00000000000200025A
:20056000000400050005000700070009000A000A0000000000020003000300050005000729
:2005800000080008000A000A0000000100010003000300050006000600080008000A000AFA
:2005A0000000000000030003000400040007000700070009000A000A0000000000030003F5
:2005C00000030005000600070007000A000A000A00000000000200020004000400070007C7
:2005E0000007000900090009000000000003000300030005000500070007000A000A000A9A
:200600000000000100010004000400050005000700080008000B000B000000010001000493
:20062000000400040006000700080008000B000B0000000100010003000300050005000766
:200640000007000A000A000B0000000100010003000300060006000700080008000B000B33
:200660000000000000020002000400050005000500090009000A000B000000000002000238
:20068000000500050005000700070009000900090000000000030003000300050005000807
:2006A00000080008000A000A0000000000030003000400040006000600080008000A000AD8
:2006C0000000000100010003000400050005000700080008000A000A0000000100010001D9
:2006E0000005000500050007000800080008000800000001000100030003000300070007AB
:2007000000080008000800080000000000020002000400040006000600080008000A000A7D
:2007200000AA00E3005501C701AA028E03000455051C070008AA0A001055150020AA2A0026
:200740004055550080FFFF7502A10201032103410361038103A103C103E104F9041105293A
:20076000054105590571058905A105B905D105E9050106190631064906610611057906916B
:2007800006A906C106D906F1060907210710101016090909061010101602020207101010E5
:2007A000160902040F101010160102010610101012040A0F021010101704060106101010CC
:2007C000130407050702030302020E1E0C0000001C14141700000103070F1F1F0000000EEA
:2007E0001511110E000105090D1115191D2125292C3034383C4044484C5054585C6064682D
:200800006C7074787C8083878B8F93979B9FA3A7ABAFB3B7BBBFC3C7CBCFD3D6DADEE2E6B7
:20082000EAEEF2F6FAFEFAF6F2EEEAE6E2DEDAD6D3CFCBC7C3BFBBB7B3AFABA7A39F9B97A0
:20084000938F8B8783807C7874706C6864605C5854504C4844403C3834302C2925211D19D8
:2008600015110D090501FEFEFEFEFEFEFEFEFEFEFEFEFEFEFEFEFEFEFEFEFEFEFEFEFEFE6A
:20088000FEFEFEFEFEFEFEFEFEFEFEFEFEFEFEFEFEFEFEFEFEFEFEFEFEFEFEFEFEFEFEFE98
:2008A000FEFEFEFEFEFE01010101010101010101010101010101010101010101010101012A
:2008C0000101010101010101010101010101010101010101010101010101010101010101F8
:2008E000010101010101FE01030507090B0D0F11131517191B1D1F21232527292B2D2F3183
:20090000333537393B3D3F41434547494B4D4F51535557595B5D5F61636567696B6D6F7197
:20092000737577797B7D7F80828486888A8C8E90929496989A9C9EA0A2A4A6A8AAACAEB090
:20094000B2B4B6B8BABCBEC0C2C4C6C8CACCCED0D2D4D6D8DADCDEE0E2E4E6E8EAECEEF077
:20096000F2F4F6F8FAFCFE0180868C92989EA4AAB0B6BBC1C6CBD0D4D9DDE1E5E9ECEFF2BD
:20098000F4F7F9FAFCFDFDFEFEFEFDFDFCFAF9F7F4F2EFECE9E5E1DDD9D4D0CBC6C1BBB61C
:2009A000B0AAA49E98928C868079736D67615B554F49443E39342F2B26221E1A1613100D67
:2009C0000B0806050302020101010202030506080B0D1013161A1E22262B2F34393E444972
:2009E0004F555B61676D737980808A949DA7B1BAC2CBD2DAE0E6ECF1F5F8FBFCFEFEFEFD53
:200A0000FBF9F6F3EFEAE6E0DBD5CFC9C3BDB6B0AAA49F99948F8B8783807D7B7978777698
:200A20007676767778797B7C7E808183848687888989898988878684827F7C7874706B66F3
:200A4000605B554F49423C36302A241F1915100C090604020101010304070A0E13191F25A5
:200A60002D343D454E58626B7580808F9EACBAC7D3DEE7EFF5FAFDFEFEFCF9F4EFE8E1D968
:200A8000D1C9C2BAB3ADA8A3A09E9E9EA0A3A8ADB3BAC2C9D1D9E1E8EFF4F9FCFEFEFDFA4D
:200AA000F5EFE7DED3C7BAAC9E8F8070615345382C2118100A0502010103060B10171E2638
:200AC0002E363D454C52575C5F6161615F5C57524C453D362E261E17100B0603010102053F
:200AE0000A1018212C38455361708080909FADB9C3C9CCCCC9C4BCB3A9A0978F8A87878A90
:200B00009099A4B0BECCD9E5F0F7FCFEFCF7F0E5D9CCBEB0A499908A87878A8F97A0A9B343
:200B2000BCC4C9CCCCC9C3B9AD9F90806F6052463C363333363B434C565F6870757878758D
:200B40006F665B4F4133261A0F08030103080F1A2633414F5B666F7578787570685F564C47
:200B6000433B363333363C4652606F800101010305080D131B25313E4D5D6E8091A3B4C4DC
:200B8000D3E0EBF3FAFDFEFCF8F1E7DCCEBFB09F8E7D6C5C4C3E31251B130C060201010153
:200BA0000101010101010101010101010101010102020303040506070706050301010101EC
:200BC0000101010101010101010101010101010101010101010101010101010101010101F5
:200BE000010101010101010101010101010101020509111B293A4D637A92A9BFD3E4F1FA81
:200C0000FEFEF9F0E3D4C4B2A192857B7472747B8592A1B2C4D4E3F0F9FEFEFAF1E4D3BF8F
:200C2000A9927A634D3A291B1109050201010101010101010101010101010101010101019C
:200C4000010101010101010101010101010101010101010101010101010101010101010174
:200C600001010101010101010101010101013F39332D27211B150F090301070D13191F2576
:200C80002B31373D43494F555B61676D737980868C92989EA4AAB0B6BCC2C8CED4DAE0E642
:200CA000ECF2F8FEFCF6F0EAE4DED8D2CCC6C0C6CCD2D8DEE4EAF0F6FCFEF8F2ECE6E0DA98
:200CC000D4CEC8C2BCB6B0AAA49E98928C868079736D67615B554F49433D37312B251F1945
:200CE000130D070103090F151B21272D33393F80787068605850484038302921191109011B
:200D000009111921293038404850586068707880878F979FA7AFB7BFC7CFD6DEE6EEF6FE64
:200D2000F6EEE6DED6CFC7BFB7AFA79F978F8780878F979FA7AFB7BFC7CFD6DEE6EEF6FEDD
:200D4000F6EEE6DED6CFC7BFB7AFA79F978F87807870686058504840383029211911090121
:200D600009111921293038404850586068707880010203030405060708090A0B0C0E0F10B0
:200D800012131517181A1C1E20222426292B2E3134373A3D4044484C5054585D62676C715E
:200DA000777D838A91989FA7AFB7C0C9D3DDE8F3FEF3E8DDD3C9C0B7AFA79F98918A837DD8
:200DC00077716C67625D5854504C4844403D3A3734312E2B29262422201E1C1A18171513B9
:200DE00012100F0E0C0B0A09080706050403030201010C16202930383E444A4F54585C600C
:200E00006366696C6E7072747677787A7B7C7D7E7F808081828384858788898B8D8F91932E
:200E200096999C9FA3A7ABB0B5BBC1C7CFD6DFE9F3FEF3E9DFD6CFC7C1BBB5B0ABA7A39FB1
:200E40009C999693918F8D8B898887858483828180807F7E7D7C7B7A7877767472706E6C55
:200E6000696663605C58544F4A443E38302920160C01E5CDB8A4938274665A4F453C332C63
:200E800026201A16120E0B0907050402020101010102020304050608090B0D0E10121416F7
:200EA000191B1D1F222427292C2E313336393B3E414446494C4F5254575A5D606366686B27
:200EC0006E7174777A7D808285888B8E9194979A9DA0A3A6A9ABAEB1B4B7BABDC0C3C6C9A6
:200EE000CCCFD2D5D8DBDEE1E3E6E9ECEFF2F5F8FBFEE51426364553606C77828B949CA3C9
:200F0000AAB1B7BCC1C6CACED2D5D9DCDEE1E3E5E7E9EBECEEEFF0F2F3F4F5F5F6F7F8F8ED
:200F2000F9F9FAFAFBFBFBFCFCFCFDFDFDFDFDFEFEFEFEEBD9C9BAAC9F93887D746B635C35
:200F4000554E48433E3935312D2A2623211E1C1A1816141311100F0D0C0B0A0A0908070795
:200F60000606050504040403030302020202020101010114FEE6BD8B582D0F0102112946E1
:200F8000637C8E989994897B6E625B58595E666F7981878B8C8B8986838180808183878AC1
:200FA0008E919496979898989999999A9C9D9FA1A3A5A7A8AAABACADAEAFB0B1B3B4B6B7D4
:200FC000B9BABCBDBEC0C1C2C3C5C6C7C8CACBCDCECFD1D2D3D5D6D7D9DADBDDDEDFE1E265
:200FE000E3E5E6E7E9EAEBEDEEEFF1F2F3F5F6F7F9FAFBFDFE43557398BDDDF3FEFEF4E42F
:20100000D0BDACA09A9A9FA8B2BDC6CCCFCFCDC8C2BDB8B5B3B3B4B7BABDBFC1C2C2C1C08F
:20102000BEBDBBBABABABABBBCBDBEBEBEBEBEBEBDBDBCBCBCBCAA8C6742220C01010B1B4B
:201040002F42535F656560574D423933303032373D42474A4C4C4B484542403E3D3D3E3FF1
:201060004142444545454544434241414141414142424343434373796E636C7463680070DE
:201080006F6C79736571003078666520666C7400617270656767696F0062706D20636E74E8
:2010A00072006363206B6E6F620063686F72646D656D00636C6F636B0064697669646572EC
:2010C0000063686E66696C74720063686E6D65726772007573657220707267006469737088
:2010E00061746368006472756D73006561722067616D65006D6F6E69746F720072616E6486
:201100006F6D697A00636F6E74726C6C720073706C69747465720064656C617900736361E3
:201120006C650073657175656E6372006363206C666F006E6F74656E756B65007379737811
:2011400064756D70002172657365742100736E644F666600727374437472006E6F744F668C
:2011600066006F6D6E4F6666006F6D6E694F6E006D6F6E6F4F6E00706F6C794F6E00737951
:2011800073782E2E002E737973782E002E2E737973780073746172740073746F7000636FDC
:2011A0006E742E0072657365740063686E00616C6C00666C74006F6666006F6E006E6F004F
:2011C0007965730072656300647562007469650072756E0062706D0067727600616D7400E2
:2011E000746170007377670073686600707368006C61670068756D006D6E6B0076616C00C6
:201200006E756D0074797000636323006E7270006D696E006D6178006C766C0072737400B7
:20122000736F7272792E2E2E007065726665637421006E6F742062616421006D6F64007072
:20124000746E0065756300696E740065787400636C6B0070743100707432007074330070E7
:2012600074340063633100636332006363330063633400636335006363360063633700638D
:20128000633800696E70006F75740073706C006C6F7700757070006E6F740076656C002363
:2012A0006331002363320063796300706F6C00726E640073746B00646972007570006477C3
:2012C0006E00752664006F637400647572006C6174006469760064656E00342F3100332F5F
:2012E0003100322F3100332F3200312F3100332F3400322F3300312F3200332F3800312F50
:201300003300312F3400312F3600312F38002F3132002F3136002F3234002F3332002F3424
:2013200038002F393600726570007472730064706C006F66665F006D697200616C74007460
:20134000726B00726F6F0073636C00766F690068726D0063687200696F6E00646F72007051
:201360006872006C7964006D69780061656F006C6F6300626D6A00626D6E00706D6A00705C
:201380006D6E00626872007368720072757000746F6400726167006B6161006D6567006D3E
:2013A0006C6B0064706B00666C6B006A61700067616D0077686C00430043230044004423CB
:2013C0000045004600462300470047230041004123004200446200456200476200416200E8
:2013E0004262006B65790000737470000100020003000400616D3100616D3200616D33009F
:20140000616D340063653100636532006365330063653400776631007766320077663300B3
:201420007766340072743100727432007274330072743400737931007379320073793300DF
:20144000737934007472690073717200726D700073696E0073693200736933007369350000
:201460006767310067673200627431006274320073703100737032006C7031006C7032001A
:2014800072733100727332007326680072657300667265006368640070726700F00021020C
:2014A0000003204343232044442320452046462320474723204141232042002D3031323376
:2014C0003435363738007D1E00000000000000000000000000000000000000000000000063
:2014E00000002E1F000000000000871ED41E0000A21E00000000000000000100F0033A0515
:2015000000000079211C21FC20000000002320000000000000F120681F311F372000000056
:20152000006221E320000000000000000000000000EF1F000000000B00D0003D05401503A2
:2015400000780000000001000C0E00012300000000000000000000000000000000ED2123A3
:20156000225D2240220000EA23000000000000E9227A2200007E2300000000000000000013
:2015800000000000000000049C240000000000000000000000000000000000000000000087
:2015A000000000000000992400000000000000000000000000002C240E24000006001800CE
:2015C0005C05C515053F000007007F89253D251E25FF240000000000000000000000000090
:2015E0000000000000000000007E2500000000000073250000000000000000000000000CA4
:20160000009000620508160600043C3F4346303030303030A22500000000000000000000C0
:201620000000000000000000000000000000000090250000000000000000000000000000F5
:201640000000000000000000010040026E05511608019826000000000000000000000000A6
:20166000000000000000E025DD25EF250000F6250000F2250000B2252826000000000000F8
:201680000726A92500000400100070058F160700780000FD2600000000000000000000007F
:2016A0000000000000000000000000000000000000C3260000000000000000000000000041
:2016C000000000000000000300C0007905D0160A000300202700000000000000000000008F
:2016E00000000000000000000000000000000000001D27000000000000000010270000006F
:2017000000000000000000090050007C0510171100070A4A474950485B4328E127D6270069
:20172000000000000000000000000035283D27362744270000000040282B28000000000065
:20174000000000000000004B27000000000A00000186056617131F3C5770869BAEBFCEDB98
:20176000E6EFF6FBFDFF007800000008040A0000C9292F291C29132900000000000000004E
:2017800000000000000000000000000000009629000000000000000000000000000000008A
:2017A000000000000400B0009105AD170C00000003FF2B472B3F2B00000000000000000006
:2017C000000000262BEF29E829302A00000000F12B312B00000000000000000000000000BD
:2017E0002A000000000A0040009705FA170D00010203040506080A0C0E10000078000009E9
:2018000024282A380F2E912D0000000000000000000000000000000000000000000000001F
:201820000000FD2D0000C82D962C082D00009A2C000000000000000007002000C205DD18E9
:201840000E00010102020203040506070809FAFAC330303030303030303030303030303CB5
:201860003C303030303C3C3C3C3030303C3C3C242424303C4824303C480000000005050531
:2018800005070707070C0C0C0C00000303030404040505050707070C0C0000030304040593
:2018A00005070709090A0A0C0C000203040507090A0B0C00030405070B0001020304050665
:2018C0000708090A0B0C07050401010101010101FF0101FFFF0101FFFF0101FFFF000200B7
:2018E000000000005F2E00000000000000000000000000000000000000000000000000005B
:2019000000004A2E000000000000000000000000000000000000000010002002D905211905
:2019200009010000000000000000000000000000005330000000000000000000000000001A
:20194000000000000000000000000000000000E82E0000000000000000000000000000422F
:2019600030000000000100440229066E190B00CA315F31573100000000000000000000001C
:2019800000FE302D316130423100000000C73149310000000000000000000000007E310096
:2019A0000000001F0000022A06AC191600007800001000073F3F0002000A003F0004004A55
:2019C000003F00020047003F0004004A3428340934E433FF329633DC32B7326F338A326A55
:2019E00033653360334E32493300000000000000007A32000064326C3200000000000001AC
:201A00000000005B06081A0F007B35D434CB34C23400000000000000000000000000000087
:201A2000000000000000007035000000000000000000000000000000000000000008008871
:201A4000005D06461A10007F0C200000070A653730371D3715370000000000000000000054
:201A60000000000000000000000000005337000000000000000000000000000000000000DC
:201A800000000600100165068B1A1400000100F4004C39B738BC37000000000000000000AF
:201AA00000000050387E388E37B038000000003E39853800000000000000000000000017F0
:201AC00039000095378D0020016F06CE1A1500007800000C004A0101010108300C0F7F300D
:201AE0000C007F3C0C0F703C0C0070300C0F60300C00603C0C0F503C0C0050300C0F40309B
:201B00000C00403C0C0F303C0C0030300C0F20300C00203C0C0F103C0C0010300C0F003079
:201B20000C00003C0C0F103C0C0010300C0F20300C00203C0C0F303C0C0030300C0F403059
:201B40000C00403C0C0F503C0C0050300C0F60300C00603C0C0F703C0C0070423A000000B8
:201B600000000000000000000000000000000000000000000000000000013A00000000002A
:201B8000000000000000000000000000000000040080000107981B1200300001133B000075
:201BA0000000000000000000000000000000D83A5B3A0000633A0000103B00000000000096
:201BC0000000663A00007B3A000000000000000002000A000507D91B00040800B80E340F8F
:201BE000331002118B11EB145715321A6E1E11241FBECFEFD8E0DEBFCDBF11E0A0E0B1E0FD
:201C0000EAEDF8E702C005900D92A033B107D9F718E0A0E3B1E001C01D92A23AB107E1F7D5
:201C20001BE1CEEEDBE104C02297FE010E94673CCC3DD107C9F70E9402120C942E3B0C946F
:201C400000000F931F93CF93DF938C01EB0160E070E0AE010E94493B009719F0EC01C01B16
:201C6000D10BCE01DF91CF911F910F9108951F93CF93DF93EC01162F70E00E94210E982F5C
:201C800006C0FE01E90FF11D80E280839F5F9117C0F3DF91CF911F910895EF92FF920F93EA
:201CA0001F93CF93DF93EC01F62EE42E062F10E0B8010E94210E282F8F15D1F0DE01A00F82
:201CC000B11F1297E82FF0E03197EC0FFD1F90E00DC0921728F4808111968C93119703C091
:201CE0001196EC9211979F5F119731979F1588F3CDB7DEB7E6E00C94563C40E20E944D0E4A
:201D000008958FB7F894209130013091310140913201509133018FBFB901CA0108951F9245
:201D20000F920FB60F9211242F933F934F935F936F937F938F939F93AF93BF93EF93FF93EF
:201D4000E0913501F0913601309709F00995FF91EF91BF91AF919F918F917F916F915F91D6
:201D60004F913F912F910F900FBE0F901F9018950895982F2B9A8091C00085FFFCCF909320
:201D8000C6000895382F20910A0719C08091740190917501891B8F77C9F380917501E82FBD
:201DA000F0E0E55FF84FE0818F5F8F77809375018091C00085FFFCCFE093C60022E280917C
:201DC0007501909174018150891B8F778317F0F220930A07089586E10895282F80917501BD
:201DE000909174018150891B8F77C1F380917401E82FF0E0E55FF84F20838F5F8F7780937C
:201E0000740108950F931F93CF93DF93182FEB01042F842F0E94C20E812F0E94ED0E00238D
:201E200041F088810E94ED0E013019F089810E94ED0EDF91CF911F910F910895FF920F93FA
:201E40001F93182F062FF42E83E00E94C20E812F0E94ED0E802F0E94ED0E8F2D0E94ED0E6B
:201E60001F910F91FF90089508951F93CF93DF93182FE0916D0325C0CE2FD0E0FE01EE0F0D
:201E8000FF1FEE0FFF1FEC0FFD1FE555FE4F82818823C9F460816E3F51F04181442319F4FB
:201EA000812F806802C0812F80690E941E0FFE01EE0FFF1FEE0FFF1FEC0FFD1FE555FE4F8D
:201EC000E381EE23C9F60E943410DF91CF911F9108951F93182F03C0812F0E94350F809168
:201EE000AA018823C9F71F9108950E94921008950E948D3B0895E82FF0E0EE0FFF1FED5F49
:201F0000FE4F6081718187E391E04DE350E00E94313B089520916D0130916E01E0916F018B
:201F2000F0917001E80FF91F820F931F60810E947F3B089560916D0170916E0140916B0177
:201F400050916C0180916F01909170010E945D3B08950E949A0FE0915B01F0915C0130978C
:201F600011F080E00995E0913701F0913801309709F00995089560916D0170916E01409164
:201F80006B0150916C0180916F01909170010E94753B0895609171017091720140916B0171
:201FA00050916C0180916F01909170010E94313B0E94BB0F0895A0E0B0E0E1EEFFE00C944B
:201FC000323CD62EE42E282F30E040E050E0220F331F441F551F61EE75EF85E090E00E9442
:201FE000133C390182E0D80ECD2CDD24CC0CDD1CE7E4F7E0CE0EDF1EB301882777FD8095DE
:20200000982FFF2400E010E0A80197010E94923B4B015C01C0E0D0E0F601259134912C0FB0
:202020003D1FF90165917491882777FD8095982F8E0104581E4FA50194010E94923BBC0191
:20204000992777FD9095892FC301860F971FF801918380832296C032D105F1F6CDB7DEB7D0
:20206000EEE00C944E3C08953091AA0120916D0304C08FEF80832381392F822F90E0FC01CF
:20208000EE0FFF1FEE0FFF1FE80FF91FE555FE4F8281882329F03093AA0120936D0318C044
:2020A000932F9150222329F73093AA0110926D030895822F90E0FC01EE0FFF1FEE0FFF1FA7
:2020C000E80FF91FE555FE4F8281815082832381222379F70895482FE0916D0390E01EC0F5
:2020E0002E2F30E0F901EE0FFF1FEE0FFF1FE20FF31FE555FE4F8081841731F48181861759
:2021000019F48EEF80839F5FF901EE0FFF1FEE0FFF1FE20FF31FE555FE4FE381EE2301F70D
:20212000892F0895982FE0EBF1E071E080818F3F29F07F5F35967A35C9F708958091AA013D
:202140008F5F8093AA01A72FB0E0FD01EE0FFF1FEE0FFF1FEA0FFB1FE555FE4F90836183A8
:202160004283248350916D03552371F0852F90E0FC01EE0FFF1FEE0FFF1FE80FF91FE55529
:20218000FE4F8281481768F4FD01EE0FFF1FEE0FFF1FEA0FFB1FE555FE4F538370936D031D
:2021A0000895252F30E0F901EE0FFF1FEE0FFF1FE20FF31FE555FE4F5381552371F0852F03
:2021C00090E0FC01EE0FFF1FEE0FFF1FE80FF91FE555FE4F8281481720F7FD01EE0FFF1F34
:2021E000EE0FFF1FEA0FFB1FE555FE4F5383F901EE0FFF1FEE0FFF1FE20FF31FE555FE4F9A
:202200007383089508958BEA91E06FEF70E042EC51E00E94563B10926D031092AA0108956C
:202220001F920F920FB60F9211242F933F938F939F93AF93BF93EF93FF9380917601909178
:202240007701A0917801B09179010196A11DB11D8093760190937701A0937801B0937901F0
:2022600020917A0130917B012F5F3F4F30937B0120937A0180919C01882381F180919F01F0
:202280009091A0012817390749F510927B0110927A0180919D018F5F80939D01863011F07F
:2022A00021E01DC010929D0180919E018F5F80939E01803111F023E003C010929E0127E0F0
:2022C000E0919E01F0E0EE0FFF1FE458FE4F808191819093A00180939F0101C020E0922F6E
:2022E00020FF05C0809174038F5F8093740391FF05C0809175038F5F80937503FF91EF9193
:20230000BF91AF919F918F913F912F910F900FBE0F901F90189510926E031092720310921A
:20232000730308951F9378941092C100239A259A0E94EC140E94031180E00E947B0F0E9467
:20234000A90FE0916701F0916801309721F080E00995182F05C0E0916F01F09170011081BC
:202360000E94EB0E181780F0E0916501F0916601309721F080E060E0099505C0E0916F01A8
:20238000F0917001108210E0812F0E947B0F0E94891A8091B100887F81608093B100809129
:2023A000B00083608093B0008091700081608093700080918100887F8260809381008091C2
:2023C00080008C7F81608093800080916F00816080936F000E94A90F8091C0008D7F8093D1
:2023E000C0001092C50087E28093C4008091C10088608093C1008091C10080618093C10061
:202400001F91089584B714BE80916000886180936000109260000E9492110E94FC1BFDCFC9
:20242000E0914701F0914801309711F087EF099587EF0E949F160895A1E0B0E0E2E2F2E12B
:202440000C943A3C7C01962F162F107F062F0F70103F09F4E2C0E0915101F0915201309750
:2024600009F4DBC0802F698309959981882309F0D4C0D70114964C91E0915501F09156013B
:20248000309709F4D5C00894E11CF11C892FB70120E00995CDC0B7016F5F7F4F892F21E095
:2024A0000995103B09F442C0113B40F41039F1F0103AA1F1103809F0BBC010C0103D09F4D8
:2024C00050C0113D20F4103C09F0B2C042C0103E09F453C0103F09F0ABC067C0F7016181BF
:2024E0004281E0913B01F0913C012EC0D70112964C91129711966C91442329F0E0913901EB
:20250000F0913A0121C0E0913B01F0913C01309709F48EC0802F40E009958AC0F701618110
:202520004281E0913D01F0913E010EC0D70111966C91862F8857883008F47AC0F7014281E2
:20254000E0914101F0914201309709F471C0802FE3CFD70111966C91E0914301F0914401B7
:2025600006C0F7016181E0913F01F0914001309709F45EC0802F09955BC0D70112966C9181
:20258000129711964C91E0914501F0914601309709F44EC070E07695762F66277795679528
:2025A000640F711D802F099543C00830F9F0093028F4002351F00730D9F515C00B3001F1E9
:2025C0000C3019F10A30A1F516C0F7011181E0914701F0914801309711F0812F0995812F3C
:2025E0000E949F1625C00E94101222C0E0914901F0914A010EC0E0914B01F0914C0109C050
:20260000E0914D01F0914E0104C0E0914F01F0915001309769F009950BC0D70114964C91EC
:20262000E0915501F0915601309709F034CF39CF2196E6E00C94563C1F93CF93DF93EC010E
:20264000162FE0915301F0915401309711F0862F0995183F28F0CE01612F0E941C124CC0D5
:2026600017FF35C01C8281E08D83812F807F803AA1F0813A28F4803881F08039A1F40DC02B
:20268000803E59F0803F19F0803B69F406C0912F9F70892F8150823018F482E08D8303C042
:2026A000943008F01D828881803F11F40E9410121883103F99F4E0914701F091480130976D
:2026C00011F080EF099580EF0E949F1607C08C81FE01E80FF11D11838F5F8C839C818D8192
:2026E000981750F0CE0168810E941C121C828881813F10F01D821882DF91CF911F910895A6
:2027000078941F920F920FB60F9211242F933F934F935F936F937F938F939F93AF93BF935C
:20272000EF93FF938091C00087FF07C02D9A6091C6008EE693E00E941C138091740190918A
:202740007501891B8F77D9F08091C00085FF17C02B9A80917501E82FF0E0E55FF84F908195
:202760008F5F8F77809375019093C60008C080917403815080937403309729F00995E09159
:202780005701F091580180917403882381F708C080917503815080937503309729F0099531
:2027A000E0915901F0915A0180917503882381F7809176038F5F83708093760380FD2EC064
:2027C0000E94A0178091760390E083709070892B29F590913401892F8A59809334018D37E4
:2027E000D8F0975190933401809130019091310101969093310180933001809130019091A9
:202800003101892B49F48091320190913301019690933301809332012B982D98FF91EF9130
:20282000BF91AF919F918F917F916F915F914F913F912F910F900FBE0F901F901895382F7A
:202840004091AB0320E012C0842F90E0DC01AA0FBB1FA80FB91FA858BC4F8C91831719F436
:20286000222339F418C0242F12964C91442361F70895822F90E0FC01EE0FFF1FE80FF91F92
:20288000E858FC4F12968C91828330917703ECEAF3E090E019C012968C918093AB03F5CF6C
:2028A0008191841781F4292F05C0E455FC4F818180832F5FE22FF0E0832F90E00197E81728
:2028C000F9079CF303C09F5F931750F3842F90E0FC01EE0FFF1FE80FF91FE858FC4F128252
:2028E0008FEF8083118231503093770308950F931F93182F062F0E941F1480917703803188
:20290000C1F4EDE7F3E021E030E08081882349F4F901EE0FFF1FE20FF31FE858FC4F8081BD
:2029200006C02F5F3F4F33962131310571F70E941F14EBE7F3E091E080818F3F09F4592FBD
:202940009F5F33969131C1F7852F90E0FC01EE0FFF1FE80FF91FE858FC4F8091AB0382839C
:20296000108301835093AB034091770320E030E022C0D901F901E455FC4F808190E0FC01AC
:20298000EE0FFF1FE80FF91FE858FC4F80812F5F3F4F181780F4942F08C0E92FF0E0E45516
:2029A000FC4F82913196808391506917B0F3A455BC4F5C930AC0622F2417D8F2552329F007
:2029C000E42FF0E0E455FC4F50834F5F409377031F910F9108950895CF93DF931092770348
:2029E000ABE7B3E080E3ED0119928A95E9F780E1EDEAF3E0EF0119928A95E9F71092AB03C2
:202A0000FD0133978FEF8083339683E0EB3AF807C9F7DF91CF910895282F6CE0822F0E94FA
:202A2000B13B0895482FE82FF0E0262F332727FD309567FF08C088279927821B930BE81740
:202A4000F9074CF007C08FE790E0821B930BE817F9070CF4460F842F08950F931F93062F25
:202A6000142F6C3008F00C50801B87FD845F0E940C15175FE12FF0E0EE0FFF1FE95BF84F62
:202A800065917491292F30E0220F331F620F731FFB01459154912CE0382F329FC00111245C
:202AA000840F800F87FD8C501F910F9108958DEB93E06FEF70E040E450E00E94563B0895EA
:202AC000109222041092210482E080932504809127048230B1F0833018F48130B9F405C058
:202AE000813141F0833791F40CC08091280490E0029602C082E090E090932404809323048A
:202B000008951092240410922304089583E0809325040895A0E0B0E0E0E9F5E10C94393CE8
:202B2000C62FD0E0209721F4C0E0D4E0C81BD90B7C0173C0CE01C132D10510F080E290E0EF
:202B4000D82EECE9F4E194918091C00085FFFCCF9093C600319684E1E23AF807A1F78091A7
:202B6000C00085FFFCCF81E08093C6008091C00085FFFCCFD092C600E092FD03F092FE03CF
:202B80000D2D10E08FEF93E0B701A8010E945D3B30E040E015C0E350FC4F2081922F929573
:202BA0009F708091C00085FFFCCF9093C6008091C00085FFFCCF320F2F702093C6004F5FD6
:202BC000E42FF0E08D2D90E001968E179F071CF7932F92959F708091C00085FFFCCF9093B8
:202BE000C6008091C00085FFFCCF3F703093C6008091C00085FFFCCF87EF8093C600C01B6D
:202C0000D10BE00EF11E209741F08CED95E0E4EFF1E03197F1F70197D1F7209709F08ACF48
:202C2000CDB7DEB7E7E00C94553CCF92DF92EF92FF921F9384E492E00E946D3B182FE82E6C
:202C4000FF2496E0EE0CFF1C9A95E1F780E892E0E80EF91E8DEFC82E83E0D82EC60160E8EE
:202C600073E040E250E00E945D3BC601B70140E250E00E94753BC60160EA73E040E250E09C
:202C80000E945D3B80E290E0E80EF91EC601B70140E250E00E94753B80E0612F0E944230F4
:202CA0001F91FF90EF90DF90CF9008956091FD037091FE03809127048230A9F0833020F4AA
:202CC000813009F03BC005C0813199F18337B1F52DC0409128048FEF93E050E00E94753B91
:202CE0000E949A0F089580E00E947B0F0E94A90F60912804E0916501F0916601309719F05A
:202D000080E0099505C0E0916F01F091700160830E94BB0F2CE088E190E00FB6F894A8955B
:202D2000809360000FBE20936000FFCF0E9415160895CB01609128040E948A150895482FCA
:202D4000803F41F41092260410922204109221041092250480912504813019F1813030F093
:202D6000823091F1833009F077C063C08091210490912204FC01E456FB4EE491E41709F0B3
:202D800054C001969093220480932104069708F463C081E08093250410922204109221041F
:202DA00008958091210490912204FC01E95DFB4F408301969093220480932104029709F0FF
:202DC0004BC00E94601508952091210430912204B90176956795FB01E350FC4F20FF11C04C
:202DE0004F708081482B408380912304909124046817790750F480912604840F809326040E
:202E000004C0842F8295807F80832F5F3F4F3093220420932104809123049091240401962D
:202E2000880F991F28173907B8F083E0809325040895473F71F4E0912304F0912404E35081
:202E4000FC4F909126048081981719F40E945616089585E0809325040895E0916501F091DE
:202E60006601309711F009950895E0916F01F0917001E80FF11D60830895E0916701F09136
:202E80006801309711F009950895E0916F01F0917001E80FF11D808108950F931F93CF939A
:202EA000DF939091E904E92FF0E0A9E2B4E0EE0FFF1FEE0FFF1F8D010E0F1F1FE801888378
:202EC0006983AE0FBF1F12964C932B839F5F9093E9048091EA048F5F8093EA04DF91CF916A
:202EE0001F910F910895EF92FF920F93CF93DF939091E904E92FF0E0A9E2B4E0EE0FFF1F2D
:202F0000EE0FFF1F7D01EE0EFF1EE70188836983AE0FBF1F12964C932B839F5F9093E90442
:202F20008091EA04800F8093EA048091EC048F5F8093EC04DF91CF910F91FF90EF900895F5
:202F4000CF93DF9383B190E09695879596958795817020918B07220F282B20938B0783B13A
:202F600090E096958795817090913108990F982B90933108203829F4892F807F11F491E0E6
:202F800007C0903821F4207F11F49FEF01C090E083B1817030912F08330F382B30932F086E
:202FA000992391F021E0222F2295207F8091FA04E82FF0E0EE0FFF1FEA5AF74F20839183DA
:202FC0008F5F8F718093FA04189914C0CCC022E0222F2295207F9091FA04E92FF0E0EE0F34
:202FE000FF1FEA5AF74F20838FEF81839F5F9F719093FA043F37F1F48091F7049091F80451
:20300000815A9F4098F422E0222F2295207F9091FA04E92FF0E0EE0FFF1FEA5AF74F208372
:2030200081E081839F5F9F719093FA041092F8041092F7048091F604882309F466C0509107
:20304000960840915508A42FB0E0FD01EE0FFF1FE457F84F20813181CD0163E0880F991FF3
:203060006A95E1F7850FC82FD0E0FE01E451F84FE08180917A0086FDFCCF83C01092550847
:20308000852F8F5F80939608883011F41092960820915508822F877090910001892B809341
:2030A0007C0080917A00806480937A00222311F437E002C0322F3150832F90E0FC01EE0F77
:2030C000FF1FE457F84F40815181B4E056954795BA95E1F7FC01E351FB4F80818417A9F08B
:2030E000408320E0222F2295207F3F70232B8091FA04E82FF0E0EE0FFF1FEA5AF74F20832B
:2031000041838F5F8F718093FA0480913A088F5F80933A088091EB07882329F05B985A98AA
:203120001092EB0745C08091FC049091FB04891B8F7309F43DC081E08093EB078091FB04AF
:20314000E82FF0E0E456F84FE0818F5F8F738093FB04E4FD5A9A8BB1E295E07F8F70E82BAB
:20316000EBB95B9A25C08091F7049091F80401969093F8048093F704815A9F4008F027CF3C
:2031800039CF80917900C451D84F8883AA0FBB1FA457B84F280F311D2E1B31092D933C932A
:2031A000842F8F5F80935508883009F071CF66CFDF91CF9108959091EB043091E9042091FC
:2031C000EC0480E002C0921B8F5F9317E0F70895FC016F3F11F460E205C0693010F46F5C05
:2031E00001C0685060830895FC01862F82958F708A3010F4805D01C0895A80836F706A3053
:2032000010F4605D01C0695A618308959C01462F862F6CE00E94B13B990F62EA74E1FB0102
:20322000E90FF11DE491D901ED939F5F690F711DFB018491F9018183842F6CE00E94B13B19
:20324000EBEBF4E1E80FF11DE4911196EC93089538E020E0239FD0011124A45BB74FE1EAD6
:20326000F1E002C08D9331968081882321F091E0E93AF907B9F708951F93CF93DF939C0113
:20328000162FEA016623C1F1009729F4FA0180E3819361502FC097FF06C08DE289931150B5
:2032A000309521953F4F40E0E42FF0E0E35CF74FC9016AE070E00E94DE3B80834F5FC901E3
:2032C0006AE070E00E94DE3B9B016115710561F7642FDE0108C04150E42FF0E0E35CF74F86
:2032E0008081805D8D934423B1F7FE01E60FF11D161B612F61111082DF91CF911F910895DD
:203300001F93382F162F662361F1882329F4FA0180E38193615023C020E0E22FF0E0EA5C7F
:20332000F74F832F6AE00E94B13B90832F5F832F0E94B13B382F882381F7622FDA0108C01E
:203340002150E22FF0E0EA5CF74F8081805D8D932223B1F7FA01E60FF11D161B612F611173
:2033600010821F9108951F93CF93DF93282F162FDA01662399F1882329F4FA0180E3819324
:2033800061502AC087FF04C08DE28D931150219530E0E32FF0E0E352F84F822F6AE00E9497
:2033A000BD3B90833F5F822F6AE00E94BD3B282F882379F7632FED0108C03150E32FF0E0B2
:2033C000E352F84F8081805D89933323B1F7FD01E60FF11D161B612F61111082DF91CF91E3
:2033E0001F910895982F84FD5A9A8BB19295907F8F70892B8BB95B9A88E893E10197F1F782
:203400005B985A9888E99AE30197F1F708951F93182F82958F700E94F219812F8F700E94AF
:20342000F2191F910895282F8091FB049091FC048150891B8F73823010F480E00895909161
:20344000FC04E92FF0E0E456F84F822F82958F70806180832F70206121839E5F9F73909362
:20346000FC0408951F938091E2072091E3073091E4074091E5076091E607E091E707A09191
:20348000E8071091E907B82FBF5F91E0B81708F090E0F92FF20F81E0F21708F080E0782F6D
:2034A000730F81E0731708F080E0582F540F81E0541708F080E0382F360F81E0361708F0E7
:2034C00080E0282F2E0F81E02E1708F080E0982F9A0F81E09A1708F080E0810FB093E20764
:2034E000F093E3077093E4075093E5073093E6072093E7079093E8078093E9071F910895EF
:2035000081EA91E060E270E048E050E00E94563B08950F931F9322982A9A8FEF80938B0720
:203520002198299A809331082098289A80932F0880917A00876080937A0080917A0080688D
:2035400080937A0080910001807C8062809300011092550880937C0080917A0080648093CA
:203560007A001092960880E4ECEEF7E0DF011D928A95E9F780E1ECE8F7E0DF011D928A9534
:20358000E9F7529A539A8AB1806F8AB95A985B9888EE93E0E4EFF1E03197F1F70197D1F783
:2035A00083E00E94F21900E117E2C8010197F1F783E00E94F219C8010197F1F783E00E947A
:2035C000F219C8010197F1F782E00E94F21980E20E94071A8CE00E94071A86E00E94071A0B
:2035E00081E00E94071A82E00E94071A1092EB078CE498E060E270E048E050E00E94563BE9
:2036000084E498E06FE370E048E050E00E94563B1092EA0710923B0810923C088FEF8093AE
:203620002D088093300810922E081092F6041092E9041092EA041092EC041092EB041092B2
:20364000F5041092F8041092F7041F910F9108959B01E82FF0E0EE0FFF1FE757FF4F659129
:203660007491C90150E00E943A3B089561EA71E048E00E94281B81EA91E068E00E947D0E9D
:2036800038E020E0239FD0011124A45BB74FE1EAF1E002C08D9331968081882321F091E0D2
:2036A000E93AF907B9F70895DF92EF92FF920F931F93E82EF62E142FD22E81EA91E060E228
:2036C00070E048E050E00E94563B85E0E816B1F483E68093A10188E68093A2019FEFF91628
:2036E00011F480E208C088E08F1518F08F2D8F5C02C08F2D88508093A30106C08E2D61EA07
:2037000071E043E00E94281B81EA91E063E00E947D0E8091A301803294F48091A2018032AF
:2037200071F48F2D90E0019662E041EA51E00E943C1981EA91E062E040E30E944D0E12304C
:2037400041F1133028F4112341F0113041F518C0133019F0143019F50CC08D2D63E045EA8E
:2037600051E00E948019DD2009F51330F9F489E218C08D2D63E045EA51E00E94B31916C0CE
:203780008D2D90E0019663E045EA51E00E943C190DC085EA91E06D2D0E94061907C08D2D45
:2037A000810F65EA71E043E00E94281B85EA91E063E00E947D0E002331F08BE58093A40115
:2037C0008DE58093A80138E020E0239FD0011124A45BB74FE1EAF1E002C08D933196808190
:2037E000882321F091E0E93AF907B9F71F910F91FF90EF90DF900895EF92FF920F931F93F9
:20380000CF93DF9310E0F1C00E94810E609332087093330880933408909335088091EB04E8
:203820002091E9049091EC0401C0891B821720F0222311F09923C9F7C82FD0E08091F90454
:20384000E82FF0E0EE0FFF1FEA5AF74F2081F1808F5F8F718093F904822F82958F70813054
:2038600009F080C0E0915B01F0915C01309729F08F2D0995882309F0B7C08091F50488235A
:2038800009F44BC08E01000F111F000F111F075D1B4FF8018181EF2CFF24E7FCF094CC0FCA
:2038A000DD1F8430E1F48091EB040E943D17282F332727FD30952E0D3F1DCC0FDD1FC55D63
:2038C000DB4F8881682F772767FD7095F801838126173707ECF0992787FD909514C0809175
:2038E000EB040E943D179701280F311DCC0FDD1FC55DDB4F8881682F70E0F8018381261779
:20390000370734F090E0B901821793070CF4BC018091EB040E942D1767C01091EB0490916D
:20392000EB049F0D9093EB049F3F19F41092EB0407C08091EA04981718F081508093EB040E
:203940008091EB04E0916901F0916A01309709F44BC00995813009F447C0823001F7109331
:20396000EB0442C08230A1F5F1E0FF1669F5E0915D01F0915E01309719F009958823A1F56C
:20398000CC0FDD1FCC0FDD1FC75DDB4F89818B3269F41091EB04812F0E943D1760E08823E6
:2039A00009F461E0812F0E942D1708C08091F50491E089278093F5048823B1F48091EB04E4
:2039C00090E00E948A0F10C080E00E947B0F0CC0882351F4E0915F01F0916001309721F099
:2039E000822F8F706F2D099511E08091FA049091F904891B8F7109F007CF0E94810E20916A
:203A0000320830913308621B730B6333710590F00E94810E609332087093330880933408FE
:203A200090933508E0916301F0916401309721F0099502C0112369F1E0916101F0916201EE
:203A4000309719F00995882321F58091EB042091E9049091EC04E82FFF2402C0E91BF39401
:203A6000E21720F0222311F09923C1F7F0E0EE0FFF1FEE0FFF1FE75DFB4F108101810E943A
:203A80003D17282F812F6F2D402F0091F5040E94541B8091FB049091FC048150891B8F737D
:203AA000843008F494C090913A088091DC07981738F480912E088F5F80932E0810920A079F
:203AC00080913A088093DC079091EA0780913008981739F480912E0881FF03C010912F010B
:203AE00017C020910A07222371F0992311F0973051F4E92FF0E0E45BF74F8081803219F491
:203B0000122F115005C0E92FF0E0E45BF74F1081292F30E0F901EC5BF74F80811817F1F13F
:203B200080912D0890E001962817390721F480913C08882339F520913B0830913C0880916C
:203B4000FB049091FC048150891B8F738230D0F02295220F220F207C3068232B3091FC0400
:203B6000E32FF0E0E456F84F822F90E0A4E095958795AA95E1F780832F7021833E5F3F734B
:203B80003093FC04812F0E94131A8091EA07E82FF0E0EC5BF74F108380932D0890913C082D
:203BA0009F5F90933C088091EA078F5F8093EA07983069F410923C0880913B088F5F80934C
:203BC0003B08813021F410923B081092EA07CDB7DEB7E6E00C94563CA9E3B5E093E12C9101
:203BE000281741F0E92FFF27E7FDF095EA5DFA4F20839150119725E0A532B20781F711963E
:203C00008C9308951F93382F20912505EDEFF4E01FEF90E006C08081831709F4192F9F5F22
:203C200032969217C0F31F3F51F0E12FF0E0EE0FFF1FE350FB4F1182812F0E94EC1D812FAB
:203C40001F9108951F93382F20912505222311F41FEF41C0ADEFB4E0E0E005C08C91129650
:203C6000831721F0EF5FE217C8F302C0EF3FB1F4A6E2B5E09FEF1C91121740F4E12FF0E06D
:203C8000EE0FFF1FE350FB4F81818111192F119685E0AA33B80719F0912FEDCF1E2F1F3FD8
:203CA00071F4E6E2F5E08081821708F0812F319695E0EA33F90711F0182FF5CF182FE12F04
:203CC000F0E0EE0FFF1FE350FB4F308381E08183812F0E94EC1D812F1F910895089588E205
:203CE000EDEFF4E0DF011D928A95E9F7E6E2F5E083E181938150E8F7089580913A058093C1
:203D00003B05882319F481E080933B0508951F9310913B05180F10933B05112311F481E023
:203D20000CC00E94EB0E212F30E090E00296821793072CF40E94EB0E8E5F80933B0581E025
:203D40001F9108951F930E94801A10913B050E94EB0E181740F010913B050E94EB0E195E5A
:203D6000181BE12F07C080913B050E947B0F80917301E82FF0E0EE0FFF1FE757FF4F6591B3
:203D8000749181EA91E048E050E00E943A3B80E00E947B0F81EA91E068E00E94370E0E949A
:203DA000281981E01F9108950F931F9310913B050E94EB0E181789F400E00DC0802F806854
:203DC000612F40E00E941E0F1F5F1038B9F70F5F003109F43FC010E0F1CF00913B0510E0E2
:203DE0000E94EB0E90E001960817190731F480E090E060E00E948A1520C000913B0510E0CB
:203E00000E94EB0E90E002960817190791F411E006C0812F0E947B0F0E94CA0F1F5F0E940D
:203E2000EB0E1817B0F380E00E947B0F10923A0504C080913B0580933A050E94BB0F2CE06B
:203E400088E190E00FB6F894A895809360000FBE2093600081E01F910F9108950E94B90EF1
:203E6000089580913D05813011F480933C05089580914D05813029F410924E0510924F058F
:203E8000089580917703815080934F0580914305815080934E05089581E080933C0581E07F
:203EA00090E090934C0580934B058091480581508093490580914205813011F081E001C0FF
:203EC0008FEF80934D05109251050E94381F089580913D05813011F40E944C1F08951F930C
:203EE00010917703609142056330D9F52091010130910201C90181709070909581959F4FB3
:203F00008070947B36952795822793279093020180930101792F72957F7080914305482F0F
:203F200050E0682F6195292F2F70322F260F832F992787FD909584179507BCF730934E051C
:203F4000612F6195472F542F460F252F332727FD3095812F90E028173907ACF750934F057D
:203F60003CC050914D0540914F05450F40934F05242F332727FD3095812F90E0281739073D
:203F80001CF010924F0506C047FF27C0115010934F051F5F40914E05450F40934E05242F65
:203FA000332727FD30958091430590E02817390714F447FF12C0623071F4519550934D0544
:203FC0000E94381F123008F08BCF80914305823008F086CF02C00E94381F1F9108950F9352
:203FE0001F93182F062FE82FF0E0E35CFA4F6083843040F480913E0560913F0540914005BA
:204000000E94DB0FE0914505F0E0E858FF4FE491E0934805153061F480914205813011F022
:2040200081E001C08FEF80934D050E94381F08C01A3031F4002321F40E94EC141092510579
:204040001F910F9108951F93142F90914105891761F4603451F480915005882321F04423C0
:2040600011F40E94EC14109350051F91089580913D05813031F410923C05809141050E944F
:20408000690F08950F931F93809149058F5F8093490580917703882311F010924A058091D0
:2040A0004A058F5F80934A05803680F080E680934A0580913D05882349F410923C058CEFDA
:2040C0000E94B90E809141050E94690F809141050E94350F9091490580914805981708F451
:2040E0006FC01092490580914405E82FF0E0EE0FFF1FEB58FD4F8591949120914B053091B9
:204100004C0582239323892B11F490E001C09FEF80917703882309F441C0992309F43EC090
:20412000E0914F05F0E0E455FC4F808190E0FC01EE0FFF1FE80FF91FE858FC4F1081018130
:2041400080914E052CE08202C0011124180F01C01C5017FDFDCF812F60E00E946B10882389
:2041600039F0809141058068612F40E00E941E0F809141058069612F402F0E941E0FE091D9
:204180004605F0E0E858FF4FE491E150812F60E04E2F20E00E94750F0E946F1F80914B05AC
:2041A00090914C05880F991F90934C0580934B05892B31F481E090E090934C0580934B05E6
:2041C0001F910F91089580913D05882349F480913C05882329F088EF0E94B90E0E944220BD
:2041E000089580913D05813031F480913C05882311F00E9442200895909141058917D9F486
:20420000809150058823B9F480914705882321F4862F0E941F1408958091AB0390E0FC0170
:20422000EE0FFF1FE80FF91FE858FC4F8081681711F41092510508950F931F93162F042FE3
:20424000909141058917D9F580913D05882331F580914A05803600F110927601109277012B
:20426000109278011092790110927B0110927A0181E080939C0110929D0110929E01809129
:204280007C0190917D019093A00180939F010E944C1F8AEF0E94B90E10924A05809147054E
:2042A000882349F080915105882329F40E94EC1481E080935105812F602F0E9477141F9163
:2042C0000F910895282FFB0190914105892F8068281771F0892F8069281751F0906B29174B
:2042E00019F48081803421F0822FBF010E94020F08958EE46CE440E021E00E944D1783E3DB
:2043000060E048E220EF0E944D1784E367E340E025E00E944D1785E360E040E02FE70E94C2
:204320004D1788E261E040E02FE00E944D178AE66BE640E023E00E944D178FE660E041E079
:2043400024E00E944D178AE461E040E025E10E944D1782E766E740E020E10E944D1780E734
:2043600066E740E020E10E944D1781E76BE240E021E00E944D1780913E0560913F05409193
:2043800040050E94DB0F88E0609145050E94EF1F109276011092770110927801109279018F
:2043A00010927B0110927A0181E080939C0110929D0110929E0180917C0190917D019093E0
:2043C000A00180939F0180E680934A0510923C051092500510925105089520915205309189
:2043E00053054091540550915505211531054105510561F410927601109277011092780155
:204400001092790110927B0110927A018091760190917701A0917801B09179018093560551
:2044200090935705A0935805B09359052F5F3F4F4F4F5F4F20935205309353054093540513
:204440005093550508951092520510925305109254051092550510925605109257051092FB
:204460005805109259051092760110927701109278011092790110927B0110927A0108959D
:20448000109252051092530510925405109255051092560510925705109258051092590538
:2044A0001092760110927701109278011092790110927B0110927A0108951092520510921F
:2044C0005305109254051092550510925605109257051092580510925905109276011092D8
:2044E0007701109278011092790110927B0110927A01089510925205109253051092540547
:20450000109255051092560510925705109258051092590510927601109277011092780157
:204520001092790110927B0110927A0181E00895A0E0B0E0EEE9F2E20C94363C6B017C0170
:20454000A42EE901442309F43FC0611571058105910529F4F90180E38193415033C0BB2443
:204560000B2D10E00956174FC701B6012AE030E040E050E00E94F13BF8016083B394C701AC
:20458000B6012AE030E040E050E00E94F13BC901DA016C017D01C114D104E104F10401F720
:2045A0004B2DDE0108C0BA94EB2DF0E0E956F74F8081805D8D93BB20B1F7FE01E40FF11DA0
:2045C000A41A4A2D41111082CDB7DEB7EAE00C94523C882379F090915A05980F90935A05F4
:2045E000913818F010925A0505C0933018F082E080935A0581E080935B050E94281981E06D
:20460000089510925A0581E080935B050E9428190895AF92BF92CF92DF92EF92FF920F9390
:204620001F9380915A05813011F082E601C082E48093A101A0905205B0905305C09054059A
:20464000D0905505A114B104C104D10429F00894A108B108C108D10860915605709157053A
:204660008091580590915905660F771F881F991F29E130E040E050E00E94F13BC901DA0106
:204680007C018D01E114F1040105110529F481E0E82EF12C012D112DC601B5012AE532E648
:2046A00042E050E00E94923BA80197010E94F13BCA01B90146E023EA31E00E94982283EA98
:2046C00091E066E00E947D0E8091A701803219F480E38093A701E2EAF1E08181819381E04C
:2046E000E73AF807D1F78EE280831F910F91FF90EF90DF90CF90BF90AF90089590915A0588
:20470000923008F04EC080915B05882311F4913021F50E9409230E94281980915A0588230D
:20472000E1F41092520510925305109254051092550510925605109257051092580510921E
:2047400059051092760110927701109278011092790110927B0110927A0180915A0588233B
:20476000E1F48091760190917701A0917801B091790181539547A040B04078F020E08091E5
:20478000520590915305A0915405B0915505C197A105B10518F021E001C020E020935B0593
:2047A00017C084E78093A1016091520570915305809154059091550547E022EA31E00E9496
:2047C000982282EA91E067E00E947D0E0E94281981E008951F93182F0E94B90E1F3FE1F458
:2047E0001092520510925305109254051092550510925605109257051092580510925905D5
:204800001092760110927701109278011092790110927B0110927A011F9108958823B1F456
:2048200080915C05482F50E080916005282F30E060916105421753073CF0862F90E09C018A
:20484000421753070CF49A01822F0895E82FF0E0E45AFA4F80810895A0915C05E82FF0E037
:20486000E45AFA4F608370915E057723A9F48091600587FF03C08FE780936005809161050F
:2048800087FF03C08FE78093610580915F0587FF03C08FE780935F0580915C05482F50E01C
:2048A00080916005282F30E060916105421753073CF0862F90E09C01421753070CF49A01D5
:2048C000922F20935C052A1799F140915F0580915D05772341F44F779F77806B642F492FEF
:2048E0000E941E0F0895441F4427441F806B63E60E941E0F80915D0540915F054F77806BBF
:2049000062E60E941E0F90915D05906B40E080915C0587FD41E0892F66E00E941E0F8091ED
:204920005D0540915C054F77806B66E20E941E0F08950E94020F08958DE360E040E02FE748
:204940000E944D1788E261E040E02FE00E944D178FE360E440E021E00E944D178EE360E0E3
:2049600040E02FEF0E944D1782E460E040E02FEF0E944D1783E460E040E02FEF0E944D171E
:204980000895DF92EF92FF920F931F93D82E062FF42EE22E80916305882311F010E025C03C
:2049A000862F8D29642F422F0E941E0F22C06F2D70E080916405681B7109E12FF0E0EC594F
:2049C000FA4F8081680F711D02C0645F7F4F77FDFCCF02C06C50704060387105DCF7802F38
:2049E0008D294E2D0E941E0F1F5F809163051817F0F21F910F91FF90EF90DF900895582FBE
:204A0000762FE42F20916205222331F030E090E001962817390721F48091F504882339F0D7
:204A2000852F806A672F4E2F0E941E0F089580EA652F472F2E2F0E94C1240895582F762F38
:204A4000E42F20916205222331F030E090E001962817390721F48091F504882339F0852F88
:204A60008068672F4E2F0E941E0F089580E8652F472F2E2F0E94C1240895582F762FA42FDD
:204A800020916205222331F030E090E0019628173907D9F48091F5048823F1F08091630526
:204AA000E82FF0E0EC59FA4F70838F5F809363058A3059F4E5E6F5E08181819385E0ED36E0
:204AC000F807D1F789E080936305852F8069672F4A2F0E941E0F089580E9652F472F2A2F47
:204AE0000E94C12408958091F504882319F41092630502C00E94BB0F80E00895982F907FC5
:204B0000903831F0903921F0903A11F00E94020F089588E263E040E020E10E944D17089546
:204B2000282F883F59F480916F058F5F80936F0590916E05891728F010926F05822F0E945B
:204B4000B90E089582E760E041E020E20E944D170895843009F481E0E82FF0E0E059FA4F07
:204B6000808108951092740580E008951F9380917005882301F510927601109277011092D1
:204B800078011092790110927B0110927A0111E010939C0110929D0110929E0180917C0105
:204BA00090917D019093A00180939F018AEF0E94B90E109370051F9108950E94B62508957E
:204BC0000E94B625089580917005882339F010929C018CEF0E94B90E1092700508950E94E8
:204BE000E325089588EF0E94B90E0895282F873F19F090E0803F09F491E0822F807F803F61
:204C000011F4992319F0822F0E94B90E08950F931F93182F062F882341F4613019F40E9423
:204C2000B62506C00E94E32503C0843009F411E0E12FF0E0E059FA4F008380917105609167
:204C40007205409173050E94DB0F1F910F910895EF92FF920F931F938091EB04843011F000
:204C600080E061C0209176013091770140917801509179011092760110927701109278015F
:204C80001092790110927B0110927A01609174056623C9F1203A86E8380781E0480780E0F9
:204CA000580788F5E0907505F09076050091770510917805E20EF31E041F151FE0927505C4
:204CC000F0927605009377051093780570E080E090E02CE836E847E450E00E94923BA801E3
:204CE00097010E94F13B283231051CF428E230E005C0213F310514F020EF30E081E0622F24
:204D00000E9407260AC01092740510927505109276051092770510927805809174058F5FF1
:204D20008093740581E01F910F91FF90EF90089582E36BE240E021E00E944D1783E360E00C
:204D400048E220EF0E944D1784E367E340E025E00E944D1785E360E040E02FE70E944D1754
:204D600086E360E048E220EF0E944D178091710560917205409173050E94DB0F1092700570
:204D80001092740508951F93142FB82FB07FB03F79F1F82FFF70E0917905FE1710F4A0E0D9
:204DA0000DC0A0E08F2F90E040917A052E2F30E0240F311D821793070CF4A1E04F2F50E0D8
:204DC000405F5F4F2E2F30E04217530714F490E009C090E080917A05280F311D42175307ED
:204DE0000CF491E09A2B11F0F0917B058F2F8B2B412F0E94020F1F9108958BE561E040E0C6
:204E00002FE00E944D178EE360E041E020E10E944D178CE561E040E02FE00E944D17089520
:204E2000462F90917C05EDE7F5E0E80FF11D892F806B60810E941E0F08950E94020F08956D
:204E40001F9381E08093F60488E261E040E02FE00E944D1713E5812F60E040E02FE70E9492
:204E60004D171F5F1B35B9F71F91089580918605813011F48093850508958091860581302A
:204E800011F480938505089580918605813011F41092850508950F931F93182F062FE82FD1
:204EA000F0E0EA57FA4F6083843078F48091870560918805409189050E94DB0F112329F43E
:204EC000002319F48AEF0E94B90EE0918D05F0E0EA5AF84EE491E09390051F910F910895F9
:204EE000DF92EF92FF920F931F93A82FD62EF42E442309F455C050918C05541B57FD50E000
:204F0000E0918B05F0E0E858FF4FE4910E2F10E060918F05762F770F40E00CC099277102C1
:204F2000C001700300249009810D901D1124080F191F4F5F242F30E0852F992787FD909593
:204F40002817390714F4662349F7209190053D2D329FE12C11248A2F60918E050E94121538
:204F6000101611061CF001E010E006C00F3F110519F014F00FEF10E06D2DD11061E09E2D6B
:204F8000E61608F4962FFA94692F402F2F2D0E94750F8091AA01823518F082E280930A073A
:204FA0001F910F91FF90EF90DF90089590918A05891731F4862F60E040918C050E94702782
:204FC000089590918A05891731F4862F642F40918C050E9470270895CF93DF93E0916D038A
:204FE00033C0CE2FD0E0FE01EE0FFF1FEE0FFF1FEC0FFD1FE555FE4F8281882339F5608181
:205000006E3FC1F0418180918A05442311F4806801C080690E941E0FFE01EE0FFF1FEE0FEC
:20502000FF1FEC0FFD1FE555FE4F8081618144810E947027FE01EE0FFF1FEE0FFF1FEC0FA3
:20504000FD1FE555FE4FE381EE2359F60E943410DF91CF91089580918605882329F488EFBB
:205060000E94B90E0E94EC27089580918605813031F480918505882311F00E94EC2708956A
:205080000E94020F08958EE46CE440E021E00E944D1783E360E048E220EF0E944D1784E38B
:2050A00067E340E025E00E944D1785E360E040E02FE70E944D1788E261E040E02FE00E941B
:2050C0004D1783E166E740E02CE00E944D1787E860E040E020E20E944D1782E661E040E0E9
:2050E0002FE00E944D1788E864E048EE28E10E944D1789E864E041EC2FE30E944D17809197
:20510000870560918805409189050E94DB0F85E060918B050E944B2710927601109277016D
:20512000109278011092790110927B0110927A0181E080939C0110929D0110929E0180915A
:205140007C0190917D019093A00180939F01109285050895CF93DF939C01EC01DC01E0E0F8
:205160008C91861729F0EF5F1296E032C9F703C0EF3F51F408C0E0E088818F3F29F0EF5F98
:205180002296E032C9F7E0E0F0E0EE0FFF1FE20FF31F60834183DF91CF910895EF92FF92B1
:2051A0000F931F93CF93DF93082FE22EEDEBF3E0C0E0D0E0F080F41651F4FE01EE0FFF1FAC
:2051C000E354FC4F91819F3FB9F410E010C021963296C032D10571F721C080919305810F27
:2051E0008F70802B6F2D4E2D0E941E0F1F5F80919405181790F30AC080919305980F9F701C
:20520000892F802B642F4E2D0E941E0F003831F4CC0FDD1FC354DC4F8FEF8883CDB7DEB736
:20522000E6E00C94563C982F362F242F80EA692F432F0E94CE280895FF920F931F93182F22
:20524000062FF42E862F0E94021E80E8612F402F2F2D0E94CE281F910F91FF900895FF9218
:205260000F931F93F82E162F042F80919205823039F1833030F4882351F0813009F04CC03F
:2052800017C08330D1F1843009F046C03AC0809195058F5F8093950590919405891710F075
:2052A000109295058DEB93E0612F4091950532C08091940580932505862F0E94221E1BC081
:2052C0002091010130910201C90181709070909581959F4F8070947B36952795822793278A
:2052E000909302018093010160919405892F90E070E00E94CA3B482F0AC08DEB93E04FEF60
:2053000009C0440F20919405429F412D11248DEB93E0612F0E94AA2880E96F2D412F202FF0
:205320000E94CE281F910F91FF900895FF920F931F93CF93DF93282FEB01F42E082F007F85
:20534000003F31F0982F9F7080919105981731F0822FBE014F2D0E94020F16C00038A1F062
:20536000003991F0003A81F010E00AC080919305810F8F70802BBE014F2D0E94020F1F5FBF
:2053800080919405181790F3CDB7DEB7E5E00C94573C109225050E946F1E8BE561E040E0D4
:2053A0002FE00E944D1789E465E640E024E00E944D178CE561E040E02FE00E944D178EE39E
:2053C00060E041E020E10E944D1710929505089580919805813011F48093960508958091CC
:2053E0009805813061F4809396051092BF0581E090E09093C1058093C0051092A10508957F
:20540000E82FF0E0E956FA4F6083853040F48091990560919A0540919B050E94DB0F089578
:205420000F931F93CF93DF93C3EAD5E00DE915E08881882349F080919C058068F801608196
:2054400040E00E941E0F188221960F5F1F4FF5E0C73ADF0769F7DF91CF911F910F91089557
:2054600080919805813011F4109296050E94102A0895EF92FF920F931F93082F10E0809174
:205480009C059DE9E92E95E0F92EE00EF11E8069F701608144E60E941E0F0D551A4FF701B7
:2054A0008081F80180831F910F91FF90EF900895A0E0B0E0EEE5FAE20C94383C8091960575
:2054C000882309F4BEC08091A1058F5F8093A1058091A2058F5F8093A205803670F080E66C
:2054E0008093A20580919805882339F4109296050E94102A8CEF0E94B90E8091A105863002
:2055000009F09BC01092A10580919705882309F03FC010E0C0E0D0E04C2FFE01E554FA4F63
:20552000E081EE2311F01092A205E10FF0E0EE0FFF1FEF55FD4F859194912091C0053091D2
:20554000C10582239323892B19F0842F0E94392A2196143211F0145FDFCF2091BF052F5F93
:205560002093BF058091C0059091C105880F991F9093C1058093C005203109F062C01092D9
:20558000BF0581E090E09093C1058093C00559C06FEAE62E65E0F62EC3EBD5E05BEAC52E2B
:2055A00055E0D52E00E010E0F801E955FA4FE081EE23C9F01092A205D6018C912CE0829FCE
:2055C000C0011124E80FF0E0EE0FFF1FEF53FC4F859194912881398182239323892B19F0B0
:2055E000802F0E94392AF70120812F5F208388819981880F991F99838883D601EC91F0E070
:20560000E251F84EE49130E08E2F90E02817390731F4F701108281E090E0998388830F5FCB
:205620001F4F0894E11CF11C22960894C11CD11C0430110509F0B8CF04C0833011F40E9450
:20564000102ACDB7DEB7E8E00C94543C80919805813031F480919605882311F00E94582AFF
:20566000089580919805882349F480919605882329F088EF0E94B90E0E94582A08959091C5
:205680009C05891719F4862F0E941F1408950F931F93162F042F90919C05891709F09EC010
:2056A00080919805882381F58091A205803650F11092760110927701109278011092790102
:2056C00010927B0110927A0181E080939C0110929D0110929E0120917C0130917D013093CD
:2056E000A00120939F011092BF0521E030E03093C1052093C0051092A105809396058AEFCF
:205700000E94B90E1092A205812F602F0E94771480919705882319F010E00FEF5BC010E011
:205720001FC0E12FF0E0E455FC4F808190E0FC01EE0FFF1FE80FF91FE858FC4F80810E9460
:205740000C15873010F083E005C0843010F480E001C08350E82FF0E0E554FA4F90831F5FA3
:20576000809177031817E8F239C0E12FF0E0E455FC4F808190E0FC01EE0FFF1FE80FF91FA0
:20578000E858FC4F80810E940C15282F873010F0E3E006C0843010F4E0E002C0E82FE3509F
:2057A000AE2FB0E0201721F4A555BA4F9C9310C0FD01E955FA4F9083FD01E155FA4F108287
:2057C000AA0FBB1FAD54BA4F81E090E08D939C931F5F022F80917703181738F21F910F9129
:2057E0000895282F90919C05892F8068281731F09069291719F0822F0E94020F08951F93FE
:2058000089E46AE440E021E00E944D178EE46CE440E021E00E944D1783E360E048E220EFDE
:205820000E944D1784E367E340E025E00E944D1785E360E040E02FE70E944D1788E261E0F7
:2058400040E02FE00E944D171FE4812F62E044E12CE60E944D171F5F1335B9F780919905BC
:2058600060919A0540919B050E94DB0F1092760110927701109278011092790110927B0113
:2058800010927A0181E080939C0110929D0110929E0180917C0190917D019093A001809355
:2058A0009F011092BB051092BC051092BD051092BE0520E030E0F901E955FA4F1082F9019D
:2058C000E555FA4F8BE080832F5F3F4F2430310591F780E68093A205109296051F910895FF
:2058E0002091010130910201C90181709070909581959F4F8070947B369527958227932764
:205900009093020180930101892F08951092D3051092D2058FEF8093C9058091D60588230E
:2059200011F01092D5051092D60508951092D70580E008958091D705882309F468C00E94F6
:20594000801A8091D4058823F9F08091D6059091D505882361F0913011F487E405C099308D
:2059600011F486E401C088E40E94361B4DC084E78093A10182E78093A20189E78093A30125
:205980009F5C9093A60140C06091C7057091C8056115710529F464E670E080E090E012C072
:2059A0008091C5059091C60524E630E0AC01429FC001439F900D529F900D11240E94CA3BCE
:2059C00080E090E043E021EA31E00E94982281EA91E063E00E947D0E85E28093A4018CE77E
:2059E0008093A6018091C7059091C805E0E003C0EF5F969587950097D9F7F0E0EF5BF74E44
:205A0000E491E05DE093A8010E94281981E008958091C4058130C9F41092C4058093D70535
:205A20001092C6051092C5051092C8051092C70583E290E060E070E00E94780F85E290E04B
:205A400060E070E00E94780F02C01092D70580E008950F931F93CF93DF930E94702C182FA3
:205A60001F700E94702C8770E091C205EE0FEE0FEE0FE80FF0E0EF5AF74EE4911E0F109399
:205A8000CA05CBECD5E00E94702C8F709091C2059295907F980FE92FF0E0E758F74E0491C8
:205AA0000E94702C8370E091C205EE0FEE0FE80FF0E0E753F74EE491E09FE02D1124E10F17
:205AC000E99385E0CE3CD807F1F681E08093D6052091D505222301F16091C5057091C6057D
:205AE0006F5F7F4F7093C6056093C5058091C7059091C805820F911D9093C8058093C705A6
:205B000083E290E00E94780F6091C7057091C80585E290E00E94780FDF91CF911F910F91DC
:205B200008958091D2059091C305891780F5E82FF0E0E253FA4F6083482F4F5F4093D205CB
:205B4000491729F520E030E00EC0F901E253FA4F9081F901E653FA4F80812F5F3F4F981718
:205B600011F020E003C0241780F321E09091D5059F5F9093D50581E08093D705222311F422
:205B8000993011F40E94292D88E08093D4050895E091D3059091C305E91708F58091C90540
:205BA0008F5F83708093C905882349F4F0E0E653FA4F80E9608144E60E941E0F0895823057
:205BC000D9F4F0E0E653FA4F80E8608140E00E941E0F8091D3058F5F8093D30508958091FE
:205BE000D205891749F48091D40581508093D405882311F40E94862C08950E94020F8091E5
:205C0000D805882359F48091760190917701909302018093010181E08093D805089584E4FD
:205C200061E040E024E00E944D178EE360E042E024E00E944D1785E46DE240E021E00E94A1
:205C40004D170E94292D82E860E040E00E94DB0F1092760110927701109278011092790128
:205C600010927B0110927A0181E080939C0110929D0110929E0180917C0190917D01909307
:205C8000A00180939F010E94862C1092D8051092C4050895982F807F803F21F4892F0E94E1
:205CA000020F0895E92FF0E0EF70F070E752FA4F8081882319F0892F0E94020F0895FF92BF
:205CC0000F931F9384E00E94F21988E00E94F219FF2412C00F2D10E00357184FF8010491DA
:205CE000802F82958F7080610E94F2190F70802F80610E94F219F394F8E3FF1659F785E069
:205D00006BE240E021E000E10E9473171F910F91FF900895CF93DF93EC01722FE62FF0E045
:205D2000CF01807F9070803F910581F494E0F595E7959A95E1F7389781E090E002C0880F50
:205D4000991FEA95E2F79A8198233EC06F70A1E0B0E09D0102C0220F331F6A95E2F78881AB
:205D6000822381F184E0F595E7958A95E1F7389702C0AA0FBB1FEA95E2F78A818A2311F175
:205D800050E08B81992787FD909548175907D4F08C81992787FD9095841795079CF0472F2C
:205DA00050E08D81992787FD90954817590754F030E08E81992787FD9095841795071CF06E
:205DC00031E001C030E0932F892FDF91CF910895A2E0B0E0EEEEFEE20C942F3C982E5B01FF
:205DE000342EF0EF6F2EF5E07F2E7301DD24CC2400E010E025010894411C511CC801E4E0F5
:205E0000880F991FEA95E1F787519A4F692DF501408121810E948A2E8823A1F0DD2011F098
:205E200091E005C0F7019081991F9927991FCC2011F081E006C0F701808182958695869599
:205E400081706C010F5F1F4F20E130E0E20EF31E0430110579F6DD2009F010C1CC2029F071
:205E6000892DB501432D0E94020FCC24DD24C60174E0880F991F7A95E1F787519A4F692DFA
:205E8000F5014081F20120810E948A2E882309F4E4C0F301808184FF02C0982F02C0992D88
:205EA000980F9F7085FF03C060EB962E02C0F0EF9F22992AD60154E0AA0FBB1F5A95E1F74C
:205EC000AD50BA4F7E010894E11CF11C00E010E012967C91129711966C9111978C9085FC80
:205EE00002C0F80104C0E1E0F0E0E01BF10BEA0DFB1DE0814E2F50E0882D90E08F7090705A
:205F00008430910561F18530910554F482309105C1F083309105E4F4019709F077C00AC0A6
:205F20008630910509F186309105B4F1079709F06DC04CC0862F992787FD9095480F591F6D
:205F400065C0862F992787FD9095481B590B5EC08FE790E09C01241B350BA90157C0462FE1
:205F6000552747FD509552C02091010130910201C90181709070909581959F4F8070947B10
:205F800036952795822793279093020180930101492F50E04F775070242F220F67175CF45C
:205FA000761B279F812D1124462F552747FD5095480F511D2BC0671B269F812D1124472F3D
:205FC000552747FD5095481B510920C080910101909102019C0121703070309521953F4F71
:205FE0002070347B96958795282739273093020120930101761B379F212D1124862F992792
:2060000087FD9095480F591F420F511D87FE04C0EE2311F440E050E086FE03C0842F8F779A
:206020000AC0CA014038510514F08FE790E097FF02C080E090E0F70180830F5F1F4F13966B
:206040000894E11CF11C0230110509F041CF8981F50180838A81F20180830894C11CD11CDF
:2060600020E130E0620E731E34E0C316D10409F0FECE892DB501432D0E94020F2296E1E17E
:206080000C944B3C6093290670E0A6E0660F771FAA95E1F760587D4F89EE95E040E450E0FB
:2060A0000E945D3B089585EF61E040E023E00E944D1780E4E9EEF5E0DF011D928A95E9F78D
:2060C000089580912B06813011F480932A060895A0E0B0E0EEE6F0E30C94393C809159060F
:2060E0008F5F8093590690915A06891708F481C010925906C1E3D6E009E416E051E5E52E5B
:2061000056E0F52E3B81F801408151813131F1F4F701808191814817590710F041E02DC0BF
:206120002091010130910201C90181709070909581959F4F8070947B36952795822793271B
:206140009093020180930101D92E16C021E8329F900111242B51384F56954795F901E50FCF
:20616000F11D842FD5901590819DF00180958D9DE00DF11D1124DF2E40E0F801808191819D
:20618000F70120813181820F931FF801918380832981222311F1442301F530E0220F331F80
:2061A0004D2D40582402212D1124332727FD30958A81280F311D2038310514F02FE730E099
:2061C00080913006806B68816F7737FF02C020E030E0422F4F770E941E0F26960E5F1F4F19
:2061E00082E090E0E80EF91E96E0C934D90709F089CFCDB7DEB7E7E00C94553C80912B06C9
:20620000813031F480912A06882311F00E946830089580912A068823F9F480912B0688231E
:2062200019F48AEF0E94B90E80915A0681508093590681E080932A0610924A061092490634
:2062400010924C0610924B0610924E0610924D061092500610924F06089580912B068130ED
:2062600011F40E940931089580912A06882349F080912B06882319F48CEF0E94B90E1092FB
:206280002A06089580912B06813011F40E943431089580912B06882349F480912A0688237F
:2062A00029F088EF0E94B90E0E946830089590913006891719F4862F0E941F1408959091C2
:2062C00030068917D1F490917703E6E3F6E0A9E4B6E08081813021F0823029F4992319F46B
:2062E00011961C921E923696129686E0EE34F80781F7862F642F0E94771408950F931F93C0
:20630000CF93DF93182F062F882339F4613019F40E94093102C00E943431E12FF0E0E65DEF
:20632000F94F0083153040F480912C0660912D0640912E060E94DB0FE0912F06F0E0E8586B
:20634000FF4FE491E0935A062E2F30E0A5E3B6E0C1E5D6E08C91E82FF0E0EE0FFF1FEF5D55
:20636000F84F85919491AC01429FC001439F900D529F900D112489939993169656E0AD34FF
:20638000B50741F7DF91CF911F910F9108950E94020F08951F9382E36BE240E021E00E94D5
:2063A0004D178EE46CE440E021E00E944D1783E360E048E220EF0E944D1784E367E340E0DA
:2063C00025E00E944D1785E360E040E02FE70E944D1781EF66E740E020E10E944D1788E280
:2063E00061E040E02FE00E944D1713E5812F60E040E02FE70E944D17812F885864E041EC02
:206400002FE30E944D17812F845860E040E02FE70E944D17812F80586FED40E021E10E94B4
:206420004D17812F8C5764E740E022E10E944D17812F885762EF40E022E00E944D171F5F6B
:206440001735A1F680912C0660912D0640912E060E94DB0F82E060912C060E947E311092E9
:20646000760110927701109278011092790110927B0110927A0181E080939C0110929D01C8
:2064800010929E0180917C0190917D019093A00180939F0110922A061F910895982F809120
:2064A000F504882311F040E00DC020915B06222341F040E0892F90E0019630E082179307A0
:2064C00009F441E0842F089590E08091F504882309F491E0892F089580915C068C3348F4F8
:2064E0008F5F80935C068C3321F40E94801A0E94281908950E94801A0E94281980E008958D
:206500008091F504882329F48AE28093A2010E94281908958091F504882329F485EA8093B3
:20652000A2010E9428190895EF92FF920F931F93F82EE62E0E94801A01EA11E0C8016F2D1B
:206540000E94E8188CE68093A3018FE68093A40183E68093A501C80106966E2D0E94F41873
:206560000E9428191F910F91FF90EF900895DF92EF92FF920F931F93F82ED62EE72E0E9485
:20658000801A01EA11E0C8016F2D0E94E81882E68093A301C80104966E2D0E94F418C801EA
:2065A00006966D2D0E94F4180E9428191F910F91FF90EF90DF900895EF92FF920F931F9344
:2065C000F82EE62E0E94801A01EA11E0C8016F2D0E94E81880E78093A30187E68093A4011F
:2065E0008DE68093A501C80106966E2D0E94F4180E9428191F910F91FF90EF900895EF9262
:20660000FF920F931F93F82EE62E0E94801A01EA11E0C8016F2D0E94E81881E68093A3011E
:2066200086E68093A40184E78093A501C80106966E2D0E94F4180E9428191F910F91FF90A2
:20664000EF9008950F931F93182F062F8091F5048823E1F40E94801A81EA91E0612F0E947A
:20666000E818E02FF0E0EE0FFF1FE757FF4F6591749183EA91E046E050E00E943A3B83EAE1
:2066800091E066E00E947D0E0E9428191F910F9108951F93182F8E3F39F0883F61F010929D
:2066A0005C068F3F41F403C00E94803204C08FEF67E20E942233812F0E94B90E1F91089576
:2066C0008FEF65E20E94223308958FEF66E20E94223308958FEF64E20E9422330895803FF0
:2066E00019F48FEF61E207C0873F19F48FEF63E202C08FEF62E20E942233089560E20E9473
:20670000223308956EE10E94223308956DE10E94223308956CE10E94223308956BE10E94F3
:20672000223308956AE10E9422330895FF920F931F93182F062FF42E862F90E0FC01E857A4
:20674000F040E830F10530F5EC5CFF4F0C94653C812F0E94923334C0812F0E948E3330C0F1
:20676000812F642F0E9494322BC0812F0E948A3327C0812F0E94863323C0812F0E94823398
:206780001FC0812F6FE10E9422331AC0812F0E947E3316C00E94801A81EA91E0612F0E9426
:2067A000E81883E28093A30184EA91E0602F0E94F41887EA91E06F2D0E94F4180E94281992
:2067C0001F910F91FF900895DF92EF92FF920F931F93F82EE62ED42E0E94801A01EA11E012
:2067E000C8016F2D0E94E818C80102966E2D0E94061981E68093A701C80107966D2D0E9411
:20680000F4180E9428191F910F91FF90EF90DF900895EF92FF920F931F93F82EE62E0E94DD
:20682000801A01EA11E0C8016F2D0E94E818C80102966E2D0E9406198DE28093A7018093E1
:20684000A8010E9428191F910F91FF90EF900895DF92EF92FF920F931F93F82EE62ED42E9E
:206860000E94801A01EA11E0C8016F2D0E94E818C80102966E2D0E940619C80106966D2D3D
:206880000E94F4180E9428191F910F91FF90EF90DF900895FF920F931F9384E00E94F21907
:2068A00088E00E94F219FF2412C00F2D10E00357184FF8010491802F82958F7080610E940B
:2068C000F2190F70802F80610E94F219F394F8E3FF1659F70E94801A88E263E040E020E120
:2068E0000E944D171F910F91FF9008951F93182F0E94702C90E020915E0630E0220F331FC7
:206900008217930714F080E002C0812F880F1F9108951F93CF93DF93182F522F20915D0628
:20692000222371F030E0862F90E001962817390739F0862F812B642F452F0E941E0F1EC028
