:200000000C94940D0C94BC0D0C94BC0D0C94BC0D0C94BC0D0C94BC0D0C94BC0D0C94BC0DC0
:200020000C94BC0D0C94F7120C94BC0D0C94B5100C94BC0D0C94BC0D0C94BC0D0C94BC0D3C
:200040000C94BC0D0C94BC0D0C94BC0D0C94BC0D0C94BC0D0C94BC0D0C94BC0D0C94BC0D58
:200060000C942C0E0C94BC0DCE31D231D631DB31DF31E331E731EC31C09060484030242023
:2000800018100C08060403020186108F109710A010A910B110BA10C010C810D110DA10E3EE
:2000A00010EC10F210FB1003110C1115111E1124112A1133113A1142114B1154115C1165BC
:2000C000116C1173117A11811188118F1196119D11A411AB11B111B611BC11C211C611CA28
:2000E00011CF11D311D811DC11E011E311E611EA11EE11CF11F211F611FA11FE1102120661
:20010000120A120E12121216121A121E12221226122A122E12321236123A123E1242124B3A
:200120001254125D126112651269126D127112751279127D128112851289128D1291129534
:200140001299129D12A112A512A912AD12B112B512FE11B912BD12C112C512C912CD12D1E7
:2001600012D512BD12D912DD12E012E412D112E812EC12F012F412F812FC120013041308C8
:20018000130C131013141318131C132013241328132C133013341338133C1340134413488F
:2001A000134C135013541359135D136113D112651369136D137113751379137D138113851B
:2001C0001389138D139113951399139D13A113A513A913AD13B113B513B913BD13C113C57F
:2001E00013C913CD13D113D513D913DB13DE13E013E313E513E713EA13EC13EF13F113F4C8
:2002000013D913F613DE13F913E313E513FC13EA13FF13EF130214F413051409140A140E4C
:200220001410141214141416141A141E14221426142A142E14321436143A143E14421446F2
:20024000144A144E14521456145A145E14621466146A146E14721476147A147E14821486DE
:20026000148A148E14921496149A149E14A214A614AA14AE14B114B414B714BA14BE14B9D9
:2002800012C214C6145555F5F5B5B5D5D555AB55599595090949924952494919D56B6B5BE3
:2002A0005B7777B76D57576F6FDF7611A9C16F01D10000114911114949010501014952057E
:2002C000014129410441A44141000092401010101250109090901210120C491040104810A2
:2002E000900000494911115C5C555544441F5F4545D5D577774264FFFF00004848015500A6
:200300004910F084A448101141491455555858A5627F007F0081FF81FF7F007F0081FF8107
:20032000FF7F007F0081FF81FF7F007F0081FF81FF7F0081FF7F0081FF7F0081FF7F0081C5
:20034000FF7F0081FF7F0081FF7F0081FF7F0081FFC1FFC1FF7F00000081FF0000000058CB
:2003600000000000005800CEFFA8FF00005800000013002C005D00FCFF2000CBFFA6FF81B2
:20038000FF750020009AFFCBFF6900CBFF5D00CBFF58009BFF6B00A1FF5800A8FF3200DA04
:2003A000FF4100A8FF6500A1FF650081FF3F00E1FF4600ACFF540090FF54009EFF70009E7A
:2003C000FF3600BAFF7F00ACFF7F0090FF5400ACFF00000100030007000F003F007F00FF21
:2003E00000FF03FF0FFF3FFFFF00000100030007000F003F007F00FF00FF03FF0FFF3FFF8D
:20040000FF00000100030007000F003F007F00FF00FF03FF0FFF3FFFFF00000100050007AD
:20042000000F003F007F00FF00FF03FF0FFF3FFFFF0000010005000D000F003F007F00FFC5
:2004400000FF03FF0FFF3FFFFF00000100090015002D003F007F00FF00FF03FF0FFF3FFFFA
:20046000FF00000100110029002D007D007F00FF00FF03FF0FFF3FFFFF0000010011002993
:20048000005500DD00FD00FF00FF03FF0FFF3FFFFF00000100210091002901AD01DD02BDBB
:2004A00003FF03FF0FFF3FFFFF000001004100110149025505AD066D0B7D0FFF0FFF3FFFF2
:2004C000FF00000100810021029108A9145515AD16DD2EFD3EFF3FFFFF000001000101412F
:2004E0000811112929A9525555ADADDDDDFDFDFFFF000001000200030004000500060007B3
:2005000000080009000A000B00000000000200020004000500050007000700090009000B78
:200520000000000000020003000300050005000700070009000A000A000000010001000379
:20054000000300050005000700080008000A000A000000000002000200040004000600074A
:20056000000700090009000B0000000000020002000400050005000700070009000A000A1A
:200580000000000000020003000300050005000700080008000A000A000000010001000319
:2005A000000300050006000600080008000A000A00000000000300030004000400070007E7
:2005C00000070009000A000A000000000003000300030005000600070007000A000A000AB7
:2005E0000000000000020002000400040007000700070009000900090000000000030003B9
:2006000000030005000500070007000A000A000A0000000100010004000400050005000786
:2006200000080008000B000B0000000100010004000400040006000700080008000B000B53
:20064000000000010001000300030005000500070007000A000A000B000000010001000356
:20066000000300060006000700080008000B000B0000000000020002000400050005000527
:2006800000090009000A000B000000000002000200050005000500070007000900090009F7
:2006A0000000000000030003000300050005000800080008000A000A0000000000030003F5
:2006C000000400040006000600080008000A000A00000001000100030004000500050007C8
:2006E00000080008000A000A0000000100010001000500050005000700080008000800089D
:2007000000000001000100030003000300070007000800080008000800000000000200029C
:20072000000400040006000600080008000A000A00AA00E3005501C701AA028E0300045540
:20074000051C070008AA0A001055150020AA2A004055550080FFFF8502B10211033103510C
:200760000371039103B103D103F1040905210539055105690581059905B105C905E105F934
:20078000051106290641065906710621058906A106B906D106E90601071907310710101080
:2007A00016090909061010101602020207101010160902040F1010101601020106101010CB
:2007C00012040A0F021010101704060106101010130407050702030302020E1E0C000000F2
:2007E0001C14141700000103070F1F1F0000000E1511110E000105090D1115191D2125290C
:200800002C3034383C4044484C5054585C6064686C7074787C8083878B8F93979B9FA3A7A2
:20082000ABAFB3B7BBBFC3C7CBCFD3D6DADEE2E6EAEEF2F6FAFEFAF6F2EEEAE6E2DEDAD665
:20084000D3CFCBC7C3BFBBB7B3AFABA7A39F9B97938F8B8783807C7874706C6864605C58ED
:2008600054504C4844403C3834302C2925211D1915110D090501FEFEFEFEFEFEFEFEFEFEE5
:20088000FEFEFEFEFEFEFEFEFEFEFEFEFEFEFEFEFEFEFEFEFEFEFEFEFEFEFEFEFEFEFEFE98
:2008A000FEFEFEFEFEFEFEFEFEFEFEFEFEFEFEFEFEFEFEFEFEFE010101010101010101015A
:2008C0000101010101010101010101010101010101010101010101010101010101010101F8
:2008E00001010101010101010101010101010101010101010101FE01030507090B0D0F1193
:20090000131517191B1D1F21232527292B2D2F31333537393B3D3F41434547494B4D4F5197
:20092000535557595B5D5F61636567696B6D6F71737577797B7D7F80828486888A8C8E9080
:20094000929496989A9C9EA0A2A4A6A8AAACAEB0B2B4B6B8BABCBEC0C2C4C6C8CACCCED077
:20096000D2D4D6D8DADCDEE0E2E4E6E8EAECEEF0F2F4F6F8FAFCFE0180868C92989EA4AAF6
:20098000B0B6BBC1C6CBD0D4D9DDE1E5E9ECEFF2F4F7F9FAFCFDFDFEFEFEFDFDFCFAF9F760
:2009A000F4F2EFECE9E5E1DDD9D4D0CBC6C1BBB6B0AAA49E98928C868079736D67615B5581
:2009C0004F49443E39342F2B26221E1A1613100D0B0806050302020101010202030506082E
:2009E0000B0D1013161A1E22262B2F34393E44494F555B61676D737980808A949DA7B1BAA7
:200A0000C2CBD2DAE0E6ECF1F5F8FBFCFEFEFEFDFBF9F6F3EFEAE6E0DBD5CFC9C3BDB6B075
:200A2000AAA49F99948F8B8783807D7B797877767676767778797B7C7E8081838486878846
:200A40008989898988878684827F7C7874706B66605B554F49423C36302A241F1915100C6C
:200A6000090604020101010304070A0E13191F252D343D454E58626B7580808F9EACBAC7A3
:200A8000D3DEE7EFF5FAFDFEFEFCF9F4EFE8E1D9D1C9C2BAB3ADA8A3A09E9E9EA0A3A8AD9A
:200AA000B3BAC2C9D1D9E1E8EFF4F9FCFEFEFDFAF5EFE7DED3C7BAAC9E8F80706153453809
:200AC0002C2118100A0502010103060B10171E262E363D454C52575C5F6161615F5C5752F2
:200AE0004C453D362E261E17100B0603010102050A1018212C38455361708080909FADB987
:200B0000C3C9CCCCC9C4BCB3A9A0978F8A87878A9099A4B0BECCD9E5F0F7FCFEFCF7F0E5B6
:200B2000D9CCBEB0A499908A87878A8F97A0A9B3BCC4C9CCCCC9C3B9AD9F90806F605246A8
:200B40003C363333363B434C565F6870757878756F665B4F4133261A0F08030103080F1AD4
:200B60002633414F5B666F7578787570685F564C433B363333363C4652606F800101010330
:200B800005080D131B25313E4D5D6E8091A3B4C4D3E0EBF3FAFDFEFCF8F1E7DCCEBFB09F2B
:200BA0008E7D6C5C4C3E31251B130C0602010101010101010101010101010101010101012D
:200BC0000202030304050607070605030101010101010101010101010101010101010101CC
:200BE0000101010101010101010101010101010101010101010101010101010101010102D4
:200C00000509111B293A4D637A92A9BFD3E4F1FAFEFEF9F0E3D4C4B2A192857B7472747B57
:200C20008592A1B2C4D4E3F0F9FEFEFAF1E4D3BFA9927A634D3A291B110905020101010181
:200C4000010101010101010101010101010101010101010101010101010101010101010174
:200C60000101010101010101010101010101010101010101010101010101010101013F39DE
:200C8000332D27211B150F090301070D13191F252B31373D43494F555B61676D737980865A
:200CA0008C92989EA4AAB0B6BCC2C8CED4DAE0E6ECF2F8FEFCF6F0EAE4DED8D2CCC6C0C680
:200CC000CCD2D8DEE4EAF0F6FCFEF8F2ECE6E0DAD4CEC8C2BCB6B0AAA49E98928C8680792D
:200CE000736D67615B554F49433D37312B251F19130D070103090F151B21272D33393F8081
:200D00007870686058504840383029211911090109111921293038404850586068707880C8
:200D2000878F979FA7AFB7BFC7CFD6DEE6EEF6FEF6EEE6DED6CFC7BFB7AFA79F978F8780DD
:200D4000878F979FA7AFB7BFC7CFD6DEE6EEF6FEF6EEE6DED6CFC7BFB7AFA79F978F8780BD
:200D6000787068605850484038302921191109010911192129303840485058606870788068
:200D8000010203030405060708090A0B0C0E0F1012131517181A1C1E20222426292B2E31D9
:200DA00034373A3D4044484C5054585D62676C71777D838A91989FA7AFB7C0C9D3DDE8F350
:200DC000FEF3E8DDD3C9C0B7AFA79F98918A837D77716C67625D5854504C4844403D3A3766
:200DE00034312E2B29262422201E1C1A1817151312100F0E0C0B0A09080706050403030246
:200E000001010C16202930383E444A4F54585C606366696C6E7072747677787A7B7C7D7E47
:200E20007F808081828384858788898B8D8F919396999C9FA3A7ABB0B5BBC1C7CFD6DFE9CD
:200E4000F3FEF3E9DFD6CFC7C1BBB5B0ABA7A39F9C999693918F8D8B898887858483828148
:200E600080807F7E7D7C7B7A7877767472706E6C696663605C58544F4A443E383029201676
:200E80000C01E5CDB8A4938274665A4F453C332C26201A16120E0B090705040202010101FE
:200EA0000102020304050608090B0D0E10121416191B1D1F222427292C2E313336393B3EEC
:200EC000414446494C4F5254575A5D606366686B6E7174777A7D808285888B8E9194979A74
:200EE0009DA0A3A6A9ABAEB1B4B7BABDC0C3C6C9CCCFD2D5D8DBDEE1E3E6E9ECEFF2F5F8A5
:200F0000FBFEE51426364553606C77828B949CA3AAB1B7BCC1C6CACED2D5D9DCDEE1E3E5F8
:200F2000E7E9EBECEEEFF0F2F3F4F5F5F6F7F8F8F9F9FAFAFBFBFBFCFCFCFDFDFDFDFDFEE3
:200F4000FEFEFEEBD9C9BAAC9F93887D746B635C554E48433E3935312D2A2623211E1C1AAF
:200F60001816141311100F0D0C0B0A0A09080707060605050404040303030202020202015F
:200F800001010114FEE6BD8B582D0F0102112946637C8E989994897B6E625B58595E666FB2
:200FA0007981878B8C8B8986838180808183878A8E919496979898989999999A9C9D9FA160
:200FC000A3A5A7A8AAABACADAEAFB0B1B3B4B6B7B9BABCBDBEC0C1C2C3C5C6C7C8CACBCD0E
:200FE000CECFD1D2D3D5D6D7D9DADBDDDEDFE1E2E3E5E6E7E9EAEBEDEEEFF1F2F3F5F6F79C
:20100000F9FAFBFDFE43557398BDDDF3FEFEF4E4D0BDACA09A9A9FA8B2BDC6CCCFCFCDC85B
:20102000C2BDB8B5B3B3B4B7BABDBFC1C2C2C1C0BEBDBBBABABABABBBCBDBEBEBEBEBEBE31
:20104000BDBDBCBCBCBCAA8C6742220C01010B1B2F42535F656560574D4239333030323789
:201060003D42474A4C4C4B484542403E3D3D3E3F414244454545454443424141414141410F
:2010800042424343434373796E636C74636800706F6C7973657100617270656767696F00FD
:2010A00062706D20636E7472006363206B6E6F620063686F72646D656D00636C6F636B002F
:2010C000646976696465720063686E66696C74720063686E6D65726772007573657220702A
:2010E0007267006469737061746368006472756D73006561722067616D65006D6F6E697483
:201100006F720072616E646F6D697A00636F6E74726C6C720073706C6974746572006465DA
:201120006C6179007363616C650073657175656E6372006363206C666F0074616E7075723A
:2011400061006E6F74656E756B65007379737864756D70002172657365742100A520763167
:201160002E3220A500736E644F666600727374437472006E6F744F6666006F6D6E4F666697
:20118000006F6D6E694F6E006D6F6E6F4F6E00706F6C794F6E00737973782E2E002E73799B
:2011A00073782E002E2E737973780073746172740073746F7000636F6E742E00726573655E
:2011C000740063686E00616C6C007265737400746965006578697400666C74006F666600EE
:2011E0006F6E006E6F0079657300726563006475620072756E0062706D0067727600616DBE
:201200007400746170007377670073686600707368006C61670068756D006D6E6B0076619D
:201220006C006E756D0074797000636323006E7270006D696E006D6178006C766C0072739F
:201240007400736F7272792E2E2E007065726665637421006E6F742062616421006D6F644E
:201260000070746E0065756300696E740065787400636C6B007074310070743200707433C7
:20128000007074340063633100636332006363330063633400636335006363360063633760
:2012A0000063633800696E70006F75740073706C006C6F7700757070006E6F740076656C03
:2012C00000236331002363320063796300706F6C00726E640073746B00646972007570005B
:2012E00064776E00752664006F637400647572006C6174006469760064656E00342F3100C6
:20130000332F3100322F3100332F3200312F3100332F3400322F3300312F3200332F38002D
:20132000312F3300312F3400312F3600312F38002F3132002F3136002F3234002F33320007
:201340002F3438002F393600726570007472730064706C006F66665F006D697200616C7451
:201360000074726B00726F6F0073636C00766F690068726D0063687200696F6E00646F722D
:2013800000706872006C7964006D69780061656F006C6F6300626D6A00626D6E00706D6A3C
:2013A00000706D6E00626872007368720072757000746F6400726167006B6161006D65671B
:2013C000006D6C6B0064706B00666C6B006A61700067616D0077686C0043004323004400A5
:2013E0004423004500460046230047004723004100412300420044620045620047620041C3
:2014000062004262006B65790000737470000100020003000400616D3100616D3200616D4F
:201420003300616D3400636531006365320063653300636534007766310077663200776693
:201440003300776634007274310072743200727433007274340073793100737932007379BF
:201460003300737934007472690073717200726D700073696E0073693200736933007369E2
:2014800035006767310067673200627431006274320073703100737032006C7031006C70F7
:2014A00032007273310072733200732668007061006D61006E690073610072657300667260
:2014C00065006368640070726700F0002102000320434323204444232045204646232047EA
:2014E0004723204141232042002D303132333435363738009E1E000000000000000000009E
:20150000000000000000000000000000000000004F1F000000000000A81EF51E0000C31EA3
:2015200000000000000000000100F0033805000000019A21412121210000000012200000E8
:201540000000000016218B1F541F5C200000000083210821000000000000000000000000EE
:201560002620000000000B00D0003B057015020000780000000001000C0E00F023000000DD
:2015800000000000000000000000000000F62128225A2241220000D023000000000000DE3A
:2015A000227322000068230000000000000000000000000000000003018D24000000000034
:2015C00000000000000000000000000000000000000000000000008A24000000000000005D
:2015E000000000000000001D24FF230000060018005A05F71504013F000007007F7A252E68
:20160000250F25F024000000000000000000000000000000000000000000006F25000000C9
:2016200000000064250000000000000000000000000C00900060053B16050100043C3F4307
:2016400046303030303030932500000000000000000000000000000000000000000000006C
:20166000000000812500000000000000000000000000000000000000000000010040026C15
:201680000585160701018326000000000000000000000000000000000000CD25CA25DC2516
:2016A0000000E3250000DF250000A3251726000000000000F4259A250000040010006E05BA
:2016C000C416060100780000EA2600000000000000000000000000000000000000000000A1
:2016E000000000000000B02600000000000000000000000000000000000000000300C00051
:201700007705061709010003000D27000000000000000000000000000000000000000000EF
:20172000000000000000000A270000000000000000FD2600000000000000000000090050FC
:20174000007A054717100100070A4A474950485B3228D027C5270000000000000000000080
:20176000000024282A2723273127000000002F281A28000000000000000000000000382732
:20178000000000000A00000184059E1712001F3C5770869BAEBFCEDBE6EFF6FBFDFF00785B
:2017A00000000008040A0000AD290E29F728EA2800000000000000000000000000000000D5
:2017C0000000000000007A2900000000000000000000000000000000000000000400B000B2
:2017E0008F05E6170B0100000003E12B2D2B252B0000000000000000000000000C2BD32962
:20180000CC29162A00000000D32B172B000000000000000000000000E429000000000A003C
:201820004000950534180C0100010203040506080A0C0E1000007800000924282A38652C64
:2018400000000000000000000000000000000000000000000000000000000000502C00000C
:2018600000000000000000000000000000000000000010002002C0057C18080101000000D3
:201880000000000000000000000000007A2E000000000000000000000000000000000000A0
:2018A00000000000000000000000EE2C0000000000000000000000000000692E0000000077
:2018C000010044021006CA180A010008309B2F932F000000000000000000000000232F693F
:2018E0002F862E7E2F000000000530852F000000000000000000000000BA2F000000001F67
:2019000000000211060919150100007800001000073F3F0002000A003F0004004A003F0091
:20192000020047003F00040070324E322F320A322531BC310231DD309531B03090318B31B6
:20194000863174306F310000000000000000A03000008A309230000000000000010000003F
:20196000420666190E0100A133FA32F132E832000000000000000000000000000000000054
:201980000000000000963300000000000000000000000000000000000000000800880044AA
:2019A00006A5190F01007F0C200000070A8B35563543353B35000000000000000000000064
:2019C000000000000000000000000079350000000000000000000000000000000000000059
:2019E00000060010014C06EB19130100000100F4005C38D336523600000000243700004AA7
:201A000037000047369C369536BE36000000004E38C5360000993771370000B2370000049B
:201A200038000000008700200156062F1A14010000007800000C000830FF30FF3CFF3CFFAC
:201A400000E23800000000000000000000000000000000000000000000000000000000A1CB
:201A600038000000000000000000000000000000000000000004008000E4067F1A11010015
:201A8000300001B339000000000000000000000000000000007839FB38000003390000B059
:201AA000390000000000000000063900001B39000000000000000002000A00E806C11A0085
:201AC000010408D53AD53900000000000000000000000000003E3A763ACE39A43A000000CF
:201AE00000D23A7D3A000000000000000000000000AB3A0000000008003000ED060D1B16D5
:201B0000010500000000010102FBF9FF0000007808003C000500550ED10ED80FA7103F11D7
:201B2000B7142315531A8F1E11241FBECFEFD8E0DEBFCDBF11E0A0E0B1E0E6E9F8E702C065
:201B400005900D92A033B107D9F718E0A0E3B1E001C01D92A039B107E1F71BE1C8E2DBE1AF
:201B600004C02297FE010E94453CC631D107C9F70E94CF110C942C3B0C9400000F931F93BA
:201B8000CF93DF938C01EB0160E070E0AE010E94473B009719F0EC01C01BD10BCE01DF9112
:201BA000CF911F910F9108951F93CF93DF93EC01162F70E00E94BE0D982F06C0FE01E90FDF
:201BC000F11D80E280839F5F9117C0F3DF91CF911F910895EF92FF920F931F93CF93DF93E2
:201BE000EC01F62EE42E062F10E0B8010E94BE0D282F8F15D1F0DE01A00FB11F1297E82F9D
:201C0000F0E03197EC0FFD1F90E00DC0921728F4808111968C93119703C01196EC92119714
:201C20009F5F119731979F1588F3CDB7DEB7E6E00C94343C40E20E94EA0D08958FB7F894EE
:201C4000209130013091310140913201509133018FBFB901CA0108951F920F920FB60F926E
:201C600011242F933F934F935F936F937F938F939F93AF93BF93EF93FF93E0913501F0918F
:201C80003601309709F00995FF91EF91BF91AF919F918F917F916F915F914F913F912F914F
:201CA0000F900FBE0F901F9018950895982F2B9A8091C00085FFFCCF9093C6000895382F87
:201CC0002091F80619C08091750190917601891B8F77C9F380917601E82FF0E0E750F94F09
:201CE000E0818F5F8F77809376018091C00085FFFCCFE093C60022E2809176019091750189
:201D00008150891B8F778317F0F22093F806089586E10895282F8091760190917501815033
:201D2000891B8F77C1F380917501E82FF0E0E750F94F20838F5F8F778093750108950F93F9
:201D40001F93CF93DF93182FEB01042F842F0E945F0E812F0E948A0E002341F088810E94EC
:201D60008A0E013019F089810E948A0EDF91CF911F910F910895FF920F931F93182F062F2F
:201D8000F42E83E00E945F0E812F0E948A0E802F0E948A0E8F2D0E948A0E1F910F91FF9007
:201DA000089508951F93CF93DF93182FE0916C0325C0CE2FD0E0FE01EE0FFF1FEE0FFF1F75
:201DC000EC0FFD1FE655FE4F82818823C9F460816E3F51F04181442319F4812F806802C09A
:201DE000812F80690E94BB0EFE01EE0FFF1FEE0FFF1FEC0FFD1FE655FE4FE381EE23C9F6D7
:201E00000E94D90FDF91CF911F9108951F93182F03C0812F0E94D20E8091A9018823C9F707
:201E20001F9108950E9437100895E82FF0E0EE0FFF1FED5FFE4F6081718187E391E04EE355
:201E400050E00E942F3B089520916D0130916E01E0916F01F0917001E80FF91F820F931F35
:201E600060810E947D3B089560916D0170916E0140916B0150916C0180916F01909170011D
:201E80000E945B3B08950E94340FE0915B01F0915C01309711F080E00995E0913701F091ED
:201EA0003801309709F00995089560916D0170916E0140916B0150916C0180916F019091F2
:201EC00070010E94733B0895609171017091720140916B0150916C0180916F01909170012F
:201EE0000E942F3B0E94550F0895A0E0B0E0EBE7FFE00C940E3CC62ED42EE22EA0E0B0E072
:201F0000BC01CD012AE030E040E050E00E948B3B9B01AC012C0D311D411D511D64E975E323
:201F200087E790E00E94EA3B49015A01089481089108A108B10882E0D80ECD2CDD24CC0C1D
:201F4000DD1CE7E5F7E0CE0EDF1EFF2400E010E0C501B401A80197010E948B3B2B013C018C
:201F6000C0E0D0E0F601259134912C0F3D1FF90165917491882777FD8095982F8E01045829
:201F80001E4FA30192010E948B3BBC01992777FD9095892F680D791DF801718360832296D4
:201FA000C032D105F9F6CDB7DEB7E0E10C942A3C08953091A90120916C0304C08FEF80831D
:201FC0002381392F822F90E0FC01EE0FFF1FEE0FFF1FE80FF91FE655FE4F8281882329F043
:201FE0003093A90120936C0318C0932F9150222329F73093A90110926C030895822F90E036
:20200000FC01EE0FFF1FEE0FFF1FE80FF91FE655FE4F8281815082832381222379F7089527
:20202000482FE0916C0390E01EC02E2F30E0F901EE0FFF1FEE0FFF1FE20FF31FE655FE4FD3
:202040008081841731F48181861719F48EEF80839F5FF901EE0FFF1FEE0FFF1FE20FF31F62
:20206000E655FE4FE381EE2301F7892F0895982FEFEAF1E071E080818F3F29F07F5F3596C3
:202080007A35C9F708958091A9018F5F8093A901A72FB0E0FD01EE0FFF1FEE0FFF1FEA0F3B
:2020A000FB1FE655FE4F908361834283248350916C03552371F0852F90E0FC01EE0FFF1FB6
:2020C000EE0FFF1FE80FF91FE655FE4F8281481768F4FD01EE0FFF1FEE0FFF1FEA0FFB1F49
:2020E000E655FE4F538370936C030895252F30E0F901EE0FFF1FEE0FFF1FE20FF31FE655A1
:20210000FE4F5381552371F0852F90E0FC01EE0FFF1FEE0FFF1FE80FF91FE655FE4F8281D4
:20212000481720F7FD01EE0FFF1FEE0FFF1FEA0FFB1FE655FE4F5383F901EE0FFF1FEE0F72
:20214000FF1FE20FF31FE655FE4F7383089508958AEA91E06FEF70E042EC51E00E94543B83
:2021600010926C031092A90108951F920F920FB60F9211242F933F934F935F936F937F93FC
:202180008F939F93AF93BF93EF93FF9380919C0190919D010196A0E0B0E020917801309144
:2021A000790140917A0150917B01280F391F4A1F5B1F209378013093790140937A015093F0
:2021C0007B0180919E018F5F80939E018630C1F410929E0180919F018F5F80939F01803184
:2021E00011F410929F01E0919F01F0E0EE0FFF1FE458FE4F8081918190939D0180939C018F
:2022000080919C0190919D0190938900809388009695879590938B0080938A0080917701EF
:202220008823E1F080917401882341F0E0915701F0915801309739F0099505C08091730343
:202240008F5F8093730380919E01882339F4E0915901F0915A01309709F00995FF91EF916A
:20226000BF91AF919F918F917F916F915F914F913F912F910F900FBE0F901F901895109205
:202280006D03109271031092720308951F9378941092C100239A259A0E94B8140E94A8109F
:2022A00080E00E94150F0E94430FE0916701F0916801309721F080E00995182F05C0E091EE
:2022C0006F01F091700110810E94880E181780F0E0916501F0916601309721F080E060E0FD
:2022E000099505C0E0916F01F0917001108210E0812F0E94150F0E94AA1A88E790E060E02B
:2023000040E020E00E94750F10929E0110929F011092770180918100887F816080938100CC
:20232000109280008BE0809381008EE699E1909389008093880087EB9CE090938B00809398
:202340008A0080916F00826080936F008091B100887F82608093B1008091B0008C7F8160F3
:202360008093B000809170008160809370000E94430F8091C0008D7F8093C0001092C500AA
:2023800087E28093C4008091C10088608093C1008091C10080618093C1001F91089584B760
:2023A00014BE80916000886180936000109260000E9446110E941D1CFDCF1F93182FE09172
:2023C0004701F0914801309709F009958091530190915401892B19F4812F0E94560E1F918B
:2023E000089587EF0E94DD1187EF0E946B160895A1E0B0E0EEEFF1E10C94183C7C01962F0E
:20240000162F107F062F0F70103F09F4E8C0E0915101F0915201309709F4E1C0802F6983A9
:2024200009959981882309F0DAC0D70114964C91E0915501F0915601309709F4D4C00894B4
:20244000E11CF11C892FB70120E00995CCC0973F71F0F7014481E0915501F091560130977E
:2024600031F0B7016F5F7F4F892F21E00995103B09F445C0113B40F4103909F1103AA1F1A4
:20248000103809F0B0C010C0103D09F452C0113D20F4103C09F0A7C045C0103E09F456C0EB
:2024A000103F09F0A0C067C0D70111966C91119712964C91E0913B01F0913C012EC0F70153
:2024C00042816181442329F0E0913901F0913A0124C0E0913B01F0913C01309709F483C01A
:2024E000802F40E009957FC0D70111966C91119712964C91E0913D01F0913E010EC0F70152
:202500006181862F8857883008F46DC0D70112964C91E0914101F0914201309709F463C0A9
:20252000802FE0CFF7016181E0914301F091440107C0D70111966C91E0913F01F091400132
:20254000309709F450C0802F09954DC0F70162814181E0914501F0914601309709F443C06A
:2025600070E07695762F662777956795640F711D802F099538C00830D9F0093028F4002307
:2025800051F0073081F511C00B30E1F00C30F9F00A3049F512C0D70111961C91812F0E9483
:2025A000DD11812F0E946B161EC00E94F1111BC0E0914901F0914A010EC0E0914B01F0916A
:2025C0004C0109C0E0914D01F0914E0104C0E0914F01F0915001309731F0099504C0903FE6
:2025E00009F035CF44CF2196E6E00C94343C78941F920F920FB60F9211241F932F933F93FF
:202600004F935F936F937F938F939F93AF93BF93EF93FF938091C00087FF6BC02D9A1091EC
:20262000C600E0915301F0915401309711F0812F0995183F30F08DE693E0612F0E94F8118B
:2026400058C017FF36C01092710381E080937203812F807F803AA1F0813A28F4803881F05D
:202660008039B1F40DC0803E59F0803F19F0803B79F406C0912F9F70892F8150823020F454
:2026800082E08093720304C0943010F01092720380916D03803F11F40E94F11110936D03B5
:2026A000103F89F480EF0E94DD1180EF0E946B160AC080917103E82FF0E0E359FC4F11836C
:2026C0008F5F809371039091710380917203981780F08DE693E060916D030E94F8111092B7
:2026E000710380916D03813F20F01092720310926D038091750190917601891B8F77D9F05A
:202700008091C00085FF17C02B9A80917601E82FF0E0E750F94F90818F5F8F77809376014B
:202720009093C60008C080917303815080937303309729F00995E0915701F09158018091D5
:202740007303882381F7809174038F5F83708093740380FD2EC00E94CE178091740390E003
:2027600083709070892B29F590913401892F8A59809334018D37D8F097519093340180917E
:20278000300190913101019690933101809330018091300190913101892B49F480913201BB
:2027A00090913301019690933301809332012B982D98FF91EF91BF91AF919F918F917F9108
:2027C0006F915F914F913F912F911F910F900FBE0F901F901895382F4091A90320E012C0CC
:2027E000842F90E0DC01AA0FBB1FA80FB91FAA58BC4F8C91831719F4222339F418C0242F49
:2028000012964C91442361F70895822F90E0FC01EE0FFF1FE80FF91FEA58FC4F12968C913D
:20282000828330917503EAEAF3E090E019C012968C918093A903F5CF8191841781F4292FA8
:2028400005C0E655FC4F818180832F5FE22FF0E0832F90E00197E817F9079CF303C09F5FB0
:20286000931750F3842F90E0FC01EE0FFF1FE80FF91FEA58FC4F12828FEF8083118231506B
:202880003093750308950F931F93182F062F0E94EB13809175038031C1F4EBE7F3E021E05B
:2028A00030E08081882349F4F901EE0FFF1FE20FF31FEA58FC4F808106C02F5F3F4F3396CE
:2028C0002131310571F70E94EB13E9E7F3E091E080818F3F09F4592F9F5F33969131C1F7BF
:2028E000852F90E0FC01EE0FFF1FE80FF91FEA58FC4F8091A9038283108301835093A90398
:202900004091750320E030E022C0D901F901E655FC4F808190E0FC01EE0FFF1FE80FF91F8A
:20292000EA58FC4F80812F5F3F4F181780F4942F08C0E92FF0E0E655FC4F82913196808374
:2029400091506917B0F3A655BC4F5C930AC0622F2417D8F2552329F0E42FF0E0E655FC4F24
:2029600050834F5F409375031F910F9108950895CF93DF9310927503A9E7B3E080E3ED019F
:2029800019928A95E9F780E1EBEAF3E0EF0119928A95E9F71092A903FD0133978FEF808353
:2029A000339683E0E93AF807C9F7DF91CF910895282F6CE0822F0E94AA3B0895482FE82F96
:2029C000F0E0262F332727FD309567FF08C088279927821B930BE817F9074CF007C08FE73F
:2029E00090E0821B930BE817F9070CF4460F842F08950F931F93062F142F6C3008F00C50CC
:202A0000801B87FD845F0E94D814175FE12FF0E0EE0FFF1FE95AF84F65917491292F30E0C8
:202A2000220F331F620F731FFB01459154912CE0382F329FC0011124840F800F87FD8C509D
:202A40001F910F9108958BEB93E06FEF70E040E450E00E94543B08951092200410921F0445
:202A600082E080932304809125048230B1F0833018F48130B9F405C0813141F0833791F429
:202A80000CC08091260490E0029602C082E090E0909322048093210408951092220410920B
:202AA0002104089583E0809323040895A0E0B0E0ECE5F5E10C94173CC62FD0E0209721F4FF
:202AC000C0E0D4E0C81BD90B7C0173C0CE01C132D10510F080E290E0D82EEAECF4E19491EB
:202AE0008091C00085FFFCCF9093C600319684E1E03DF807A1F78091C00085FFFCCF81E06C
:202B00008093C6008091C00085FFFCCFD092C600E092FB03F092FC030D2D10E08DEF93E08A
:202B2000B701A8010E945B3B30E040E015C0E550FC4F2081922F92959F708091C00085FF8A
:202B4000FCCF9093C6008091C00085FFFCCF320F2F702093C6004F5FE42FF0E08D2D90E08D
:202B600001968E179F071CF7932F92959F708091C00085FFFCCF9093C6008091C00085FF0A
:202B8000FCCF3F703093C6008091C00085FFFCCF87EF8093C600C01BD10BE00EF11E209758
:202BA00041F08CED95E0E4EFF1E03197F1F70197D1F7209709F08ACFCDB7DEB7E7E00C94B9
:202BC000333CCF92DF92EF92FF921F9384E492E00E946B3B182FE82EFF2496E0EE0CFF1CC3
:202BE0009A95E1F780E892E0E80EF91E8BEFC82E83E0D82EC60160E873E040E250E00E94B8
:202C00005B3BC601B70140E250E00E94733BC60160EA73E040E250E00E945B3B80E290E03D
:202C2000E80EF91EC601B70140E250E00E94733B80E0612F0E94692E1F91FF90EF90DF9010
:202C4000CF9008956091FB037091FC03809125048230A9F0833020F4813009F03BC005C0D3
:202C6000813199F18337B1F52DC0409126048DEF93E050E00E94733B0E94340F089580E07F
:202C80000E94150F0E94430F60912604E0916501F0916601309719F080E0099505C0E0919C
:202CA0006F01F091700160830E94550F2CE088E190E00FB6F894A895809360000FBE209363
:202CC0006000FFCF0E94E1150895CB01609126040E9456150895482F803F41F410922404CB
:202CE0001092200410921F041092230480912304813019F1813030F0823091F1833009F0DC
:202D000077C063C080911F0490912004FC01E653FB4EE491E41709F054C001969093200406
:202D200080931F04069708F463C081E0809323041092200410921F04089580911F04909189
:202D40002004FC01EB5DFB4F408301969093200480931F04029709F04BC00E942C150895CC
:202D600020911F0430912004B90176956795FB01E550FC4F20FF11C04F708081482B408377
:202D800080912104909122046817790750F480912404840F8093240404C0842F8295807FDF
:202DA00080832F5F3F4F3093200420931F0480912104909122040196880F991F2817390755
:202DC000B8F083E0809323040895473F71F4E0912104F0912204E550FC4F9091240480811F
:202DE000981719F40E942216089585E0809323040895E0916501F0916601309711F009953F
:202E00000895E0916F01F0917001E80FF11D60830895E0916701F0916801309711F0099594
:202E20000895E0916F01F0917001E80FF11D808108950F931F93CF93DF939091E704E92F33
:202E4000F0E0A7E2B4E0EE0FFF1FEE0FFF1F8D010E0F1F1FE80188836983AE0FBF1F129643
:202E60004C932B839F5F9093E7048091E8048F5F8093E804DF91CF911F910F910895309151
:202E8000E704E32FF0E047E254E0EE0FFF1FEE0FFF1FDA01AE0FBF1F82E58C9380E51196CA
:202EA0008C931197E40FF51F128281E013968C933F5F6091E804E32FF0E0EE0FFF1FEE0F12
:202EC000FF1FDA01AE0FBF1F87E38C9311961C921197E40FF51F88E2828380EF13968C932B
:202EE0003F5FE32FF0E0EE0FFF1FEE0FFF1FDA01AE0FBF1F88E38C938BE311968C93119740
:202F0000E40FF51F128285E013968C933F5F832F90E0880F991F880F991FFA01E80FF91F81
:202F200029E320831182480F591FDA0112961C928FE783833F5F3093E7046C5F6093E804DD
:202F40000895EF92FF920F93CF93DF939091E704E92FF0E0A7E2B4E0EE0FFF1FEE0FFF1F05
:202F60007D01EE0EFF1EE70188836983AE0FBF1F12964C932B839F5F9093E7048091E80402
:202F8000800F8093E8048091EA048F5F8093EA04DF91CF910F91FF90EF900895CF93DF93C6
:202FA00083B190E09695879596958795817020917907220F282B2093790783B190E0969537
:202FC0008795817090911F08990F982B90931F08203829F4892F807F11F491E007C09038B6
:202FE00021F4207F11F49FEF01C090E083B1817030911D08330F382B30931D08992391F084
:2030000021E0222F2295207F8091F804E82FF0E0EE0FFF1FEC5BF74F208391838F5F8F71C7
:203020008093F804189914C0CCC022E0222F2295207F9091F804E92FF0E0EE0FFF1FEC5B60
:20304000F74F20838FEF81839F5F9F719093F8043F37F1F48091F5049091F604815A9F409E
:2030600098F422E0222F2295207F9091F804E92FF0E0EE0FFF1FEC5BF74F208381E0818366
:203080009F5F9F719093F8041092F6041092F5048091F404882309F466C0509184084091B7
:2030A0004308A42FB0E0FD01EE0FFF1FE658F84F20813181CD0163E0880F991F6A95E1F73A
:2030C000850FC82FD0E0FE01E652F84FE08180917A0086FDFCCF83C010924308852F8F5F2B
:2030E00080938408883011F41092840820914308822F877090910001892B80937C0080912C
:203100007A00806480937A00222311F437E002C0322F3150832F90E0FC01EE0FFF1FE65847
:20312000F84F40815181E4E056954795EA95E1F7FC01E551FB4F80818417A9F0408320E05E
:20314000222F2295207F3F70232B8091F804E82FF0E0EE0FFF1FEC5BF74F208341838F5FDA
:203160008F718093F804809128088F5F809328088091D907882329F05B985A981092D907B2
:2031800045C08091FA049091F904891B8F7309F43DC081E08093D9078091F904E82FF0E014
:2031A000E657F84FE0818F5F8F738093F904E4FD5A9A8BB1E295E07F8F70E82BEBB95B9A98
:2031C00025C08091F5049091F60401969093F6048093F504815A9F4008F027CF39CF809164
:2031E0007900C652D84F8883AA0FBB1FA658B84F280F311D2E1B31092D933C93842F8F5F3C
:2032000080934308883009F071CF66CFDF91CF910895FC016F3F11F460E205C0693010F469
:203220006F5C01C0685060830895FC01862F82958F708A3010F4805D01C0895A80836F70E1
:203240006A3010F4605D01C0695A618308959C01462F862F6CE00E94AA3B990F60ED74E12A
:20326000FB01E90FF11DE491D901ED939F5F690F711DFB018491F9018183842F6CE00E94C9
:20328000AA3BE9EEF4E1E80FF11DE4911196EC93089538E020E0239FD0011124A65CB74F78
:2032A000E0EAF1E002C08D9331968081882321F091E0E83AF907B9F708951F93CF93DF93A7
:2032C0009C01162FEA016623C1F1009729F4FA0180E3819361502FC097FF06C08DE2899339
:2032E0001150309521953F4F40E0E42FF0E0E55DF74FC9016AE070E00E94D73B80834F5F10
:20330000C9016AE070E00E94D73B9B016115710561F7642FDE0108C04150E42FF0E0E55DC5
:20332000F74F8081805D8D934423B1F7FE01E60FF11D161B612F61111082DF91CF911F91F3
:2033400008951F93382F162F662361F1882329F4FA0180E38193615023C020E0E22FF0E0E8
:20336000EC5DF74F832F6AE00E94AA3B90832F5F832F0E94AA3B382F882381F7622FDA016B
:2033800008C02150E22FF0E0EC5DF74F8081805D8D932223B1F7FA01E60FF11D161B612FDA
:2033A000611110821F9108951F93CF93DF93282F162FDA01662399F1882329F4FA0180E386
:2033C000819361502AC087FF04C08DE28D931150219530E0E32FF0E0E553F84F822F6AE0E2
:2033E0000E94B63B90833F5F822F6AE00E94B63B282F882379F7632FED0108C03150E32FAE
:20340000F0E0E553F84F8081805D89933323B1F7FD01E60FF11D161B612F61111082DF912F
:20342000CF911F910895982F84FD5A9A8BB19295907F8F70892B8BB95B9A88E893E10197C9
:20344000F1F75B985A9888E99AE30197F1F708951F93182F82958F700E94131A812F8F7007
:203460000E94131A1F910895282F8091F9049091FA048150891B8F73823010F480E0089582
:203480009091FA04E92FF0E0E657F84F822F82958F70806180832F70206121839E5F9F7323
:2034A0009093FA0408951F938091D0072091D1073091D2074091D3076091D407E091D507CD
:2034C000A091D6071091D707B82FBF5F91E0B81708F090E0F92FF20F81E0F21708F080E0C7
:2034E000782F730F81E0731708F080E0582F540F81E0541708F080E0382F360F81E03617F8
:2035000008F080E0282F2E0F81E02E1708F080E0982F9A0F81E09A1708F080E0810FB09314
:20352000D007F093D1077093D2075093D3073093D4072093D5079093D6078093D7071F91F2
:20354000089580EA91E060E270E048E050E00E94543B08950F931F9322982A9A8FEF8093D8
:2035600079072198299A80931F082098289A80931D0880917A00876080937A0080917A00D9
:20358000806880937A0080910001807C8062809300011092430880937C0080917A008064C7
:2035A00080937A001092840880E4EAEDF7E0DF011D928A95E9F780E1EAE7F7E0DF011D9218
:2035C0008A95E9F7529A539A8AB1806F8AB95A985B9888EE93E0E4EFF1E03197F1F70197EC
:2035E000D1F783E00E94131A00E117E2C8010197F1F783E00E94131AC8010197F1F783E0D0
:203600000E94131AC8010197F1F782E00E94131A80E20E94281A8CE00E94281A86E00E94C3
:20362000281A81E00E94281A82E00E94281A1092D9078AE398E060E270E048E050E00E94CA
:20364000543B82E398E06FE370E048E050E00E94543B1092D8071092290810922A088FEF2D
:2036600080931B0880931E0810921C081092F4041092E7041092E8041092EA041092E90441
:203680001092F3041092F6041092F5041F910F9108959B01E82FF0E0EE0FFF1FE757FF4F43
:2036A00065917491C90150E00E94383B089560EA71E048E00E94491B80EA91E068E00E94D5
:2036C0001A0E38E020E0239FD0011124A65CB74FE0EAF1E002C08D9331968081882321F0D9
:2036E00091E0E83AF907B9F70895DF92EF92FF920F931F93E82EF62E142FD22E80EA91E0BB
:2037000060E270E048E050E00E94543B85E0E816B1F483E68093A00188E68093A1019FEFB8
:20372000F91611F480E208C088E08F1518F08F2D8F5C02C08F2D88508093A20106C08E2D03
:2037400060EA71E043E00E94491B80EA91E063E00E941A0E8091A201803294F48091A1011C
:20376000803271F48F2D90E0019662E040EA51E00E945D1980EA91E062E040E30E94EA0DE1
:20378000123041F1133028F4112341F0113041F518C0133019F0143019F50CC08D2D63E03B
:2037A00044EA51E00E94A119DD2009F51330F9F48AE218C08D2D63E044EA51E00E94D419F4
:2037C00016C08D2D90E0019663E044EA51E00E945D190DC084EA91E06D2D0E94271907C0A9
:2037E0008D2D810F64EA71E043E00E94491B84EA91E063E00E941A0E002331F08BE5809304
:20380000A3018DE58093A70138E020E0239FD0011124A65CB74FE0EAF1E002C08D933196AB
:203820008081882321F091E0E83AF907B9F71F910F91FF90EF90DF900895EF92FF920F936A
:203840001F93CF93DF9310E0F1C00E941E0E60932008709321088093220890932308809190
:20386000E9042091E7049091EA0401C0891B821720F0222311F09923C9F7C82FD0E0809128
:20388000F704E82FF0E0EE0FFF1FEC5BF74F2081F1808F5F8F718093F704822F82958F70C9
:2038A000813009F080C0E0915B01F0915C01309729F08F2D0995882309F0B7C08091F30416
:2038C000882309F44BC08E01000F111F000F111F095D1B4FF8018181EF2CFF24E7FCF094B8
:2038E000CC0FDD1F8430E1F48091E9040E940917282F332727FD30952E0D3F1DCC0FDD1FA0
:20390000C75DDB4F8881682F772767FD7095F801838126173707ECF0992787FD909514C021
:203920008091E9040E9409179701280F311DCC0FDD1FC75DDB4F8881682F70E0F801838198
:203940002617370734F090E0B901821793070CF4BC018091E9040E94F91667C01091E9044A
:203960009091E9049F0D9093E9049F3F19F41092E90407C08091E804981718F081508093A4
:20398000E9048091E904E0916901F0916A01309709F44BC00995813009F447C0823001F7A9
:2039A0001093E90442C08230A1F5F1E0FF1669F5E0915D01F0915E01309719F00995882321
:2039C000A1F5CC0FDD1FCC0FDD1FC95DDB4F89818F3269F41091E904812F0E94091760E0EB
:2039E000882309F461E0812F0E94F91608C08091F30491E089278093F3048823B1F4809121
:203A0000E90490E00E94240F10C080E00E94150F0CC0882351F4E0915F01F0916001309748
:203A200021F0822F8F706F2D099511E08091F8049091F704891B8F7109F007CF0E941E0E30
:203A40002091200830912108621B730B6333710590F00E941E0E60932008709321088093F4
:203A6000220890932308E0916301F0916401309721F0099502C0112369F1E0916101F091F9
:203A80006201309719F00995882321F58091E9042091E7049091EA04E82FFF2402C0E91BEB
:203AA000F394E21720F0222311F09923C1F7F0E0EE0FFF1FEE0FFF1FE95DFB4F1081018113
:203AC0000E940917282F812F6F2D402F0091F3040E94751B8091F9049091FA048150891BB6
:203AE0008F73843008F494C0909128088091CA07981738F480911C088F5F80931C081092B6
:203B0000F806809128088093CA079091D80780911E08981739F480911C0881FF03C0109156
:203B20002F0117C02091F806222371F0992311F0973051F4E92FF0E0E65CF74F808180323D
:203B400019F4122F115005C0E92FF0E0E65CF74F1081292F30E0F901EE5CF74F80811817CE
:203B6000F1F180911B0890E001962817390721F480912A08882339F52091290830912A08A3
:203B80008091F9049091FA048150891B8F738230D0F02295220F220F207C3068232B3091B3
:203BA000FA04E32FF0E0E657F84F822F90E0A4E095958795AA95E1F780832F7021833E5FBC
:203BC0003F733093FA04812F0E94341A8091D807E82FF0E0EE5CF74F108380931B08909181
:203BE0002A089F5F90932A088091D8078F5F8093D807983069F410922A08809129088F5F47
:203C000080932908813021F4109229081092D807CDB7DEB7E6E00C94343CA7E3B5E093E1C4
:203C20002C91281741F0E92FFF27E7FDF095EC5DFA4F20839150119725E0A332B20781F7E7
:203C400011968C9308951F93382F20912305EBEFF4E01FEF90E006C08081831709F4192F3D
:203C60009F5F32969217C0F31F3F51F0E12FF0E0EE0FFF1FE550FB4F1182812F0E940D1EF9
:203C8000812F1F9108951F93382F20912305222311F41FEF41C0ABEFB4E0E0E005C08C910C
:203CA0001296831721F0EF5FE217C8F302C0EF3FB1F4A4E2B5E09FEF1C91121740F4E12F57
:203CC000F0E0EE0FFF1FE550FB4F81818111192F119685E0A833B80719F0912FEDCF1E2F26
:203CE0001F3F71F4E4E2F5E08081821708F0812F319695E0E833F90711F0182FF5CF182F7A
:203D0000E12FF0E0EE0FFF1FE550FB4F308381E08183812F0E940D1E812F1F9108950895FA
:203D200088E2EBEFF4E0DF011D928A95E9F7E4E2F5E083E181938150E8F70895809138052F
:203D400080933905882319F481E08093390508951F9310913905180F10933905112311F439
:203D600081E00CC00E94880E212F30E090E00396821793072CF40E94880E8D5F80933905AD
:203D800081E01F9108951F930E94A11A109139050E94880E181740F0109139050E94880ED9
:203DA000195E181BE12F07C0809139050E94150F80917301E82FF0E0EE0FFF1FE757FF4F5A
:203DC0006591749180EA91E048E050E00E94383B80E00E94150F80EA91E068E00E94D40DD4
:203DE0000E94491981E01F9108950F931F93109139050E94880E181789F400E00DC0802F9E
:203E00008068612F40E00E94BB0E1F5F1038B9F70F5F003109F43FC010E0F1CF009139050F
:203E200010E00E94880E90E001960817190731F480E090E060E00E94561520C00091390523
:203E400010E00E94880E90E002960817190791F411E006C0812F0E94150F0E94640F1F5FAE
:203E60000E94880E1817B0F380E00E94150F1092380504C080913905809338050E94550FCA
:203E80002CE088E190E00FB6F894A895809360000FBE2093600081E01F910F9108958E3F41
:203EA00011F00E94560E089580913B05813011F480933A05089580914B05813029F4109297
:203EC0004C0510924D05089580917503815080934D0580914105815080934C05089581E0B7
:203EE00080933A0581E090E090934A05809349058091460581508093470580914005813039
:203F000011F081E001C08FEF80934B0510924F050E945B1F089580913B05813011F40E9445
:203F20006F1F08951F9310917503609140056330D9F52091010130910201C90181709070C2
:203F4000909581959F4F8070947B36952795822793279093020180930101792F72957F7076
:203F600080914105482F50E0682F6195292F2F70322F260F832F992787FD909584179507D7
:203F8000BCF730934C05612F6195472F542F460F252F332727FD3095812F90E02817390750
:203FA000ACF750934D053CC050914B0540914D05450F40934D05242F332727FD3095812F1A
:203FC00090E0281739071CF010924D0506C047FF27C0115010934D051F5F40914C05450FB5
:203FE00040934C05242F332727FD30958091410590E02817390714F447FF12C0623071F4AA
:20400000519550934B050E945B1F123008F08BCF80914105823008F086CF02C00E945B1FA3
:204020001F9108951F93142F90913F05891761F4603451F480914E05882321F0442311F47F
:204040000E94B81410934E051F9108950F931F93182F062FE82FF0E0E55CFA4F60838430D7
:2040600050F480913C0590E060E040913D0520913E050E94750FE0914305F0E0E858FF4FB6
:20408000E491E0934605153061F480914005813011F081E001C08FEF80934B050E945B1F2C
:2040A00008C01A3031F4002321F40E94B81410924F051F910F91089580913B05813031F419
:2040C00010923A0580913F050E94060F08950F931F93809147058F5F8093470580917503CF
:2040E000882311F010924805809148058F5F80934805803680F080E68093480580913B053C
:20410000882349F410923A058CEF0E94560E80913F050E94060F80913F050E94D20E909151
:20412000470580914605981708F46FC01092470580914205E82FF0E0EE0FFF1FEB57FD4F27
:20414000859194912091490530914A0582239323892B11F490E001C09FEF8091750388230E
:2041600009F441C0992309F43EC0E0914D05F0E0E655FC4F808190E0FC01EE0FFF1FE80FF1
:20418000F91FEA58FC4F1081018180914C052CE08202C0011124180F01C01C5017FDFDCF4B
:2041A000812F60E00E941010882339F080913F058068612F40E00E94BB0E80913F058069E3
:2041C000612F402F0E94BB0EE0914405F0E0E858FF4FE491E150812F60E04E2F20E00E94A8
:2041E000120F0E94921F8091490590914A05880F991F90934A0580934905892B31F481E020
:2042000090E090934A05809349051F910F91089580913B05882349F480913A05882329F021
:2042200088EF0E94560E0E946720089580913B05813031F480913A05882311F00E946720EF
:20424000089590913F058917D9F480914E058823B9F480914505882321F4862F0E94EB13C3
:2042600008958091A90390E0FC01EE0FFF1FE80FF91FEA58FC4F8081681711F410924F0545
:2042800008950F931F93162F042F90913F058917B9F580913B05882311F5809148058036EC
:2042A000E0F0109278011092790110927A0110927B0181E08093770110929E0110929F014D
:2042C00080917C0190917D0190939D0180939C010E946F1F8AEF0E94560E10924805809191
:2042E0004505882349F080914F05882329F40E94B81481E080934F05812F602F0E944314F5
:204300001F910F910895282FFB0190913F05892F8068281771F0892F8069281751F0906B9C
:20432000291719F48081803421F0822FBF010E949F0E08950E943F1789E261E040E02FE03A
:204340000E9419178EE66FE640E023E00E94191783E760E041E024E00E9419178EE461E079
:2043600040E025E10E94191786E76AE740E020E10E94191784E76AE740E020E10E941917E5
:2043800085E76FE240E021E00E94191780913C0590E060E040913D0520913E050E94750F3E
:2043A00088E0609143050E942620109278011092790110927A0110927B0181E08093770116
:2043C00010929E0110929F0180917C0190917D0190939D0180939C0180E680934805109254
:2043E0003A0510924E0510924F05089520915005309151054091520550915305211531050C
:204400004105510541F4109278011092790110927A0110927B018091780190917901A09103
:204420007A01B0917B018093540590935505A0935605B09357052F5F3F4F4F4F5F4F209313
:2044400050053093510540935205509353050895109250051092510510925205109253050A
:2044600010925405109255051092560510925705109278011092790110927A0110927B01D8
:20448000089510925005109251051092520510925305109254051092550510925605109207
:2044A0005705109278011092790110927A0110927B010895109250051092510510925205A9
:2044C0001092530510925405109255051092560510925705109278011092790110927A019C
:2044E00010927B010895109250051092510510925205109253051092540510925505109286
:20450000560510925705109278011092790110927A0110927B0181E00895A0E0B0E0E3E9F6
:20452000F2E20C94143C6B017C01A42EE901442309F43FC0611571058105910529F4F90190
:2045400080E38193415033C0BB240B2D10E00B57174FC701B6012AE030E040E050E00E9406
:20456000EA3BF8016083B394C701B6012AE030E040E050E00E94EA3BC901DA016C017D01B3
:20458000C114D104E104F10401F74B2DDE0108C0BA94EB2DF0E0EB57F74F8081805D8D93C4
:2045A000BB20B1F7FE01E40FF11DA41A4A2D41111082CDB7DEB7EAE00C94303C882379F05C
:2045C00090915805980F90935805913818F01092580505C0933018F082E08093580581E0A3
:2045E000809359050E94491981E00895EF92FF920F931F9380915805813011F082E601C099
:2046000082E48093A00160915005709151058091520590915305611571058105910521F0E9
:204620006150704080409040E0905405F0905505009156051091570508C0969587957795E2
:20464000679516950795F794E794673222E0720720E0820720E0920780F7E114F104010574
:20466000110551F481E0E82EF12C012D112D60E070E080E090E006C024E935E347E750E036
:204680000E948B3BA80197010E94EA3BCA01B90146E022EA31E00E948D2282EA91E066E06E
:2046A0000E941A0E8091A601803219F480E38093A601E1EAF1E08181819381E0E63AF8076A
:2046C000D1F78EE280831F910F91FF90EF90089590915805923008F04AC080915905882348
:2046E00011F4913001F50E94F6220E944919809158058823C1F410925005109251051092E1
:2047000052051092530510925405109255051092560510925705109278011092790110927D
:204720007A0110927B01809158058823E1F48091780190917901A0917A01B0917B01815390
:204740009547A040B04078F020E08091500590915105A0915205B0915305C197A105B10593
:2047600018F021E001C020E02093590517C084E78093A00160915005709151058091520563
:204780009091530547E021EA31E00E948D2281EA91E067E00E941A0E0E94491981E008951D
:2047A0001F93182F0E94560E1F3FC1F410925005109251051092520510925305109254050A
:2047C000109255051092560510925705109278011092790110927A0110927B011F91089523
:2047E00082E19AE760E040E020E00E94750F1092580581E0809359050E9449190895882332
:20480000B1F480915A05482F50E080915E05282F30E060915F05421753073CF0862F90E0A8
:204820009C01421753070CF49A01822F0895E82FF0E0E65AFA4F80810895A0915A05E82F8A
:20484000F0E0E65AFA4F608370915C057723A9F480915E0587FF03C08FE780935E058091C9
:204860005F0587FF03C08FE780935F0580915D0587FF03C08FE780935D0580915A05482F10
:2048800050E080915E05282F30E060915F05421753073CF0862F90E09C01421753070CF464
:2048A0009A01922F20935A052A1799F140915D0580915B05772341F44F779F77806B642FF2
:2048C000492F0E94BB0E0895441F4427441F806B63E60E94BB0E80915B0540915D054F771E
:2048E000806B62E60E94BB0E90915B05906B40E080915A0587FD41E0892F66E00E94BB0E00
:2049000080915B0540915A054F77806B66E20E94BB0E08950E949F0E089581E460E040E044
:204920002FE70E94191789E261E040E02FE00E94191783E464E440E021E00E94191782E4DA
:2049400060E040E02FEF0E94191786E460E040E02FEF0E94191787E460E040E02FEF0E94C2
:2049600019170895DF92EF92FF920F931F93D82E062FF42EE22E80916105882311F010E013
:2049800025C0862F8D29642F422F0E94BB0E22C06F2D70E080916205681B7109E12FF0E035
:2049A000EE59FA4F8081680F711D02C0645F7F4F77FDFCCF02C06C50704060387105DCF7C0
:2049C000802F8D294E2D0E94BB0E1F5F809161051817F0F21F910F91FF90EF90DF9008951C
:2049E000582F762FE42F20916005222331F030E090E001962817390721F48091F30488239E
:204A000039F0852F806A672F4E2F0E94BB0E089580EA652F472F2E2F0E94B2240895582F47
:204A2000762FE42F20916005222331F030E090E001962817390721F48091F304882339F0BB
:204A4000852F8068672F4E2F0E94BB0E089580E8652F472F2E2F0E94B2240895582F762F8F
:204A6000A42F20916005222331F030E090E0019628173907D9F48091F3048823F1F08091DF
:204A80006105E82FF0E0EE59FA4F70838F5F809361058A3059F4E3E6F5E08181819385E0BF
:204AA000EB36F807D1F789E080936105852F8069672F4A2F0E94BB0E089580E9652F472F05
:204AC0002A2F0E94B22408958091F304882319F41092610502C00E94550F80E00895982F14
:204AE000907F903831F0903921F0903A11F00E949F0E089589E263E040E020E10E9419178C
:204B00000895282F883F59F480916D058F5F80936D0590916C05891728F010926D05822F88
:204B20000E94560E089586E760E041E020E20E9419170895843009F481E0E82FF0E0E2595F
:204B4000FA4F808108951092720580E008951F9380916E058823E1F410927801109279016B
:204B600010927A0110927B0111E01093770110929E0110929F0180917C0190917D0190931B
:204B80009D0180939C018AEF0E94560E10936E051F9108950E94A72508950E94A7250895CF
:204BA00080916E05882339F0109277018CEF0E94560E10926E0508950E94D025089588EFA5
:204BC0000E94560E0895282F873F19F090E0803F09F491E0822F807F803F11F4992319F036
:204BE000822F0E94560E08950F931F93182F062F882341F4613019F40E94A72506C00E943D
:204C0000D02503C0843009F411E0E12FF0E0E259FA4F008380916F0590E060E040917005D8
:204C2000209171050E94750F1F910F910895EF92FF920F931F938091E904843011F080E0C1
:204C40005DC0209178013091790140917A0150917B01109278011092790110927A01109233
:204C60007B01609172056623C9F120388AE1380786E0480780E0580788F5E0907305F090B2
:204C800074050091750510917605E20EF31E041F151FE0927305F092740500937505109387
:204CA000760570E080E090E020E33AE14EE151E00E948B3BA80197010E94EA3B28323105DB
:204CC0001CF428E230E005C0213F310514F020EF30E081E0622F0E94F4250AC0109272059C
:204CE00010927305109274051092750510927605809172058F5F8093720581E01F910F9195
:204D0000FF90EF90089586E36FE240E021E00E94191787E360E048E220EF0E94191788E31B
:204D20006BE340E025E00E94191789E360E040E02FE70E9419178AE360E048E220EF0E94F2
:204D4000191780916F0590E060E040917005209171050E94750F10926E0510927205089590
:204D60001F93142FB82FB07FB03F79F1F82FFF70E0917705FE1710F4A0E00DC0A0E08F2FA8
:204D800090E0409178052E2F30E0240F311D821793070CF4A1E04F2F50E0405F5F4F2E2F5B
:204DA00030E04217530714F490E009C090E080917805280F311D421753070CF491E09A2B83
:204DC00011F0F09179058F2F8B2B412F0E949F0E1F9108958FE561E040E02FE00E9419179D
:204DE00082E460E041E020E10E94191780E661E040E02FE00E9419170895462F90917A05BF
:204E0000EBE7F5E0E80FF11D892F806B60810E94BB0E08950E949F0E08951F9381E0809348
:204E2000F40489E261E040E02FE00E94191717E5812F60E040E02FE70E9419171F5F1F3507
:204E4000B9F71F91089580918405813011F480938305089580918405813011F480938305E2
:204E6000089580918405813011F41092830508950F931F93182F062FE82FF0E0EC57FA4F3B
:204E80006083843088F48091850590E060E040918605209187050E94750F112329F4002381
:204EA00019F48CEF0E94560EE0918B05F0E0E257F84EE491E0938E051F910F910895DF923B
:204EC000EF92FF920F931F93A82FD62EF42E442309F455C050918A05541B57FD50E0E09122
:204EE0008905F0E0E858FF4FE4910E2F10E060918D05762F770F40E00CC099277102C00196
:204F0000700300249009810D901D1124080F191F4F5F242F30E0852F992787FD9095281735
:204F2000390714F4662349F720918E053D2D329FE12C11248A2F60918C050E94DE141016AA
:204F400011061CF001E010E006C00F3F110519F014F00FEF10E06D2DD11061E09E2DE616B5
:204F600008F4962FFA94692F402F2F2D0E94120F8091A901823518F082E28093F8061F911D
:204F80000F91FF90EF90DF90089590918805891731F4862F60E040918A050E945F270895CA
:204FA00090918805891731F4862F642F40918A050E945F270895CF93DF93E0916C0333C06A
:204FC000CE2FD0E0FE01EE0FFF1FEE0FFF1FEC0FFD1FE655FE4F8281882339F560816E3FE6
:204FE000C1F0418180918805442311F4806801C080690E94BB0EFE01EE0FFF1FEE0FFF1F02
:20500000EC0FFD1FE655FE4F8081618144810E945F27FE01EE0FFF1FEE0FFF1FEC0FFD1FD5
:20502000E655FE4FE381EE2359F60E94D90FDF91CF91089580918405882329F488EF0E94B2
:20504000560E0E94DB27089580918405813031F480918305882311F00E94DB2708950E9413
:205060009F0E08950E943F1789E261E040E02FE00E94191782E16AE740E02CE00E9419178F
:205080008BE860E040E020E20E94191786E661E040E02FE00E9419178CE864E048EE28E1C4
:2050A0000E9419178DE864E041EC2FE30E9419178091850590E060E0409186052091870570
:2050C0000E94750F85E0609189050E943827109278011092790110927A0110927B0181E0F2
:2050E0008093770110929E0110929F0180917C0190917D0190939D0180939C0110928305DA
:205100000895CF93DF939C01EC01DC01E0E08C91861729F0EF5F1296E032C9F703C0EF3F6B
:2051200051F408C0E0E088818F3F29F0EF5F2296E032C9F7E0E0F0E0EE0FFF1FE20FF31F2C
:2051400060834183DF91CF910895EF92FF920F931F93CF93DF93082FE22EEBEBF3E0C0E071
:20516000D0E0F080F41651F4FE01EE0FFF1FE554FC4F91819F3FB9F410E010C02196329646
:20518000C032D10571F721C080919105810F8F70802B6F2D4E2D0E94BB0E1F5F8091920575
:2051A000181790F30AC080919105980F9F70892F802B642F4E2D0E94BB0E003831F4CC0F02
:2051C000DD1FC554DC4F8FEF8883CDB7DEB7E6E00C94343C982F362F242F80918F05981744
:2051E00029F480EA692F432F0E94A5280895FF920F931F93182F062FF42E80918F051817BB
:2052000049F4862F0E94231E80E8612F402F2F2D0E94A5281F910F91FF900895FF920F93D8
:205220001F93082F162FF42E80918F05081709F05DC080919005823039F1833030F4882340
:2052400051F0813009F04CC017C08330D1F1843009F046C03AC0809193058F5F809393051C
:2052600090919205891710F0109293058BEB93E0612F4091930532C08091920580932305E5
:20528000862F0E94431E1BC02091010130910201C90181709070909581959F4F8070947B21
:2052A0003695279582279327909302018093010160919205892F90E070E00E94C33B482FB2
:2052C0000AC08BEB93E04FEF09C0440F20919205429F412D11248BEB93E0612F0E94812831
:2052E00080E9602F412F2F2D0E94A5281F910F91FF900895FF920F931F93CF93DF93282FEF
:20530000EB01F42E082F007F003F31F0982F9F7080918F05981731F0822FBE014F2D0E9490
:205320009F0E16C00038A1F0003991F0003A81F010E00AC080919105810F8F70802BBE0162
:205340004F2D0E949F0E1F5F80919205181790F3CDB7DEB7E5E00C94353C109223050E944F
:20536000901E8FE561E040E02FE00E9419178DE469E640E024E00E94191780E661E040E04C
:205380002FE00E94191782E460E041E020E10E94191710929305089580919605813011F459
:2053A00080939405089580919605813061F4809394051092BD0581E090E09093BF05809317
:2053C000BE0510929F050895E82FF0E0EB56FA4F6083853050F48091970590E060E04091AC
:2053E0009805209199050E94750F08950F931F93CF93DF93C1EAD5E00BE915E088818823D9
:2054000049F080919A058068F801608140E00E94BB0E188221960F5F1F4FF5E0C53ADF076F
:2054200069F7DF91CF911F910F91089580919605813011F4109294050E94F6290895EF92D3
:20544000FF920F931F93082F10E080919A059BE9E92E95E0F92EE00EF11E8069F70160819A
:2054600044E60E94BB0E0F551A4FF7018081F80180831F910F91FF90EF900895A0E0B0E0CA
:20548000E4E4FAE20C94163C80919405882309F4BEC080919F058F5F80939F058091A00596
:2054A0008F5F8093A005803670F080E68093A00580919605882339F4109294050E94F62992
:2054C0008CEF0E94560E80919F05863009F09BC010929F0580919505882309F03FC010E008
:2054E000C0E0D0E04C2FFE01E754FA4FE081EE2311F01092A005E10FF0E0EE0FFF1FEF5486
:20550000FD4F859194912091BE053091BF0582239323892B19F0842F0E941F2A2196143258
:2055200011F0145FDFCF2091BD052F5F2093BD058091BE059091BF05880F991F9093BF05E4
:205540008093BE05203109F062C01092BD0581E090E09093BF058093BE0559C06DEAE62E93
:2055600065E0F62EC1EBD5E059EAC52E55E0D52E00E010E0F801EB55FA4FE081EE23C9F076
:205580001092A005D6018C912CE0829FC0011124E80FF0E0EE0FFF1FEF52FC4F8591949104
:2055A0002881398182239323892B19F0802F0E941F2AF70120812F5F208388819981880F52
:2055C000991F99838883D601EC91F0E0E85DF74EE49130E08E2F90E02817390731F4F701F0
:2055E000108281E090E0998388830F5F1F4F0894E11CF11C22960894C11CD11C0430110537
:2056000009F0B8CF04C0833011F40E94F629CDB7DEB7E8E00C94323C80919605813031F45C
:2056200080919405882311F00E943E2A089580919605882349F480919405882329F088EFF4
:205640000E94560E0E943E2A089590919A05891719F4862F0E94EB1308950F931F93162FA5
:20566000042F90919A05891709F09AC080919605882361F58091A005803630F110927801EF
:205680001092790110927A0110927B0181E08093770110929E0110929F0120917C01309155
:2056A0007D0130939D0120939C011092BD0521E030E03093BF052093BE0510929F058093F0
:2056C00094058AEF0E94560E1092A005812F602F0E94431480919505882319F00FEF10E0E6
:2056E0005BC010E01FC0E12FF0E0E655FC4F808190E0FC01EE0FFF1FE80FF91FEA58FC4F35
:2057000080810E94D814873010F083E005C0843010F480E001C08350E82FF0E0E754FA4F04
:2057200090831F5F809175031817E8F239C0E12FF0E0E655FC4F808190E0FC01EE0FFF1F5E
:20574000E80FF91FEA58FC4F80810E94D814282F873010F0E3E006C0843010F4E0E002C04D
:20576000E82FE350AE2FB0E0201721F4A755BA4F9C9310C0FD01EB55FA4F9083FD01E35552
:20578000FA4F1082AA0FBB1FAF54BA4F81E090E08D939C931F5F022F80917503181738F2DE
:2057A0001F910F910895282F90919A05892F8068281731F09069291719F0822F0E949F0EA3
:2057C00008951F938DE46EE440E021E00E9419170E943F1789E261E040E02FE00E9419171F
:2057E00013E5812F62E044E12CE60E9419171F5F1735B9F78091970590E060E04091980571
:20580000209199050E94750F109278011092790110927A0110927B0181E080937701109213
:205820009E0110929F0180917C0190917D0190939D0180939C011092B9051092BA05109286
:20584000BB051092BC0520E030E0F901EB55FA4F1082F901E755FA4F8BE080832F5F3F4FF7
:205860002430310591F780E68093A005109294051F9108952091010130910201C90181703E
:205880009070909581959F4F8070947B36952795822793279093020180930101892F089566
:2058A000982F807F803F21F4892F0E949F0E0895E92FF0E0EF70F070E054FA4F80818823DA
:2058C00019F0892F0E949F0E0895FF920F931F9384E00E94131A88E00E94131AFF2412C0D7
:2058E0000F2D10E00356184FF8010491802F82958F7080610E94131A0F70802F80610E9408
:20590000131AF394F8E3FF1659F785E06FE240E021E000E10E94A1171F910F91FF90089505
:20592000CF93DF93EC01722FE62FF0E0CF01807F9070803F910581F494E0F595E7959A95DE
:20594000E1F7389781E090E002C0880F991FEA95E2F79A8198233EC06F70A1E0B0E09D0104
:2059600002C0220F331F6A95E2F78881822381F184E0F595E7958A95E1F7389702C0AA0F3F
:20598000BB1FEA95E2F78A818A2311F150E08B81992787FD909548175907D4F08C81992726
:2059A00087FD9095841795079CF0472F50E08D81992787FD90954817590754F030E08E813C
:2059C000992787FD9095841795071CF031E001C030E0932F892FDF91CF9108952F923F92C0
:2059E0005F926F927F928F929F92AF92BF92CF92DF92EF92FF920F931F93DF93CF9300D0E4
:205A0000CDB7DEB7982E5B01542EA7ED6A2EA5E07A2E7301DD24CC2400E010E01501089489
:205A2000211C311CC801F4E0880F991FFA95E1F780539A4F692DF501408121810E94902C80
:205A40008823A1F0DD2011F091E005C0F7019081991F9927991FCC2011F081E006C0F70191
:205A6000808182958695869581706C010F5F1F4F20E130E0E20EF31E0430110579F6DD20D6
:205A800009F013C1CC2029F0892DB501452D0E949F0ECC24DD24C601E4E0880F991FEA95BD
:205AA000E1F780539A4F692DF5014081F10120810E94902C882309F4E7C0F301808184FF4D
:205AC00002C0982F02C0992D980F9F7085FF06C070EB972E992A62E0562E03C0F0EF9F22A9
:205AE000992AD60154E0AA0FBB1F5A95E1F7A652BA4F7E010894E11CF11C00E010E01296E0
:205B00007C91129711966C9111978C9085FC02C0F80104C0E1E0F0E0E01BF10BEA0DFB1DD0
:205B2000E0814E2F50E0882D90E08F7090708430910561F18530910554F482309105C1F00B
:205B400083309105E4F4019709F077C00AC08630910509F186309105B4F1079709F06DC097
:205B60004CC0862F992787FD9095480F591F65C0862F992787FD9095481B590B5EC08FE78E
:205B800090E09C01241B350BA90157C0462F552747FD509552C02091010130910201C9014B
:205BA00081709070909581959F4F8070947B36952795822793279093020180930101492F2F
:205BC00050E04F775070242F220F67175CF4761B279F812D1124462F552747FD5095480F12
:205BE000511D2BC0671B269F812D1124472F552747FD5095481B510920C080910101909136
:205C000002019C0121703070309521953F4F2070347B9695879528273927309302012093FC
:205C20000101761B379F212D1124862F992787FD9095480F591F420F511D87FE04C0EE2372
:205C400011F440E050E086FE03C0842F8F770AC0CA014038510514F08FE790E097FF02C04A
:205C600080E090E0F70180830F5F1F4F13960894E11CF11C0230110509F041CF8981F501DD
:205C800080838A81F10180830894C11CD11C20E130E0620E731E34E0C316D10409F0FBCE05
:205CA000892DB501452D0E949F0E0F900F90CF91DF911F910F91FF90EF90DF90CF90BF902E
:205CC000AF909F908F907F906F905F903F902F9008956093100670E0B6E0660F771FBA95C6
:205CE000E1F760587D4F80ED95E040E450E00E945B3B08958DEF61E040E023E00E9419178B
:205D000080E0609110060E94692E089580911206813011F4809311060895A0E0B0E0E3E9C4
:205D2000FEE20C94173C809140068F5F8093400690914106891708F481C010924006C8E11C
:205D4000D6E000E316E058E3E52E56E0F52E3B81F801408151813131F1F4F7018081918173
:205D60004817590710F041E02DC02091010130910201C90181709070909581959F4F80700B
:205D8000947B36952795822793279093020180930101D92E16C021E8329F900111242B50D7
:205DA000384F56954795F901E50FF11D842FD5901590819DF00180958D9DE00DF11D11245E
:205DC000DF2E40E0F80180819181F70120813181820F931FF801918380832981222311F1FB
:205DE000442301F530E0220F331F4D2D40582402212D1124332727FD30958A81280F311D25
:205E00002038310514F02FE730E080911706806B68816F7737FF02C020E030E0422F4F77A3
:205E20000E94BB0E26960E5F1F4F82E090E0E80EF91E96E0C033D90709F089CFCDB7DEB7CE
:205E4000E7E00C94333C80911206813031F480911106882311F00E948D2E08958091110677
:205E60008823B1F5809112068823D1F4109278011092790110927A0110927B0181E0809352
:205E8000770110929E0110929F0180917C0190917D0190939D0180939C018AEF0E94560EEA
:205EA0008091410681508093400681E080931106109231061092300610923306109232066F
:205EC00010923506109234061092370610923606089580911206813011F40E942E2F089534
:205EE00080911106882349F080911206882319F48CEF0E94560E10921106089580911206B5
:205F0000813011F40E94702F089580911206882349F480911106882329F088EF0E94560E73
:205F20000E948D2E089590911706891719F4862F0E94EB130895909117068917D1F49091C6
:205F40007503EDE1F6E0A0E3B6E08081813021F0823029F4992319F411961C921E923696E0
:205F6000129686E0E533F80781F7862F642F0E94431408950F931F93CF93DF93182F062F02
:205F8000882339F4613019F40E942E2F02C00E94702FE12FF0E0EF5EF94F0083153050F408
:205FA0008091130690E060E040911406209115060E94750FE0911606F0E0E858FF4FE491CA
:205FC000E09341062E2F30E0ACE1B6E0C8E3D6E08C91E82FF0E0EE0FFF1FEF5CF84F85914F
:205FE0009491AC01429FC001439F900D529F900D112489939993169656E0A433B50741F7F6
:20600000DF91CF911F910F9108950E949F0E08951F9386E36FE240E021E00E9419170E94D6
:206020003F1789EF6AE740E020E10E94191789E261E040E02FE00E94191717E5812F60E0B5
:2060400040E02FE70E941917812F885864E041EC2FE30E941917812F845860E040E02FE751
:206060000E941917812F805863EE40E021E10E941917812F8C5768E740E022E10E941917AA
:20608000812F88576AEF40E022E00E9419171F5F1B35A1F68091130690E060E040911406FA
:2060A000209115060E94750F82E0609113060E94BA2F109278011092790110927A01109201
:2060C0007B0181E08093770110929E0110929F0180917C0190917D0190939D0180939C0137
:2060E000109211061F910895982F8091F304882311F040E00DC020914206222341F040E0A3
:20610000892F90E0019630E08217930709F441E0842F089590E08091F304882309F491E07E
:20612000892F0895809143068C3348F48F5F809343068C3321F40E94A11A0E944919089599
:206140000E94A11A0E94491980E008958091F304882329F48AE28093A1010E94491908954F
:206160008091F304882329F485EA8093A1010E9449190895EF92FF920F931F93F82EE62EEA
:206180000E94A11A00EA11E0C8016F2D0E9409198CE68093A2018FE68093A30183E68093CE
:2061A000A401C80106966E2D0E9415190E9449191F910F91FF90EF900895DF92EF92FF92E8
:2061C0000F931F93F82ED62EE72E0E94A11A00EA11E0C8016F2D0E94091982E68093A201AD
:2061E000C80104966E2D0E941519C80106966D2D0E9415190E9449191F910F91FF90EF90A0
:20620000DF900895EF92FF920F931F93F82EE62E0E94A11A00EA11E0C8016F2D0E94091971
:2062200080E78093A20187E68093A3018DE68093A401C80106966E2D0E9415190E9449191E
:206240001F910F91FF90EF900895EF92FF920F931F93F82EE62E0E94A11A00EA11E0C801A2
:206260006F2D0E94091981E68093A20186E68093A30184E78093A401C80106966E2D0E94B9
:2062800015190E9449191F910F91FF90EF9008950F931F93182F062F8091F3048823E1F479
:2062A0000E94A11A80EA91E0612F0E940919E02FF0E0EE0FFF1FE757FF4F6591749182EA65
:2062C00091E046E050E00E94383B82EA91E066E00E941A0E0E9449191F910F9108951F9352
:2062E000182F8E3F39F0883F61F0109243068F3F41F403C00E94A63004C08FEF68E20E94F2
:206300004831812F0E94560E1F9108958FEF66E20E94483108958FEF67E20E944831089504
:206320008FEF65E20E9448310895803F19F48FEF62E207C0873F19F48FEF64E202C08FEFB4
:2063400063E20E944831089561E20E94483108956FE10E94483108956EE10E944831089536
:206360006DE10E94483108956CE10E94483108956BE10E9448310895FF920F931F93182FE2
:20638000062FF42E862F90E0FC01E857F040E830F10530F5EC5CFF4F0C94433C812F0E94DB
:2063A000B83134C0812F0E94B43130C0812F642F0E94BA302BC0812F0E94B03127C0812F55
:2063C0000E94AC3123C0812F0E94A8311FC0812F60E20E9448311AC0812F0E94A43116C06D
:2063E0000E94A11A80EA91E0612F0E94091983E28093A20183EA91E0602F0E94151986EA49
:2064000091E06F2D0E9415190E9449191F910F91FF900895DF92EF92FF920F931F93F82E22
:20642000E62ED42E0E94A11A00EA11E0C8016F2D0E940919C80102966E2D0E94271981E6A0
:206440008093A601C80107966D2D0E9415190E9449191F910F91FF90EF90DF900895EF92C3
:20646000FF920F931F93F82EE62E0E94A11A00EA11E0C8016F2D0E940919C80102966E2DA0
:206480000E9427198DE28093A6018093A7010E9449191F910F91FF90EF900895DF92EF9245
:2064A000FF920F931F93F82EE62ED42E0E94A11A00EA11E0C8016F2D0E940919C8010296F9
:2064C0006E2D0E942719C80106966D2D0E9415190E9449191F910F91FF90EF90DF90089502
:2064E000FF920F931F9384E00E94131A88E00E94131AFF2412C00F2D10E00356184FF80173
:206500000491802F82958F7080610E94131A0F70802F80610E94131AF394F8E3FF1659F7CC
:206520000E94A11A89E263E040E020E10E9419171F910F91FF9008951F93182F0E943A2CE0
:2065400090E02091450630E0220F331F8217930714F080E002C0812F880F1F9108951F939D
:20656000CF93DF93182F522F20914406222371F030E0862F90E001962817390739F0862FB5
:20658000812B642F452F0E94BB0E1EC0EBEBF3E020E030E08081841771F4E901CC0FDD1F84
:2065A000C554DC4F862F812B6981452F0E94BB0E103851F407C02F5F3F4F329620323105AD
:2065C00049F702C08FEF8883DF91CF911F910895982F362F242F80EA692F432F0E94AF329D
:2065E0000895982F362F242F80E8692F432F0E94AF320895A0E0B0E0E0E0F3E30C94163C55
:20660000D82E062FC42E20914406222349F030E090E001962817390719F08D2D80697EC054
:20662000C8E4D6E0BAE4EB2EB6E0FB2E88818823E9F0809145068823C9F00E943A2C182FE6
:2066400088810E949C321F772FE3422F582F159F90015095459F5095200D311D11248D2DC4
:20666000806BF7016081432F0E94BB0E21960894E11CF11CF6E0CA34DF07C1F6809147064D
:20668000882399F00E943A2C182F809147060E949C321F772C2D382F139FC0013095239F59
:2066A0003095800D911D1124C92E80914606882311F4602F12C00E943A2C182F8091460694
:2066C0000E949C321F77482F149FC0014095049F4095800D911D1124692FCBEBD3E0DE012C
:2066E000E0E08C91801729F0EF5F1296E032C9F703C0EF3F51F408C0E0E088818F3F29F097
:20670000EF5F2296E032C9F7E0E0F0E0EE0FFF1FE554FC4F008361838D2D80694C2D0E944D
:20672000BB0ECDB7DEB7E8E00C94323C982F907F903831F0903921F0903A11F00E949F0EEE
:20674000089589E263E040E020E10E94191789E360E040E02FE70E94191785E660E040E07C
:206760002FE70E94191786E660E040E02FE70E94191787E560E040E02FE70E94191788E55C
:2067800060E040E02FE70E94191787E660E040E02FE70E94191788E660E040E02FE70E9476
:2067A00019170895EF92FF920F931F93CF93DF93F82E862FE42E60914F060E94DE14082FD4
:2067C00060914D06683109F055C040E9F41631F56091520640914E060E94F914982FCBEBDB
:2067E000D3E0DE01E0E08C91801729F0EF5F1296E032C9F703C0EF3F51F408C0E0E08881EB
:206800008F3F29F0EF5F2296E032C9F7E0E0F0E0EE0FFF1FE554FC4F00839183EBEBF3E04A
:2068200020E030E08081801791F480914C06E901CC0FDD1FC554DC4F8F2969814E2D0E9404
:20684000BB0E60915006662309F410C107C02F5F3F4F32962032310529F708C180914C0652
:20686000F82A89810E94DE14682F8F2D4E2D0E94BB0EFCC010914C061F2940914E060E9461
:20688000F914682F812F4E2D0E94BB0E60915006662389F010914C061F29802F0E94DE14F7
:2068A00060914D0640914E060E94F914682F812F4E2D0E94BB0E90915106992309F4D6C0CC
:2068C00050E9F51609F0B2C020915306222319F4009354067FC080915406682F70E0E02F20
:2068E000F0E0AF01421B51099A01923079F0933020F4913009F055C006C09330A9F094300F
:2069000009F04FC02EC0641B750B4BC08091550691E0892780935506882319F43095219549
:206920003F4F620F731F3DC080910101909102019C0121703070309521953F4F2070347B7C
